:020000040800F2
:1000000000C00020313500082B0B00082D0B000824
:100010002F0B0008310B0008330B00080000000014
:10002000000000000000000000000000350B000888
:10003000370B000800000000390B00083B0B0008DC
:1000400081350008813500088135000881350008B8
:1000500081350008813500088135000881350008A8
:100060008135000881350008813500088135000898
:100070008135000881350008813500088135000888
:100080008135000881350008450B000881350008DE
:100090008135000881350008813500088135000868
:1000A0008135000881350008813500088135000858
:1000B00081350008000000000000000081350008C4
:1000C000813500088135000881350008550B00088E
:1000D0008135000881350008813500088135000828
:1000E0008135000881350008000000000000000094
:1000F0000000000000000000000000000000000000
:100100000000000081350008000000008135000873
:100110000000000000000000813500088135000863
:1001200081350008813500088135000881350008D7
:100130008135000800000000000000000000000001
:100140008135000881350008813500080000000075
:1001500081350008813500088135000881350008A7
:10016000650B0008750B00088135000800000000D1
:100170008135000881350008000000000000000003
:100180008135000881350008813500080000000035
:100190000348044B834202D0034B03B11847704716
:1001A0001000002010000020000000000548064B51
:1001B0001B1AD90F01EBA301491002D0034B03B165
:1001C00018477047100000201000002000000000B9
:1001D00010B5064C237843B9FFF7DAFF044B13B18F
:1001E0000448AFF300800123237010BD10000020ED
:1001F000000000008435000808B5044B1BB1044919
:100200000448AFF30080BDE80840CFE700000000DD
:10021000140000208435000870B50F4B0F4DAB4221
:10022000A3EB050607D0B610002455F8043B0134B3
:100230009847A642F9D803F0A5F9094D094B5E1B72
:10024000AB424FEAA60606D0002455F8043B013421
:100250009847A642F9D870BDE8470008E84700086B
:10026000E8470008EC470008830730B547D0541E24
:10027000002A3ED0CAB2034601E0013C39D303F85C
:10028000012B9D07F9D1032C2CD9CDB205EB052507
:100290000F2C05EB054535D9A4F1100222F00F0C07
:1002A00003F1100EE6444FEA121C1A46C2E900554B
:1002B000C2E9025510327245F8D10CF1010214F076
:1002C0000C0F03EB021204F00F0C13D0ACF104037B
:1002D00023F003030433134442F8045B9342FBD13D
:1002E0000CF003042CB1C9B21C4403F8011BA34257
:1002F000FBD130BD64461346002CF4D1F9E7034628
:100300001446C0E71A46A446E0E700BF72B6FEE70F
:1003100000B597B04422002105A8FFF7A5FF0023F0
:10032000009301930293039304934FF4007002F03F
:1003300019FD28BB1023059301220B9200230C9377
:1003400060230D9302230F93109211922822129290
:10035000072213921493159305A801F079F988B92F
:100360000F23009303230193002302930393049329
:100370000421684601F0A2FC30B917B05DF804FB17
:10038000FFF7C4FFFFF7C2FFFFF7C0FF08B501F09A
:1003900087F8FFF7BDFF00F029F800F08FF800F0B4
:1003A0003BF900F0D5F9642001F09CF800F0EBFA7D
:1003B000002000F0A1FA0C4800F0B4FA40F6B83082
:1003C00001F090F8012000F071FA40F6B83001F029
:1003D00089F8012000F06AFA552000F08DFA40F605
:1003E000B83001F07FF8E3E7A0350008F0B589B038
:1003F0000024039404940594069407942D4BDA6C1E
:1004000042F00102DA64DA6C02F001020192019A10
:10041000DA6C42F00202DA64DB6C03F0020302934E
:10042000029B224640F20B714FF0904002F034F8EC
:10043000214D01228021284602F02EF801221421AC
:100440004FF0904002F028F840F20F730393012719
:10045000049705940326069603A94FF0904001F0F7
:1004600037FF10230393112304930594069403A9E3
:100470004FF0904001F02CFF49F6200303930494C1
:10048000059403A94FF0904001F022FF422303930B
:100490000494059403A9284601F01AFF80230393CE
:1004A00004970594069603A9284601F011FF09B0A8
:1004B000F0BD00BF001002400004004800B587B046
:1004C0000023009301930293039304930593194827
:1004D000194A026043608360C36003610422426181
:1004E000037643760122C26180F820308362C362C2
:1004F00080F83030436380F8383000F089FB90B9E1
:100500000E4B009306230193002302937F22039254
:100510000422049205936946064800F07BFD28B941
:1005200007B05DF804FBFFF7F1FEE9E7FFF7EEFE29
:10053000F6E700BF2C000020000004500008302E19
:1005400030B5A1B0044600211B911C911D911E9154
:100550001F915C2204A8FFF787FE22682B4B9A426A
:1005600001D021B030BD4FF4804304934FF080534D
:1005700018930123059306931023079307230893E9
:10058000022309930A934FF080730B9304A801F0A0
:1005900011FD002837D11E4BDA6C42F40052DA64A8
:1005A000DA6C02F400520192019ADA6C42F0010214
:1005B000DA64DA6C02F001020292029ADA6C42F01A
:1005C0000202DA64DB6C03F002030393039B402313
:1005D0001B930B251C9500241D941BA94FF09040E4
:1005E00001F076FE01231B931C951D941BA909485D
:1005F00001F06EFE22462146122002F04FFC12202E
:1006000002F05CFCADE7FFF781FEC4E70000045098
:10061000001002400004004808B51248124B036065
:10062000124B4360002383600122C2600361436177
:100630008361C361036201F07DFF50B90021094865
:1006400002F003FB40B90021064802F02CFB30B950
:1006500008BDFFF75BFEF1E7FFF758FEF3E7FFF792
:1006600055FEF5E790000020005C0040E49CD110AE
:100670002DE9F041A0B0044600211B911C911D9171
:100680001E911F915C2204A8FFF7EEFD22682D4BFE
:100690009A4202D020B0BDE8F0814FF480730493F9
:1006A00004A801F087FC002848D1274CE36C43F0F4
:1006B0000103E364E36C03F001030193019BE36C2A
:1006C00043F00203E364E36C03F002030293029B32
:1006D00080231B934FF01208CDF8708000251D95E4
:1006E00003271E9704261F961BA94FF0904001F088
:1006F000EFFD10231B93CDF870801D951E971F965C
:100700001BA9124801F0E4FDA36D43F40003A365A7
:10071000A36D03F400030393039B2A462946482054
:1007200002F0BCFB482002F0C9FB2A4629464920BA
:1007300002F0B4FB492002F0C1FBABE7FFF7E6FD96
:10074000B3E700BF005C0040001002400004004816
:1007500008B51048104B03604FF4827343600023C8
:1007600083604FF4E062C260036143614FF4007242
:1007700082611822C2610362436283620722C262FD
:1007800003630823436302F0BEFC00B908BDFFF712
:10079000BDFDFBE7E40000200030014000B589B05A
:1007A0000023039304930593069307930268174B62
:1007B0009A4202D009B05DF804FB03F560431A6E5B
:1007C00042F480521A661A6E02F480520192019A23
:1007D000DA6C42F00202DA64DB6C03F0020302938B
:1007E000029B2823039302230493032306930523E8
:1007F000079303A9064801F06BFD00221146232050
:1008000002F04CFB232002F059FBD3E700300140FB
:100810000004004800B583B08DF8070000224FF4B3
:1008200000714FF0904001F037FE00224FF48061DC
:100830004FF0904001F030FE642301220DF10701DA
:10084000064802F0CFFC01224FF400714FF09040B7
:1008500001F022FE03B05DF804FB00BFE4000020BD
:1008600000B583B08DF8070000224FF400714FF0FF
:10087000904001F011FE01224FF480614FF0904052
:1008800001F00AFE642301220DF10701064802F07F
:10089000A9FC01224FF400714FF0904001F0FCFDE3
:1008A00003B05DF804FB00BFE400002010B504466F
:1008B00010B1012C04D010BDA620FFF7ABFFF8E764
:1008C000A720FFF7A7FFF6E7F8B507460D4616463F
:1008D0001C462120FFF79EFF3846FFF79BFF30465E
:1008E000FFF798FF2220FFF795FF2846FFF792FFBA
:1008F0002046FFF78FFFF8BD70B5054647233F221E
:1009000000210846FFF7E0FF002606E02846FFF733
:10091000A7FF01343F2CF9DD0136472E01DC00240E
:10092000F8E770BD70B5054647233F220021084611
:10093000FFF7CAFF002609E015F8010BFFF790FF4B
:100940000134E4B23F2CF7D90136F6B2472E01D874
:100950000024F7E770BD10B504462120FFF75AFFC9
:100960002046FFF757FF3F20FFF754FF10BD10B59B
:1009700004462220FFF74EFF2046FFF74BFF47209B
:10098000FFF748FF10BD08B5002201214FF090404D
:1009900001F082FD00224FF400714FF0904001F011
:1009A0007BFD01224FF480714FF0904001F074FD07
:1009B0000A2000F097FD00224FF480714FF0904024
:1009C00001F06AFD0A2000F08DFD01224FF48071D4
:1009D0004FF0904001F060FD0A2000F083FD0122FD
:1009E00011464FF0904001F057FD642000F07AFD71
:1009F000AE20FFF70FFFD520FFF70CFFF520FFF724
:100A000009FFA820FFF706FF1F20FFF703FFD320F1
:100A1000FFF700FF6020FFF7FDFEA220FFF7FAFEC0
:100A20000020FFF7F7FEA020FFF7F4FEC020FFF73D
:100A3000F1FEDA20FFF7EEFE3220FFF7EBFE812019
:100A4000FFF7E8FEFF20FFF7E5FED920FFF7E2FE03
:100A50002220FFF7DFFEDB20FFF7DCFE2020FFF780
:100A6000D9FEAD20FFF7D6FE0020FFF7D3FE2020F1
:100A7000FFF7D0FE0020FFF7CDFE8D20FFF7CAFE66
:100A8000FF20FFF7C7FEAC20FFF7C4FEFF20FFF7F3
:100A9000C1FED820FFF7BEFEF520FFF7BBFEBC204D
:100AA000FFF7B8FE1E20FFF7B5FEBE20FFF7B2FE2F
:100AB0007F20FFF7AFFE7F20FFF7ACFE7F20FFF720
:100AC000A9FE7F20FFF7A6FE7F20FFF7A3FE7F2071
:100AD000FFF7A0FE7F20FFF79DFE7F20FFF79AFE25
:100AE0007F20FFF797FE7F20FFF794FE7F20FFF720
:100AF00091FE7F20FFF78EFE7F20FFF78BFE7F2089
:100B0000FFF788FE7F20FFF785FEA420FFF782FE17
:100B1000A620FFF77FFEAF20FFF77CFE0020FFF747
:100B20001AFF0020FFF723FF08BDFEE7FEE7FEE700
:100B3000FEE7FEE770477047704708B500F0C0FC5D
:100B400008BD000008B5024800F049F908BD00BF23
:100B50002C00002008B5024802F044FC08BD00BF8C
:100B6000E400002008B5024801F048FD08BD00BFC0
:100B70009000002008B5024802F025F808BD00BF2B
:100B80009000002082B00A4B1A6E42F001021A66F1
:100B90001A6E02F001020092009A9A6D42F08052A1
:100BA0009A659B6D03F080530193019B02B07047DF
:100BB0000010024010B430300B0A9B0003F00C030D
:100BC000C45801F01F014FF01F0C0CFA01FC24EA7D
:100BD0000C0CC2F384628A404CEA0202C2505DF8F7
:100BE000044B704710B414304B0E9B0003F0040309
:100BF000C458C1F304514FF0070C0CFA01FC24EA6D
:100C00000C0C8A404CEA0202C2505DF8044B70475B
:100C100030B583B000230193002800F0D080044653
:100C2000436D13B323689A6812F0005F05D09A6889
:100C300022F0204222F03F029A602268936813F06B
:100C4000805F1FD1936823F0104323F03F0343F0EC
:100C5000805393605B4B1B689B095B4AA2FB032399
:100C60009B0901335B00019309E0FFF769FC002356
:100C7000A36584F85030D5E7019B013B0193019BAC
:100C8000002BF9D12268936813F0805F70D1636DF7
:100C900043F010036365A36D43F00103A3650120D6
:100CA000936813F0040300D00123616D11F0100F5D
:100CB0007ED1002B7CD1636D23F4817343F002035A
:100CC0006365936813F0010F0BD1404B9B6813F0E1
:100CD000010F06D163683E498A6822F47C121343EF
:100CE0008B60627E636B43EA4233E2681343A2681F
:100CF000134394F8202043EA0243012A3AD0A26A1F
:100D000022B102F47072E16A0A4313432168CD688C
:100D1000304A2A401A43CA602268936813F00803D5
:100D200000D00123ABB9237E94F83010490041EA8A
:100D30008331D36823F4804323F002030B43D36051
:100D400094F83830012B1AD02268136923F001037C
:100D500013612369012B22D02268136B23F00F0348
:100D60001363636D23F0030343F00103636524E021
:100D7000002095E7626A013A43EA4243BFE72168EF
:100D80000B696FF38A03E26B256C2A43656C2A4377
:100D9000A56C2A43134343F001030B61D9E7216893
:100DA0000B6B23F00F03E269013A13430B63D8E79F
:100DB000636D43F010036365012003B030BD012073
:100DC000FBE700BF08000020632D3E050000045033
:100DD0000003045007C0F0FF70477047704770B5BC
:100DE000044603681E685D6816F0020F10D015F007
:100DF000020F0DD0436D13F0100F03D1436D43F478
:100E000000634365204600F021FB236802221A603C
:100E100016F0040F02D015F0040F05D116F0080FDC
:100E20003AD015F0080F37D0636D13F0100F03D1CF
:100E3000636D43F4007363652368DA6812F4406FEE
:100E400024D1DA6812F4005F20D11A6812F0080F7A
:100E50001CD09A6812F0040F10D15A6822F00C02CC
:100E60005A60636D23F480736365636D13F4805F70
:100E70000CD1636D43F00103636507E0636D43F0DC
:100E800010036365A36D43F00103A3652046FFF7DC
:100E9000A3FF23680C221A6016F0200F02D015F071
:100EA000200F05D116F0400F4CD015F0400F49D05F
:100EB000636D13F0100F03D1636D43F4005363654A
:100EC0002368DA6C12F0C00F2AD10121DA6812F41B
:100ED000406F27D10120DA6871B312F0007F03D090
:100EE00050B312F4005F27D1196811F0400F23D0DE
:100EF00012F4001F20D19A6812F0080F14D15A681A
:100F000022F060025A60636D23F480536365636D61
:100F100013F4807F10D1636D43F0010363650BE030
:100F20000021D3E70020D6E7636D43F0100363652B
:100F3000A36D43F00103A365204600F083FA236804
:100F400060221A6016F0800F02D015F0800F2DD1AC
:100F500016F4807F02D015F4807F32D116F4007F22
:100F600002D015F4007F38D116F0100F17D015F00D
:100F7000100F14D0636B23B12368DB6813F0010FEB
:100F80000AD0636D43F480636365A36D43F002038D
:100F9000A3652046FFF722FF236810221A6016F48B
:100FA000806F02D015F4806F23D170BD636D43F460
:100FB000803363652046FFF710FF236880221A60A4
:100FC000C6E7636D43F400336365204600F03CFAE6
:100FD00023684FF480721A60C0E7636D43F4802386
:100FE0006365204600F031FA23684FF400721A60FE
:100FF000BAE7636D43F480436365A36D43F0080370
:10100000A36523684FF480621A60204600F01BFA43
:10101000CBE70000F0B583B00023019390F8503087
:10102000012B00F0048204460D46012380F8503065
:101030000068836813F0040F09D0636D43F0200348
:1010400063650120002384F8503003B0F0BD496887
:10105000052907D8023903294ED8DFE801F0024FED
:10106000484A0C212A68FFF7A5FD2068836813F021
:10107000040300D00123826812F0080200D001228C
:101080000BB9002A3CD02268936813F0010F17D1E6
:101090002B68E868D2F8B010C3F3120621EA060103
:1010A00000F0180CA84820FA0CF00340C3F3120318
:1010B0000B43C2F8B030EA68A44B9A4200F0A58016
:1010C0002B68A34A134200F0AE81A24A926802F054
:1010D000E070A1498B4200F05881A0498B4200F09A
:1010E0007B819F498B4200F08B810020AAE7182169
:1010F000B8E74FF48071B5E70621B3E71221B1E7F5
:10110000AA682968FFF76EFD69692268D368C3F38E
:10111000C1035B009940286904280ED02E68603214
:1011200052F820708F4B3B4006F0F84631430B439A
:1011300043F0004342F82030A5E7136E116EC1F36F
:1011400084612B68C3F3120080BBC3F384639942AC
:1011500034D021684B6E4A6EC2F384622B68C3F3AD
:10116000120080BBC3F384639A4234D021688B6E33
:101170008A6EC2F384622B68C3F3120080BBC3F390
:1011800084639A4234D02168CB6ECA6EC2F3846203
:101190002B68C3F3120080BBC3F384639A427FF4CD
:1011A00072AFCB6E23F00043CB666CE793FAA3F3E8
:1011B00013B1B3FA83F3CAE72023C8E7136E23F011
:1011C00000431366C5E793FAA3F313B1B3FA83F3AD
:1011D000CAE72023C8E74B6E23F000434B66C5E700
:1011E00093FAA3F313B1B3FA83F3CAE72023C8E752
:1011F0008B6E23F000438B66C5E793FAA3F313B11C
:10120000B3FA83F3CAE72023C8E720682B68C3F347
:1012100012063EBB9A0E013202F01F02092A8CBF51
:1012200000220122002A55D05EBB990E01318906A9
:1012300001F0F8418EBB4FEA936C0CF1010C0CF0FD
:101240001F0C012202FA0CF21143AEBB9B0E0133BC
:1012500003F01F0303EB43031B051943AA68FFF7C1
:10126000C1FC2DE793FAA3F24AB1B2FA82F201323D
:1012700002F01F02092A8CBF00220122D2E720229D
:10128000F5E793FAA3F131B1B1FA81F101318906A1
:1012900001F0F841CEE72021F8E793FAA3F24AB132
:1012A000B2FA82F2013202F01F024FF0010C0CFA86
:1012B00002F2C9E72022F5E793FAA3F343B1B3FAA8
:1012C00083F3013303F01F0303EB43031B05C4E760
:1012D0002023F6E7E6B9990E0131890601F0F841BD
:1012E00016BB4FEA936C0CF1010C0CF01F0C0122A1
:1012F00002FA0CF21143BEBB9B0E013303F01F0335
:1013000003EB43031E3B1B0543F000731943A5E7A2
:1013100093FAA3F131B1B1FA81F10131890601F0FB
:10132000F841DDE72021F8E793FAA3F24AB1B2FAD7
:1013300082F2013202F01F024FF0010C0CFA02F2AD
:10134000D8E72022F5E700BFFFFF070000007F403D
:101350000000088000030450000052C7000084CB46
:101360000100008000F0FF0393FAA3F35BB1B3FA2E
:1013700083F3013303F01F0303EB43031E3B1B0501
:1013800043F00073C2E72023F3E712F4000F7FF469
:10139000A4AE2268274B9A4201D0002052E640F4C6
:1013A000000325498A6822F0E07213438B60234BC7
:1013B0001B689B09224AA2FB03239B09013303EB11
:1013C00043039B00019302E0019B013B0193019BBE
:1013D000002BF9D1002035E612F0807F7FF481AE3A
:1013E0002268144B9A4201D000202BE640F0807313
:1013F00011498A6822F0E07213438B60002021E6D5
:1014000012F4800F11D122680A4B9A4201D00020B9
:1014100018E640F4800308498A6822F0E07213431A
:101420008B6000200EE600200CE600200AE6022079
:101430000BE600BF00000450000304500800002029
:10144000632D3E0570477047704770477047000036
:10145000104B1B780BB90120704710B504464FF4B0
:101460007A70B0FBF3F30C4A1068B0FBF3F001F0B4
:1014700029FD68B90F2C01D901200AE0002221467C
:101480004FF0FF3001F00AFD044B1C60002000E02B
:10149000012010BD000000200800002004000020F2
:1014A00010B5032001F0E8FC0F20FFF7D1FF10B1C9
:1014B0000124204610BD0446FFF764FBF9E7000055
:1014C000034B1B78034A11680B441360704700BF3D
:1014D0000000002048010020014B1868704700BF41
:1014E0004801002038B50446FFF7F6FF0546B4F181
:1014F000FF3F02D0044B1B781C44FFF7EDFF401B5D
:10150000A042FAD338BD00BF0000002030B583B040
:101510000446204B9B6D13F0805F0BD001F01AFC4A
:10152000B0F5007F17D0802C1FD82DD0702C2DD077
:1015300000211BE0174DAB6D43F08053AB65AB6DE5
:1015400003F080530193019B01F004FCAB6D23F089
:101550008053AB65E4E7802C03D9A02C03D902218A
:1015600004E0002102E0012100E003210A4A13689F
:1015700023F007030B431360136803F007038B4248
:1015800006D1002003B030BD0221EFE70121EDE7D5
:101590000120F7E70010024000200240284A93682B
:1015A000D26802F0030213F00C030AD00C2B06D011
:1015B000042B1FD0082B20D00020024610E0012A67
:1015C000F6D11F4A126812F0080F0CD11C4AD2F84B
:1015D0009420C2F303221B4951F8222043B100207A
:1015E0000C2B0DD07047164A1268C2F30312F2E7B3
:1015F0001046F5E714480022F2E714480022EFE70E
:101600000F4BDB6803F00303022B03D0032B02D143
:101610000E4A00E00C4A0A49CB68C3F302130133B7
:10162000C868C0F3062002FB00F0B0FBF3F0CB6803
:10163000C3F3416301335B00B0FBF3F0D2E700BFBB
:1016400000100240A84700080024F40000127A00AD
:10165000002800F01C83F0B583B00446964B9D68CB
:1016600005F00C05DE6806F00306036813F0100FA2
:101670005AD0E5B10C2D18D0A369002B00F0BB8027
:101680008D4A136843F001031360FFF725FF0746F7
:10169000894B1B6813F0020F40F09A80FFF71CFF84
:1016A000C01B0228F4D90320FCE2012EE4D1824BB6
:1016B0001B6813F0020F03D0A369002B00F0E9822E
:1016C000206A7D4B1B6813F0080F5BD07A4B1B68B8
:1016D00003F0F00398425CD8774B1A6842F0080296
:1016E0001A601A6822F0F002216A0A431A605A68E6
:1016F00022F47F42E16942EA01225A60002D60D063
:10170000FFF74CFF6C4B9B68C3F303136B4AD35C2E
:1017100003F01F03D8406A4B18606A4B1868FFF744
:1017200097FE002840F0BE82236813F0010F00F0FE
:101730008180082D75D00C2D71D06368B3F5803F82
:1017400000F09780B3F5A02F00F099805A4B1A68EB
:1017500022F480321A601A6822F480221A606368C8
:10176000002B00F09980FFF7B7FE0746524B1B682D
:1017700013F4003F5ED1FFF7AFFEC01B6428F5D91C
:1017800003208FE24C4BD3F894301B0903F0F00395
:10179000A0E7FFF7BBFE002840F07D82464B1A68A9
:1017A00042F008021A601A6822F0F002216A0A4325
:1017B0001A605A6822F47F42E16942EA01225A60C3
:1017C0009EE7206AFFF7A2FE002899D0012069E277
:1017D000394B1A6842F008021A601A6822F0F002C7
:1017E000216A0A431A605A6822F47F42E16942EA98
:1017F00001225A6098E7304A136823F0010313600E
:10180000FFF76AFE07462C4B1B6813F0020F8BD0C4
:10181000FFF762FEC01B0228F5D9032042E2032E27
:101820008BD1254B1B6813F4003F03D06368002B5A
:1018300000F03382236813F0020F58D0042D45D0F6
:101840000C2D41D0E368002B77D01B4A136843F47A
:1018500080731360FFF740FE0646174B1B6813F4B6
:10186000806F61D1FFF738FE801B0228F5D9032075
:1018700018E2114A136843F4803313606FE703F1F1
:101880008043A3F53C331A6842F480221A601A6838
:1018900042F480321A6062E7FFF71EFE0746064BED
:1018A0001B6813F4003FC5D0FFF716FEC01B642869
:1018B000F5D90320F6E100BF00100240D847000828
:1018C0000800002004000020022EBBD1A44B1B689E
:1018D00013F4806F03D0E368002B00F0E081A04A8E
:1018E000536823F0F853216943EA01635360236886
:1018F00013F0080F4CD063699BB3994AD2F8943027
:1019000043F00103C2F89430FFF7E6FD0646944B1E
:10191000D3F8943013F0020F3AD1FFF7DDFD801BAE
:101920000228F4D90320BDE18D4A536823F0F8530F
:10193000216943EA01635360D9E7894A136823F4B4
:1019400080731360FFF7C8FD0646854B1B6813F4D0
:10195000806FCCD0FFF7C0FD801B0228F5D9032093
:10196000A0E17F4AD2F8943023F00103C2F894300A
:10197000FFF7B2FD06467A4BD3F8943013F0020F0E
:1019800006D0FFF7A9FD801B0228F4D9032089E1C6
:10199000236813F0040F7AD0714B9B6D13F0805FB6
:1019A00036D16F4B9A6D42F080529A659B6D03F071
:1019B00080530193019B01266A4B1B6813F4807FBF
:1019C00028D0A368012B39D0052B3FD0644BD3F826
:1019D000902022F00102C3F89020D3F8902022F04A
:1019E0000402C3F89020A368002B3DD0FFF774FDDC
:1019F00007465B4BD3F8903013F0020F46D1FFF748
:101A00006BFDC01B41F288339842F2D9032049E1B3
:101A10000026D1E7534A136843F480731360FFF73D
:101A20005BFD07464F4B1B6813F4807FC9D1FFF75E
:101A300053FDC01B0228F5D9032033E1484AD2F8F0
:101A4000903043F00103C2F89030CCE7444BD3F818
:101A5000902042F00402C3F89020D3F8902042F086
:101A60000102C3F89020BEE7FFF736FD07463C4B66
:101A7000D3F8903013F0020F08D0FFF72DFDC01BF4
:101A800041F288339842F2D903200BE1E6B923688A
:101A900013F0200F35D0636AE3B1314AD2F89830A1
:101AA00043F00103C2F89830FFF716FD06462C4BB1
:101AB000D3F8983013F0020F23D1FFF70DFD801BF0
:101AC0000228F4D90320EDE0254A936D23F08053DA
:101AD0009365DCE7224AD2F8983023F00103C2F87C
:101AE0009830FFF7F9FC06461D4BD3F8983013F0F9
:101AF000020F06D0FFF7F0FC801B0228F4D9032068
:101B0000D0E0A36A002B00F0CC80022B17D00C2D64
:101B100000F0CC80124A136823F080731360FFF743
:101B2000DBFC04460E4B1B6813F0007F00F0A8801E
:101B3000FFF7D2FC001B0228F4D90320B2E0084BC7
:101B4000DB6803F00301E26A91420DD00C2D00F036
:101B5000AB80034B1B6813F0806F2FD00120A1E0F6
:101B6000001002400070004003F07002216B013948
:101B7000B2EB011FEAD103F4FE42616BB2EB012F1D
:101B8000E4D103F07842A16BB2EBC16FDED103F474
:101B9000C001E26B5208013AB1EB425FD6D103F0CB
:101BA000C063226C5208013AB3EB426FCED1404B76
:101BB0001B6813F0007F49D0002073E03C4A136893
:101BC00023F080731360FFF787FC0546384B1B68D2
:101BD00013F0007F06D0FFF77FFC401B0228F5D9E9
:101BE00003205FE0324AD36832491940E36A206B30
:101BF000013843EA0013606B43EA0023E06B4008BE
:101C0000013843EA4053206C4008013843EA4063FE
:101C1000A06B43EAC0631943D160136843F080733B
:101C20001360D36843F08073D360FFF755FC04461C
:101C30001F4B1B6813F0007F06D1FFF74DFC001B04
:101C40000228F5D903202DE000202BE0184B1A685C
:101C500042F080721A60DA6842F08072DA60FFF750
:101C60003BFC0446124B1B6813F0007F06D1FFF7C4
:101C700033FC031B022BF5D9032013E0002011E0F5
:101C80000B4AD1680C4B0B40D36000200AE00120C6
:101C90007047012006E0012004E0012002E001205D
:101CA00000E0002003B0F0BD0120FBE70120F9E7D0
:101CB000001002408C809D01FCFFEEFE002800F029
:101CC000AF8070B50D460446594B1B6803F00703FF
:101CD0008B420BD2564A136823F007030B43136061
:101CE000136803F007038B4240F09C80236813F0D5
:101CF000020F0CD0A2684F4B9B6803F0F0039A428E
:101D000005D94C498B6823F0F0031A438A60236895
:101D100013F0010F39D06368032B09D0022B26D0B2
:101D200063BB444A126812F0020F06D1012076E02C
:101D3000404A126812F0007F76D03E498A6822F04D
:101D4000030213438B60FFF7C7FB0646394B9B68C2
:101D500003F00C036268B3EB820F16D0FFF7BCFBF5
:101D6000801B41F288339842F0D9032057E0314A72
:101D7000126812F4003FE0D1012050E02D4A1268B1
:101D800012F4806FD9D1012049E0236813F0020FCB
:101D90000CD0A268274B9B6803F0F0039A4205D24F
:101DA00024498B6823F0F0031A438A60204B1B6898
:101DB00003F00703AB420AD91D4A136823F0070357
:101DC0002B431360136803F00703AB422ED1236843
:101DD00013F0040F06D0174A936823F4E063E16818
:101DE0000B439360236813F0080F07D0114A9368E0
:101DF00023F46053216943EAC1039360FFF7CEFBEC
:101E00000C4B9B68C3F303130B4AD35C03F01F0313
:101E1000D8400A4B18600A4B1868FFF719FB70BDD1
:101E2000012070470120FAE70120F8E70120F6E7DA
:101E30000020024000100240D8470008080000209F
:101E400004000020F8B504460D46594BDB6813F03A
:101E5000030F18D0564BDB6803F00303026893426C
:101E600002D001263046F8BD002A00F09C80504B7D
:101E7000DB68C3F3021301334268934201D00126A9
:101E8000F0E7002619E00368022B55D0032B5AD047
:101E9000012B40F08A80464A126812F0020F5ED091
:101EA0004348C26822F073026168013943EA0113B2
:101EB0001343C3600026002ED4D13D4A136823F09B
:101EC00080631360FFF708FB0746394B1B6813F06C
:101ED000006F05D0FFF700FBC31B022BF5D90326CB
:101EE000002EBFD1002D3CD131490B6923F078433E
:101EF00023F4FE43A068E268D20642EA00221343BC
:101F00000B612B4A136843F080631360FFF7E4FA18
:101F10000546274B1B6813F0006F05D1FFF7DCFA6D
:101F2000401B0228F5D90326002E9BD1204A1369B5
:101F3000A1690B43136195E71D4A126812F4806F83
:101F4000AED101268EE71A4A126812F4003FA7D1DB
:101F5000174A126812F4802FA2D1012682E70126C7
:101F6000A9E7012D0FD01248026922F0C06222F4C5
:101F7000FE42A16863695B08013B5B0643EA0123FB
:101F80001A430261BDE70A48026922F4C00222F442
:101F9000FE42A16823695B08013B5B0543EA01231C
:101FA0001A430261ADE701265CE701265AE700BF4C
:101FB000001002402DE9F04182B00446036813F49A
:101FC000006F26D0436CB3F5000F06D0B3F5400F79
:101FD0001DD09BB1012637461DE0B34AD36843F4B8
:101FE0008033D3600027B04AD2F8883023F440030E
:101FF000616C0B43C2F8883000260CE000210430ED
:10200000FFF720FF07460028EDD0064603E0002733
:10201000E9E700263746236813F4003F6BD0A24B54
:102020009B6D13F0805F4CD19F4B9A6D42F08052B4
:102030009A659B6D03F080530193019B4FF001085B
:102040009A4A136843F480731360FFF745FA054614
:10205000964B1B6813F4807F05D1FFF73DFA401BB8
:102060000228F5D90327002F40D18F4BD3F89030A9
:1020700013F4407315D0A26D9A4212D08A4AD2F856
:10208000903023F44073D2F8901041F48031C2F8BC
:102090009010D2F8901021F48031C2F89010C2F85C
:1020A000903013F0010F0FD1002F40F0E3807E4AF3
:1020B000D2F8903023F44073A16D0B43C2F89030F6
:1020C00015E04FF00008BBE7FFF706FA0546764B30
:1020D000D3F8903013F0020FE6D1FFF7FDF9401B63
:1020E00041F288339842F2D90327DDE73E46B8F142
:1020F000000F40F0C180236813F0010F08D06A4A36
:10210000D2F8883023F00303216A0B43C2F88830E9
:10211000236813F0020F08D0634AD2F8883023F006
:102120000C03616A0B43C2F88830236813F0040F74
:1021300008D05D4AD2F8883023F03003A16A0B43FF
:10214000C2F88830236813F0200F08D0564AD2F81E
:10215000883023F44063E16A0B43C2F88830236877
:1021600013F4007F08D0504AD2F8883023F440237B
:10217000E16B0B43C2F88830236813F4806F08D0FA
:10218000494AD2F8883023F44013216C0B43C2F83B
:102190008830236813F0400F08D0434AD2F88830C3
:1021A00023F44053216B0B43C2F88830236813F0AB
:1021B000800F08D03C4AD2F8883023F44043616B4A
:1021C0000B43C2F88830236813F4807F08D0364A66
:1021D000D2F8883023F44033A16B0B43C2F8883027
:1021E000236813F4002F0FD02F4AD2F8883023F041
:1021F0004063A16C0B43C2F88830A36CB3F1006F4D
:1022000040D0B3F1806F42D0236813F4802F0FD0F9
:10221000254AD2F8883023F04063E16C0B43C2F8C2
:102220008830E36CB3F1006F39D0B3F1806F3FD0E9
:10223000236813F4804F0CD01B4AD2F8883023F067
:102240004053216D0B43C2F88830236DB3F1805F9A
:1022500036D0236813F4004F08D0134AD2F88830E0
:1022600023F08043616D0B43C2F88830304602B0E2
:10227000BDE8F0813E463AE70B4A936D23F0805368
:10228000936538E7D36843F48013D360BCE701213A
:10229000201DFFF7D7FD0028B6D00646B4E7D36867
:1022A00043F48013D360C3E7001002400070004085
:1022B0000121201DFFF7C6FD0028B9D00646B7E76B
:1022C0000221201DFFF7BEFD0028C2D00646C0E750
:1022D000F0B583B0002362E085685E000324B4405B
:1022E00025EA0405CC68B4402C438460456825EA9F
:1022F0000C054C68C4F300149C402C4344605FE020
:10230000DD08083550F8254003F0070C4FEA8C0C27
:102310004FF00F0E0EFA0CFE24EA0E0E0C6904FAB2
:102320000CF444EA0E0440F8254060E0042400E088
:10233000002404FA0EF42C430CF1020C524D45F823
:102340002C40524CA568D44325EA02064F6817F486
:10235000801F01D042EA05064C4DAE60ED6804EAEC
:1023600005064F6817F4001F01D042EA0506474DE5
:10237000EE606D6804EA05064F6817F4003F01D06F
:1023800042EA0506414D6E602D682C404E6816F4F9
:10239000803F01D042EA05043C4A146001330A68D8
:1023A00032FA03F46ED04FF0010C0CFA03FC1CEA75
:1023B0000202F3D04C6804F00304013C012C8BD9D9
:1023C0004C6804F00304032C0CD0C4685D004FF08B
:1023D000030C0CFA05FC24EA0C0C8C68AC4044EAB3
:1023E0000C04C4604C6804F00304022C88D0046818
:1023F0004FEA430E4FF0030C0CFA0EFC24EA0C0CCF
:102400004C6804F0030404FA0EF444EA0C0404607B
:102410004C6814F4403FC1D01D4C256E45F00105B9
:102420002566246E04F001040194019C4FEA930C8C
:102430000CF10205144C54F8255003F0030E4FEA3A
:102440008E0E0F2404FA0EF425EA0405B0F1904F25
:102450003FF46EAF0F4CA0420ED004F58064A04252
:102460000CD004F58064A0420AD004F58064A04238
:102470003FF45CAF07245CE701245AE7022458E7E5
:10248000032456E703B0F0BD000001400004014002
:1024900000100240000400480AB181617047816267
:1024A000704703689A6912F0020F01D000229A6205
:1024B00003689A6912F0010F03D19A6942F0010290
:1024C0009A61704711F0010F09D090F8413003F084
:1024D0002803282B01D0F22302E0422300E000234E
:1024E00011F0020F09D043F0440C90F8412002F0A3
:1024F0002802282A10D043F0F40311F4004F0DD124
:1025000010290ED020290FD0402910D001680A6868
:1025100022EA03030B6070476346EEE743F0B8031B
:10252000EEE743F09003EDE743F02003ECE743F0E0
:102530004003EBE700285FD010B5044690F8413027
:10254000002B48D0242384F841302268136823F0FC
:10255000010313606368226823F0706313612268CB
:10256000936823F400439360E368012B38D0A36899
:10257000226843F404439360E368022B36D0226858
:10258000536823F4006353602268536843F0007378
:1025900043F4004353602268D36823F40043D360BC
:1025A000236962691343A169226843EA0123D36066
:1025B000E369216A22680B4313602268136843F0C1
:1025C0000103136000206064202384F841302063FD
:1025D00084F8420010BD80F84030FEF749F8B1E7BA
:1025E000A368226843F400439360C5E722685368F8
:1025F00043F400635360C7E70120704708B50368E0
:1026000099691A68436B03B1984708BD70477047D2
:1026100010B5044603681A68002180F8421012F4CD
:10262000804F0ED01A6822F480421A6094F841302C
:10263000DBB2292B0DD094F84130DBB22A2B18D015
:1026400010BD12F4004FF1D01A6822F400421A6053
:10265000ECE7282384F8413021232363012120461D
:10266000FFF730FF002384F840302046FFF7CEFF0D
:10267000E6E7282384F84130222323630221204601
:10268000FFF720FF002384F840302046FFF7BFFF0C
:10269000D6E77047F8B5044690F8413003F02803B8
:1026A000282B06D003680822DA61002380F8403026
:1026B000F8BD03689E69C6F300469A69120C02F0E1
:1026C000FE059A68C2F30902DF6807F0FE07C168D9
:1026D000022922D185EAD21515F0060F10D1816C9E
:1026E00001318164816C0229E2D1002181640820DA
:1026F000D86184F8401031462046FFF7CAFFD7E77B
:102700004FF40041FFF7DEFE002384F840303A46E4
:1027100031462046FFF7BDFFCAE74FF40041FFF7FF
:10272000D1FE002384F840302A4631462046FFF788
:10273000B0FFBDE77047000010B50446174BC362F9
:1027400000230363202280F8412080F84230436355
:1027500011F0040F13D003685A6A436A1A70436A6F
:1027600001334362038D53B1013B0385438D9BB21B
:10277000013B9BB24385436C43F00403436448F23E
:1027800003012046FFF79EFE23681022DA61002332
:1027900084F840302046FFF7CDFF10BD0000FFFF5A
:1027A0007047704708B590F84130DBB2602B06D017
:1027B0000023036380F84030FFF7F2FF08BD2023B9
:1027C00080F841300023036380F84030FFF7E9FFD1
:1027D000F4E7000010B5044690F84130002280F87C
:1027E00042204548E0626285626C0A436264283B8D
:1027F000DBB2022B19D803212046FFF763FE282302
:1028000084F841303D4B6363236BA26B1AB1112BEB
:1028100030D0212B2ED0E26B1AB1122B4BD0222BB1
:1028200049D02046FFF7BEFF10BD48F20301204605
:10283000FFF748FE2046FFF734FE94F84130DBB244
:10284000602B14D0202384F8413023689A6912F059
:10285000200F0CD09A6912F0100F05D01022DA6107
:10286000636C43F00403636423682022DA6100236D
:102870006363C9E723681A6812F4804F03D01A68AB
:1028800022F480421A60A06B00F061FA01280ED099
:10289000A36B1B4A9A63002384F84030A06B00F0BE
:1028A0002EFA0028C0D0A06B836B9847BCE7204667
:1028B000FFF778FFB8E723681A6812F4004F03D0D7
:1028C0001A6822F400421A60E06B00F040FA012816
:1028D0000ED0E36B0A4A9A63002384F84030E06B21
:1028E00000F00DFA00289FD0E06B836B98479BE7C0
:1028F0002046FFF757FF97E70000FFFF792A0008FF
:10290000312C000870B504460D460268166890F830
:1029100041302021D161213B092B0CD8DFE803F0A5
:1029200005630B0B0B0B0B6A056348F20101FFF704
:10293000C9FD212323632268536843F40043536095
:102940002268536823F0FF7323F48B3323F4FF735F
:1029500023F0010353602046FFF7A3FD16F4804FD8
:102960004FD02268136823F480431360A36B1BB11C
:102970001B685B689BB2638515F0040F11D025F0CE
:10298000040523685A6A636A1A70636A01336362D2
:10299000238D33B1013B2385638D9BB2013B9BB2F9
:1029A0006385638D9BB21BB1636C43F00403636466
:1029B000002384F842306363636C002B31D1E36AF7
:1029C00013F5803F3BD194F84130DBB2222B46D047
:1029D000202384F841300023236384F840302046CC
:1029E000FFF714FE3AE048F20201FFF76BFD2223E5
:1029F0002363A0E748F20301FFF764FD002323638C
:102A000099E716F4004FB7D02268136823F4004307
:102A10001360E36B002BAFD01B685B689BB26385D0
:102A2000AAE7616C2046FFF7D5FE94F84130DBB28F
:102A3000282B13D129462046FFF77EFE0EE02046C4
:102A4000FFF7E6FD0B4BE362202384F841300023BF
:102A5000236384F840302046FFF76CFE70BD2023CE
:102A600084F841300023236384F840302046FFF788
:102A7000CEFDF3E70000FFFFF8B5C76A90F84030DD
:102A8000012B00F09E8004460D461646012380F877
:102A9000403011F0200F02D012F0200F19D115F0A4
:102AA000100F3ED016F0100F3BD0638D9BB243BB8E
:102AB00094F84130DBB2282B0ED094F84130DBB2D1
:102AC000292B11D023681022DA61002084F84000FD
:102AD000F8BDFFF717FFE2E7B7F1007FEDD1294618
:102AE0002046FFF729FEF0E717F5803FEAD023687C
:102AF0001022DA612046FFF7D4FC2046FFF788FD5C
:102B0000E3E723681022DA61636C43F00403636433
:102B100017B1B7F1807FD8D1616C2046FFF75AFE1C
:102B2000D3E715F0040F1FD016F0040F1CD0638DEF
:102B30009BB273B123685A6A636A1A70636A01337D
:102B40006362238D013B2385638D9BB2013B9BB266
:102B50006385638D9BB2002BB7D117F5803FB4D04E
:102B60002046FFF755FDB0E715F0080F02D016F02C
:102B7000080F18D115F0020FA7D016F0020FA4D03D
:102B8000638D9BB2A3B1626A236812789A62636A0A
:102B900001336362638D9BB2013B9BB26385238DDE
:102BA000013B238591E729462046FFF773FD8CE71B
:102BB000B7F1807F01D0002F87D12046FFF728FD95
:102BC00083E7022084E710B502689369116813F463
:102BD000807F09D011F0800F06D0446C44F00104CE
:102BE00044644FF48074D46113F4806F0AD011F000
:102BF000800F07D0426C42F00802426402684FF432
:102C00008064D46113F4007F0AD011F0800F07D0E4
:102C1000436C43F00203436403684FF40072DA61CB
:102C2000416C11F00B0F00D110BDFFF7D3FDFBE796
:102C300008B5806A836B0BB100229A63C36B0BB13A
:102C400000229A63FFF7AEFD08BD034690F84120CD
:102C5000D2B2202A23D190F84020012A21D001228B
:102C600080F84020242280F841200068026822F089
:102C7000010202601868026822F48052026018683B
:102C800002681143016019680A6842F001020A6093
:102C9000202283F84120002083F840007047022062
:102CA000704702207047034690F84120D2B2202A94
:102CB00021D190F84020012A1FD0012280F8402025
:102CC000242280F841200068026822F0010202609C
:102CD0001868026822F4706242EA012202601968F0
:102CE0000A6842F001020A60202283F84120002095
:102CF00083F840007047022070470220704708B5F3
:102D000090F82530DBB2022B03D00423C3630120EB
:102D100008BD0268136823F00E031360026813688D
:102D200023F001031360436C03F01C03016C0122C8
:102D300002FA03F34B6080F82520002380F824304A
:102D4000836B13B198470020E2E70020E0E790F89A
:102D500025007047024B186800F4C060704700BF40
:102D600000700040B0F5007F0FD01F4B1B6803F4CC
:102D7000C063B3F5806F34D01B4A136823F4C0637B
:102D800043F48063136000207047174B1B6803F403
:102D9000C063B3F5007F20D0134A136823F4C063E7
:102DA00043F400731360114B1B68322202FB03F3E0
:102DB0000F4AA2FB03239B0C013300E0013B0A4AAC
:102DC000526912F4806F01D0002BF7D1064B5B697A
:102DD00013F4806F03D10020704700207047032058
:102DE00070470020704700BF0070004008000020BE
:102DF00083DE1B43002807DB00F01F02400901238C
:102E00009340024A42F82030704700BF00E100E0E2
:102E1000002808DB0901C9B200F1604000F56140FB
:102E200080F80013704700F00F000901C9B2014B90
:102E30001954704714ED00E000B500F00700C0F130
:102E4000070CBCF1040F28BF4FF0040C031D062B28
:102E50000FD9C31E4FF0FF3E0EFA0CF021EA00011D
:102E600099400EFA03FE22EA0E0241EA02005DF8E2
:102E700004FB0023EEE70000074AD36823F4E06375
:102E80001B041B0C000200F4E060034343F0BF632B
:102E900043F40033D360704700ED00E010B5044602
:102EA000054BD868C0F30220FFF7C6FF0146204655
:102EB000FFF7AEFF10BD00BF00ED00E008B5FFF763
:102EC00099FF08BD0138B0F1807F0BD24FF0E023AD
:102ED0005861054AF02182F82310002098610722EA
:102EE0001A6170470120704700ED00E02DE9F047BE
:102EF00082B00546884617461E46FEF7EDFA0A9B45
:102F00001B1A03EB0609FEF7E7FA8246284B1B68FB
:102F1000C3F3CB3309FB03F301932B689C6838EAB6
:102F200004040CBF01230023BB423DD0B6F1FF3F98
:102F3000F3D0FEF7D1FAA0EB0A00484507D2019A78
:102F400002B14A46019B013B01939146E5E72A689D
:102F5000536823F0E00353606B68B3F5827F0BD0B6
:102F6000AB6AB3F5005F14D0012385F85D30002310
:102F700085F85C30032018E0AB68B3F5004F02D051
:102F8000B3F5806FECD12A68136823F04003136017
:102F9000E6E72A68136823F4005313602A6813686D
:102FA00043F400531360DFE7002002B0BDE8F08770
:102FB000080000202DE9F04782B006460C46154671
:102FC0001F4600238DF80330FEF786FA0A9B1B1A72
:102FD00003EB0708FEF780FA8146D6F800A0304BD5
:102FE0001B6803EB8303C3EBC3031B0D08FB03F355
:102FF000019302E0B7F1FF3F12D133689B6803EA07
:10300000040CAC4547D0B4F5C06FF3D1002DF1D11D
:103010009AF80C30DBB28DF803309DF80330E9E705
:10302000FEF75AFAA0EB0900404507D2019A02B117
:103030004246019B013B01939046DEE732685368AC
:1030400023F0E00353607368B3F5827F0BD0B36A5B
:10305000B3F5005F14D0012386F85D30002386F8B5
:103060005C30032018E0B368B3F5004F02D0B3F52D
:10307000806FECD13268136823F040031360E6E7F9
:103080003268136823F4005313603268136843F402
:1030900000531360DFE7002002B0BDE8F08700BFF7
:1030A0000800002070B582B004460D461646009216
:1030B0000B4600224FF4C051FFF77CFFB0B90096D9
:1030C0002B46002280212046FFF710FFA8B900966A
:1030D0002B4600224FF4C0612046FFF76BFF50B132
:1030E000236E43F020032366032004E0236E43F0A5
:1030F00020032366032002B070BD236E43F020033B
:1031000023660320F7E700286AD010B50446436A17
:1031100033B94368B3F5827F05D00023C36102E071
:103120000023036143610023A36294F85D30002B08
:103130004DD0022384F85D302268136823F04003E9
:103140001360E368B3F5E06F47D90022B3F5706F01
:1031500004D0B3F5E06F01D00023A362636803F4E9
:103160008273A16801F404410B43216901F002015B
:103170000B43616901F001010B43A16901F4007186
:103180000B43E16901F038010B43216A01F0800132
:103190000B43A16A01F4005120680B430360638B69
:1031A00003F00403616A01F010010B43616B01F04D
:1031B00008010B43E16801F470610B43216813437C
:1031C0004B6000202066012384F85D3010BD84F838
:1031D0005C302046FDF7E2FAABE74FF48052B5E7EA
:1031E000012070472DE9F04383B01D4690F85C3014
:1031F000012B00F0F480044688469146012380F8B4
:103200005C30FEF769F9074694F85D60F6B2012E6E
:1032100040F0DD80B8F1000F00F0DA80B9F1000F66
:1032200000F0D680032384F85D3000232366C4F8C1
:103230003880A4F83C90A4F83E902364A4F844306D
:10324000A4F846302365E364A368B3F5004F1ED0AD
:1032500023681A6812F0400F03D11A6842F0400246
:103260001A60E368B3F5E06F44D9636813B1B9F14C
:10327000010F20D1A26B23681288DA60A36B02339E
:10328000A363E38F9BB2013B9BB2E38713E0226809
:10329000136823F0400313602268136843F48043EB
:1032A0001360D5E7FEF718F9C01BA84202D3B5F1A9
:1032B000FF3F1AD1CDB1E38F9BB2002B6FD02368B3
:1032C0009A6812F0020FEDD0A26B1288DA60A36B3D
:1032D0000233A363B4F83EC01FFA8CFC0CF1FF3C30
:1032E0001FFA8CFCA4F83EC0E5E7012384F85D30AA
:1032F00003266DE0636813B1B9F1010F32D1E38F9A
:103300009BB2012B0CD9A26B23681288DA60A36BE5
:103310000233A363E38F9BB2023B9BB2E38721E0BE
:10332000A26B236812781A73A36B0133A363E38F34
:103330009BB2013B9BB2E38714E0A36B1B78137332
:10334000A36B0133A363E38F9BB2013B9BB2E38783
:1033500008E0FEF7C1F8C01BA84202D3B5F1FF3F59
:1033600018D1BDB1E38F9BB2CBB12268936813F043
:10337000020FEED0E38F9BB2012BDED9A36B1B882B
:10338000D360A36B0233A363E38F9BB2023B9BB278
:10339000E387E7E7012384F85D30032618E03A4627
:1033A00029462046FFF77EFE08B120232366A36846
:1033B00033B901932368DA6801929B680193019BFA
:1033C000236E2BB9012384F85D30002600E002262D
:1033D000002384F85C30304603B0BDE8F083022659
:1033E000F9E7704730B585B00446026851689368C4
:1033F000C3F3801013F0400F05D113F0010F02D07A
:1034000011F0400F69D113F0020F02D011F0800FBC
:1034100067D1C3F3401513F0200F03D110B913F493
:10342000807F61D011F0200F5ED078B194F85D00FC
:10343000C0B203285AD0206E40F00400206600205D
:103440000090D068009090680090009865B1206E60
:1034500040F0010020660020029090680290106801
:1034600020F040001060029A13F4807F09D0236E90
:1034700043F0080323660023039323689B680393A8
:10348000039B236E002B2FD02268536823F0E003A8
:103490005360012384F85D3011F0030F2ED02268B1
:1034A000536823F003035360A36D4BB1154A9A632D
:1034B000A06DFFF724FC18B1236E43F04003236690
:1034C000636D8BB10F4A9A63606DFFF718FC58B1BA
:1034D000236E43F04003236606E0E36C20469847E2
:1034E00002E0236D2046984705B030BD00230193CC
:1034F000D368019393680193019BF5E72046FFF79A
:1035000070FFF1E70935000808B5806A0023A0F8CC
:103510004630C387FFF765FF08BD0000034AD2F8B5
:10352000883043F47003C2F88830704700ED00E043
:10353000DFF834D0FFF7F2FF0C480D490D4A0023A5
:1035400002E0D458C4500433C4188C42F9D30A4A58
:103550000A4C002301E013600432A242FBD3FCF7C3
:103560005BFEFCF713FFFEE700C000200000002018
:1035700010000020F8470008100000204C01002037
:10358000FEE70000F8B500BFF8BC08BC9E467047D7
:10359000F8B500BFF8BC08BC9E46704700000000AC
:1035A000200480004800000000000000000000002F
:1035B00000F000000000000000000000000000001B
:1035C00000000000000000000000000000000000FB
:1035D00000000000000000000000000000000000EB
:1035E00000000000000000000000000000000000DB
:1035F000F0FFFFFF000000000000000000000000DE
:10360000000000F00F000000FF0F000000000000AD
:10361000000000000000000000F0FFFFAA00F00022
:10362000FFFF0000000000000000000000F0FF00AD
:10363000FFF0FFFF0000FFFF00000000000000009F
:103640000000F0FFFF0000F0FFFFFFFFFFFF0000A2
:10365000000000000000000000FFFFFF0FF0FFFF70
:103660000FFF00000000000000000000FFFFFFFF50
:103670000F0000FF0FF0FFFFFFFFFF000000000042
:103680000000FFFFFF0FF0FFFF00FF0FF0FF000043
:103690000000000000000000F0FFFFFF0FFF00002F
:1036A000F00F000000000000000000FFFF0010F01D
:1036B000000000F00FF0FFFFFFFFFF000000000020
:1036C00000F0FFFFFFFFFF0000000000F00F000010
:1036D0000000000000000000F0FFFFFFFF000000FE
:1036E00000F00F0000000000000000F00F000000DC
:1036F0000000FFFFFFFFFFFFFFFFFF0000000000D3
:1037000000FFFFFFFFFF0F000000000000FF0000B0
:103710000000000000000000FFFFFFFFFF00BB00F3
:103720000000FF0000000000000000F00F0000009B
:1037300000FFFFFF00FFFFFFFFFFFF000000000092
:1037400000FFFFFFFFFFFF000000000000FF0F0071
:10375000F0FF0F0000000000FFFFFFFFFFFF13005E
:1037600000000F0000000000000000F00FFFFFFF4E
:10377000FFFFFFFF0FFFFFFFFFFFFF0F0000000035
:10378000F0FFFFFFFFFF0F000000000000FFFFF051
:10379000FFFFFF0000000000FFFFFFFF0FF0FFFF33
:1037A000FFFFFF0000000000000000F0FFFF0FFF20
:1037B000FFFFFFFFFFFFFFFFFFFFFFFF0000000015
:1037C000F0FFFFFFFFFFFF000000000000FFFFFF12
:1037D000FFFFFF0000000000F0FFFFFF0000F0FF10
:1037E000FFFFFF0000000000000000FFFFFFFFFFE1
:1037F00000FFFFFF0FF0FFFFFFFFFFFF00000000D3
:10380000F0FFFFFFFFFFFFFF00000000F00F00FFD1
:10381000FFFFFF0F00000000F0FFFF0F0000F0FFB0
:10382000FFFF0F0F000000FFFF0FF0FFFFFFFF0F74
:103830000000FFFF0000FFFFFFFFFFFF0F00000081
:1038400000FFFFFFFF0F00FF0F00FFFFFFFF0FFF55
:10385000FFFFFF0F00000000FF0000000000F0FF6E
:10386000FFFF0F0F000000FFFFFFFFFFFFFFFF0044
:10387000000000FFFF0FF0FFFFFFFFFF0F00000041
:1038800000FFFFFFFFFFFFF0FFFFFFFF00F0FFF073
:10389000FFFFFF0F000000F00F0000000000F0FF2E
:1038A000FFFFFF0F0000FFFFFFFFFFF0FFFF000023
:1038B0000000FFFFFFFF0FFFFFFFFFFF0F000000F3
:1038C00000F0FFF0FFFFFF0FFFFFFFFFFFFFFFF024
:1038D000FFFFFF0F000000FF00000000000000FFDE
:1038E000FFFFFFF00000FFFFFFFFFF1400F0FF00ED
:1038F0000000FFFFFFFFFFFFFFFFFFFF00000000D2
:1039000000000FF0FFFFFFFF0FF0FFFFFFFFFF00C2
:10391000FFFFFF000000000F00000000000000F0AB
:10392000FFFF0FF00000FFFFFFFF0F00F0FFFFFFA2
:1039300000F0FF00FFFFFFFFFFFFFFFF00000000A0
:1039400000000FF0FFFFFFFF0FF0FFFFFFFFFF0082
:10395000F0FFFF000000F000000000000000000089
:10396000F00000F00000FFFFFFFF0F00FFFFFFFF70
:103970000FF00F0000FFFFFFFFFFFF0F0000000030
:1039800000F00000F0FFFFFF0000FFFFFFFFFF005F
:10399000F0FF0F000000FF0000000000000000002A
:1039A00000F0FFF00F00FFFFFFFF00F0FFFF0FF040
:1039B0000FF00F0000FFFFFFFFFFFF0F00000000F0
:1039C00000FF0000F0FFFF000000F0FFFFFF0F000E
:1039D000F000000000000F000000000000000000E8
:1039E00000FFFF0F0F00FFFFFFFF00F0FF0F0000C1
:1039F0000FF000FF00F0FFFFFFFFFF0000000000DE
:103A0000000F00F0FFFF0F0000000000FF000000AB
:103A1000F000000000F00F000000000000000000B7
:103A2000F0FFFF0F0F0000FFFFFF00FFFF0F000080
:103A30000FF0F0F00FF0FFFFFFFFFF0000000000AD
:103A4000F00FF0FFFFFFFF000000F0FF000000009C
:103A5000F00F000000F00000000000000000000077
:103A6000F0FF00FF0F0000F0FFFF00FFFF00FFFF6F
:103A70000000F00000F0FFFFFFFFFF0000F0FFFF7D
:103A8000FF0FFFFFFFFFFF0000F0FFFFFF00000040
:103A9000F00F0000000F0000000000000000000018
:103AA000FF0F0000FF00000000FF00FFFF000FF00D
:103AB0000000000000FFFFFFFFFFFF0000F00F000D
:103AC000FFF0FFFF0FF0FF0000F0FFFFFFFF00001F
:103AD000F00F0000000F00000000000000000000D8
:103AE000FF0FF00FF000000000FF00FFFF000F00CD
:103AF00000000000FFFFFF0FFFFFFF0000FFFF00BF
:103B0000FFFFFFFFF0FFFF0000FFFFFFFFFF0F00C1
:103B1000F00F0000F00F00000000000000000000A7
:103B2000FF0FF00FF000000000FF00FFFF0000F0AB
:103B300000000000FFFFFF00FFFFFF00F00FFFFF8E
:103B40000FFFFFFFFFF00F0000FF0FF0FFFF0F0060
:103B5000F00F0000F0000000000000000000000076
:103B6000F00FF00FF00F000000FF00FFFF0F00FF4D
:103B700000FF0F0000000000FFFFFF00F000F0FF5B
:103B80000FFFFFFF0FF00F0000FFFFF0FFFF0F0020
:103B9000F0000000F0000000000000000000000045
:103BA000F0FFF00F00FF000000FF00FFFFFFFF0F1E
:103BB000F0FF0F0000000000FFFFFF00F000F0FF2B
:103BC0000FFFFFFF000F0000000FF0F0FFFFFF00EE
:103BD000F00F0000FF0000000000000000000000E7
:103BE000F0FF0F0000FF000000FF00FFFFFFFF00DD
:103BF00000F000F00F000000FFFFFF00F00F00FFDB
:103C00000FFFFFFFFF0F0000000000F0FFFF0F009D
:103C1000F00F00F0FF0000000000000000000000B6
:103C200000F00F0000F0000000FF00F0FFFF0F00A9
:103C300000F00FF00F000000FFFFFF0000FF00F09A
:103C40000FF0FFFFFFFF0F0000F0FFFFFFFF0F006F
:103C5000F00F00F00F000000000000000000000066
:103C60000000000000F0000000FF00000000000065
:103C7000FFFFFFFF00000000FFFFFF0000FF0FFF3E
:103C80000F00FFFF0FFF0F0000F0FFFFFFFF0F000F
:103C9000F00F00F00F000000000000000000000026
:103CA0000000000000FF000000FF00000000000016
:103CB000FF0F000000000000FFFFFF0000F0FFFF0B
:103CC0000F00000000F000000000F0FFFFFF000008
:103CD000F00F00F00F0000000000000000000000E6
:103CE000000000000F0F000000FF000000000000B7
:103CF0000000000000000000FFFFFF00000000FFC8
:103D0000FF00000000000000000000F0FF000000C5
:103D1000FF000000FF0000000000000000000000A5
:103D2000000000F00F0F000000FF00000000000086
:103D300000000000000000F0FFFFFF00000000F0A6
:103D4000FF0F00000000000000000000000000F075
:103D5000FF000000F0000000000000000000000074
:103D6000000000F0F00F000000FF00000000000065
:103D700000000000000000F0FFFFFF000000000056
:103D80000FFF0000FFFFFF0F00000000000000F029
:103D90000F000000F00F0000000000000000000015
:103DA0000000000FFF00000000FF00000000000006
:103DB00000000000000000FFFFFFFF000000000007
:103DC000FFF00F00F0FFFF0000000000000000FF08
:103DD00000000000000F00000000000000000000D4
:103DE000000000F00F00000000F00F0000000000D5
:103DF000000000000000F0FFFFFF0F0000000000C7
:103E0000FF00FF0000000000000000000000FF0FA6
:103E10000000000000F00F000000000000000000A3
:103E20000000F0FF0000000000F0FF0000000000B4
:103E30000000000000F0FFFFFFFF0F000000000087
:103E4000F00FF0FF000000000000000000F0FF0095
:103E5000000000000000FF00000000000000000063
:103E60000000FF00000000000000FF0F0000000045
:103E70000000000000FF00FFFFFF0F000000000037
:103E8000F00F00F0FF00000000000000F0FF000055
:103E900000000000000000FF0000F0FF0F00000025
:103EA00000FF0F00000000000000F0FFFF00000016
:103EB00000000000FF000000FFFF0F0000000000F6
:103EC00000FF00F0FFFFFFFF00F0FFFFFFFF00001B
:103ED00000000000000000F0FF0FFFFFFF000000E7
:103EE000FF0F00000000000000000000FFFFFFFFC8
:103EF000FFFFFF000000000000FF0F0000000000B7
:103F000000FF00FFFF00F0FFFFFFFFFFFFFF0F00BC
:103F10000000000000000000FFFFFFFFFF00F0FFB7
:103F20000F00000000000000000000000000FFFF84
:103F3000FFFF00000000000000FF00000000000084
:103F400000F00FFF0F0000000000FF0FFFFF0F0049
:103F500000000000000000F0FFFFFFFFFF0FF0F087
:103F60000F00000000000000000000000000F0FF53
:103F7000FF0000000000000000F000000000000052
:103F800000F00FFF000000000000FF00F0FF0F0036
:103F9000000000000000000F0FFFFFFF0F000000F7
:103FA0000F00000000000000000000000000FFFF04
:103FB000FF0000000000000000F000000000000012
:103FC0000000FF0F000000000000FF0000FF0F00D6
:103FD000000000000000F0FF0FFFFFFF0F000000D7
:103FE0000F000000000000000000000000F0FFFFD4
:103FF0000F0000000000000000F00F0000000000B3
:104000000000FF0F000000000000FF0000F00F00A4
:10401000000000000000F0FFF0FFFFFF00000000C4
:10402000FF000000000000000000000000F0FFFFA3
:104030000F0000000000000000F00F000000000072
:104040000000F000000000000000FF0F00000F0063
:10405000000000000000F0FFFFFFFFFF0000000075
:10406000F00F0000000000000000000000FFFFFF54
:104070000F0000000000000000F00F000000000032
:104080000000FF0000000000000000FF0000FF0033
:10409000000000000000F0FFFFFFFF0F0000000025
:1040A000F0FFFF00000000000000000000FFFFFF25
:1040B000FF0000000000000000000F0000000000F2
:1040C0000000FF0000000000000000F00000F00F02
:1040D000000000000000FFFFFFFFFF0F00000000D6
:1040E000F0FFFF0F000000000000000000FFFFFFD6
:1040F000FF0000000000000000000F0000000000B2
:104100000000FF0000000000000000F00F00F00FB2
:10411000000000000000FFFFFFFFFF0000000000A4
:10412000F0FFFF0F000000000000000000FFFFFF95
:104130000F0000000000000000000F000000000061
:1041400000000F000000000000000000FF0000FF62
:10415000000000000000FFFFFFFFFF000000000064
:10416000F0FFFF0F000000000000000000F0FFFF64
:104170000F0000000000000000000F000000000021
:1041800000000F0000000000000000000F00000F02
:10419000000000000000FFFFFFFF0F000000000014
:1041A000F0FFFF0F000000000000000000F0FFFF24
:1041B0000F0000000000000000000F0000000000E1
:1041C00000000F0000000000000000000F00000FC2
:1041D000000000000000FFFFFFFF0F0000000000D4
:1041E000F0FFFF0000000000000000000000FFFFE3
:1041F0000F000000000000000000FF0000000000B1
:1042000000000F000000000000000000FF0FF00F92
:10421000000000000000FFFFFFFF0F000000000093
:10422000F0FF0F0000000000000000000000F0FFA1
:1042300000000000000000000000FF00000000007F
:1042400000000F000000000000000000F0FFFF0071
:10425000000000000000FFFFFFFF00000000000062
:10426000F000000000000000000000000000000F4F
:1042700000000000000000000000FF00000000003F
:1042800000000F000000000000000000F0FF0F0021
:10429000000000000000F0FFFFFF00000000000031
:1042A000F000000000000000000000000000F00F1F
:1042B00000000000000000000000FF0000000000FF
:1042C00000000F000000000000000000F0FF0000F0
:1042D00000000000000000FF0F00000000000000D0
:1042E000FF00000000000000000000000000F00FD0
:1042F00000000000000000000000FF0000000000BF
:1043000000000F000000000000000000F00F00009F
:1043100000000000000000F00F000000000000009E
:10432000FF00000000000000000000000000F00F8F
:10433000000000000000000000000F00000000006E
:104340000000FF000000000000000000FF0000006F
:1043500000000000000000F0F00F0000000000006E
:10436000FF00000000000000000000000000F00F4F
:10437000000000000000000000000F00000000002E
:104380000000FF000000000000000000FF0000002F
:1043900000000000000000FF000F0000000000000F
:1043A000F00F000000000000000000000000F0001E
:1043B000000000000000000000000F0000000000EE
:1043C0000000FF0000000000000000000F000000DF
:1043D000000000000000000F00FF000000000000CF
:1043E000000F000000000000000000000000F000CE
:1043F000000000FF0000000000000F0000000000AF
:104400000000F00000FFFFFF000000000F000000B0
:10441000000000000000000F00F00F00000000008E
:10442000000F00000000000000000000000000007D
:10443000000000000000000000000000000000007C
:10444000000000000000000000000000000000006C
:10445000000000000000000000000000000000005C
:10446000000000000000000000000000000000004C
:10447000000000000000000000000000000000003C
:10448000000000000000FF0000000000000000002D
:10449000000000000000000000000000000000001C
:1044A000000000000000000000000000000000000C
:1044B0000000000000000000F00F000000000000FD
:1044C00000000000F00FFF00000000000000FF00EF
:1044D00000000000000000000000000000000000DC
:1044E00000000000000000000000000000000000CC
:1044F0000000000000000000F00F000000000000BD
:1045000000000000F00F0000000000000000FF00AD
:10451000000000000000000000000000000000009B
:1045200000000000000000000000F00FFF0FFF0F70
:10453000FF0FFF0FFF0FFF00F0FFFF00FF00FFF076
:104540000FFF00FFFF0FFF00FF0FF0FFFF00FF0056
:10455000FF0FF00FFF0000F0FF00F0FF0FF0FF0F64
:10456000FF0F0000000000000000F00FFF0FFF0F22
:10457000FF0FFF0FFF0FFF00F00FF00FFF00FFF026
:104580000FFFF00FF00FFFF00FFFF00FF00FFFF035
:104590000FFFF00FFF0000FFF00FFF00FFF00FFF15
:1045A000F00F0000000000000000F00FFF0FFF0FF1
:1045B000FF0FFF0FFF0FFF00F00FF00FFF00FFF0E6
:1045C0000FFFF00FF00FFFF00F00F00FF00FFF00E4
:1045D00000FFF00FFF0000FF0000FF00FFF00FFFE3
:1045E000F00F0000000000000000000FFF0F0F0F91
:1045F000FF0F0F0FFF0F0F00F00FF00FFF00FF0076
:104600000F0FF00FF00FFFF0FFFFF00FF00FFF00A4
:10461000FFFF000F0F0000FF0000FF00FFF00FFF83
:10462000F00F000000000000000000FF0FFF0FFF70
:104630000FFF0FFF0FFF0F00F00FF00FFF00FF0045
:104640000F0FF00FF00FFF0000FFF00FF00FFFF063
:104650000FFF000F0F0000FF0000FF00FFF00FFF33
:10466000F00F000000000000000000FF0FFF0FFF30
:104670000FFF0FFF0FFF0F00F00FF00FFF00FF0005
:10468000FF0FF00FF00FFFF00FFFF00FF00FFFF034
:104690000FFF00FF0F0000FFF00FFF00FFF00FFF04
:1046A000F00F000000000000000000FF0FFF0FFFF0
:1046B0000FFF0FFF0FFF0FFFF0FFFF00F0FFFF00E6
:1046C000FF0F00FFFF0FFF00FF0FF0FFFF00FF00D5
:1046D000FFFF00FF0FF00FF0FF00F0FF0FF00FFFE4
:1046E000F00F0000000000000000000000000000CB
:1046F00000000000000000000000000000000000BA
:10470000F0000000000000000000F00F00000000BA
:10471000000000F0000000000000000000000000A9
:104720000000000000000000000000000000000089
:104730000000000000000000000000000000000079
:10474000FF000000000000000000F00F000000006B
:10475000000000FF0000000000000000000000005A
:104760000000000000000000000000000000000049
:10477000000000000000000000000000000000F049
:104780000F000000000000000000F00F000000001B
:104790000000F00F0000000000000000000000001A
:1047A0000000000000000000A0860100400D030092
:1047B000801A060000350C0040420F0080841E0065
:1047C00000093D0000127A000024F40000366E015A
:1047D0000048E801006CDC0200000000000000005E
:0847E0000102030406070809A9
:0847E800F901000800000000C7
:0847F000D101000800000000E7
:1047F800010000001000000000093D00000000005A
:040000050800353189
:00000001FF
