:020000040800F2
:1000000000C00020AD3400086D0800086F0800082B
:100010007108000873080008750800080000000057
:100020000000000000000000000000007708000849
:1000300079080008000000007B0800087D0800081F
:10004000FD340008FD340008FD340008FD340008CC
:10005000FD340008FD340008FD340008FD340008BC
:10006000FD340008FD340008FD340008FD340008AC
:10007000FD340008FD340008FD340008FD3400089C
:10008000FD340008FD34000885080008FD34000830
:10009000FD340008FD340008FD340008FD3400087C
:1000A000FD340008FD340008FD340008FD3400086C
:1000B000FD3400080000000000000000FD340008CE
:1000C000FD340008FD340008FD34000895080008E0
:1000D000FD340008FD340008FD340008FD3400083C
:1000E000FD340008FD34000800000000000000009E
:1000F0000000000000000000000000000000000000
:1001000000000000FD34000800000000FD3400087D
:100110000000000000000000FD340008FD3400086D
:10012000FD340008FD340008FD340008FD340008EB
:10013000FD34000800000000000000000000000086
:10014000FD340008FD340008FD3400080000000004
:10015000FD340008FD340008FD340008FD340008BB
:10016000A5080008B5080008FD34000800000000DC
:10017000FD340008FD34000800000000000000000D
:10018000FD340008FD340008FD34000800000000C4
:100190000348044B834202D0034B03B11847704716
:1001A0001800002018000020000000000548064B41
:1001B0001B1AD90F01EBA301491002D0034B03B165
:1001C00018477047180000201800002000000000A9
:1001D00010B5064C237843B9FFF7DAFF044B13B18F
:1001E0000448AFF300800123237010BD18000020E5
:1001F000000000000035000808B5044B1BB104499D
:100200000448AFF30080BDE80840CFE700000000DD
:100210001C0000200035000870B50F4B0F4DAB429D
:10022000A3EB050607D0B610002455F8043B0134B3
:100230009847A642F9D803F063F9094D094B5E1BB4
:10024000AB424FEAA60606D0002455F8043B013421
:100250009847A642F9D870BD5835000858350008AF
:10026000583500085C350008830730B547D0541E68
:10027000002A3ED0CAB2034601E0013C39D303F85C
:10028000012B9D07F9D1032C2CD9CDB205EB052507
:100290000F2C05EB054535D9A4F1100222F00F0C07
:1002A00003F1100EE6444FEA121C1A46C2E900554B
:1002B000C2E9025510327245F8D10CF1010214F076
:1002C0000C0F03EB021204F00F0C13D0ACF104037B
:1002D00023F003030433134442F8045B9342FBD13D
:1002E0000CF003042CB1C9B21C4403F8011BA34257
:1002F000FBD130BD64461346002CF4D1F9E7034628
:100300001446C0E71A46A446E0E700BF72B6FEE70F
:1003100000B597B04422002105A8FFF7A5FF0023F0
:10032000009301930293039304934FF4007002F03F
:10033000E3FE28BB1023059301220B9200230C93AC
:1003400060230D9302230F93109211922822129290
:10035000072213921493159305A801F019F888B990
:100360000F23009303230193002302930393049329
:100370000421684601F042FB30B917B05DF804FB78
:10038000FFF7C4FFFFF7C2FFFFF7C0FF00B583B060
:1003900000F026FFFFF7BCFF00F054F800F0BAF8B9
:1003A00000F066F900F000FA012280211F4801F0F8
:1003B00013FF002205214FF0904001F00DFF642053
:1003C00000F030FF1A4D642400940223194A602182
:1003D000284602F04DF9204600F024FF0094022345
:1003E000154A6021284602F043F9204600F01AFF22
:1003F000012205214FF0904001F0EEFE204600F072
:1004000011FF0B4D6424009401230C4A60212846FF
:1004100002F02EF900940123094A6021284602F0D7
:10042000F9F9204600F0FEFEEBE700BF00040048AB
:100430009C00002008000020040000200000002094
:1004400034000020F0B589B000240394049405948E
:10045000069407942D4BDA6C42F00102DA64DA6CF0
:1004600002F001020192019ADA6C42F00202DA64AF
:10047000DB6C03F002030293029B224640F20A71F6
:100480004FF0904001F0A8FE214D01228021284626
:1004900001F0A2FE012215214FF0904001F09CFED8
:1004A00040F20F73039301270497059403260696E1
:1004B00003A94FF0904001F0ABFD102303931123EB
:1004C00004930594069403A94FF0904001F0A0FD19
:1004D00049F6200303930494059403A94FF0904038
:1004E00001F096FD422303930494059403A9284642
:1004F00001F08EFD8023039304970594069603A9CB
:10050000284601F085FD09B0F0BD00BF0010024093
:100510000004004800B587B00023009301930293C4
:100520000393049305931948194A0260436083605A
:10053000C360036104224261037643760122C261F3
:1005400080F820308362C36280F83030436380F8E3
:10055000383000F0FDF990B90E4B0093062301935B
:10056000002302937F22039204220492059369469A
:10057000064800F0EFFB28B907B05DF804FBFFF771
:10058000C5FEE9E7FFF7C2FEF6E700BF380000202E
:10059000000004500008302E30B5A1B00446002100
:1005A0001B911C911D911E911F915C2204A8FFF7C5
:1005B0005BFE22682B4B9A4201D021B030BD4FF434
:1005C000804304934FF080531893012305930693BF
:1005D0001023079307230893022309930A934FF0EC
:1005E00080730B9304A801F085FB002837D11E4BC4
:1005F000DA6C42F40052DA64DA6C02F400520192CE
:10060000019ADA6C42F00102DA64DA6C02F001025B
:100610000292029ADA6C42F00202DA64DB6C03F0B6
:1006200002030393039B40231B930B251C9500247B
:100630001D941BA94FF0904001F0EAFC01231B938D
:100640001C951D941BA9094801F0E2FC2246214695
:10065000122002F0EDFD122002F0FAFDADE7FFF7E7
:1006600055FEC4E70000045000100240000400489A
:1006700008B51248124B0360124B4360002383609D
:100680000122C260036143618361C361036201F0BF
:100690008AFF50B90021094802F0A1FC40B90021AD
:1006A000064802F0CAFC30B908BDFFF72FFEF1E79B
:1006B000FFF72CFEF3E7FFF729FEF5E79C0000208B
:1006C000005C0040E49CD1102DE9F041A0B004464C
:1006D00000211B911C911D911E911F915C2204A869
:1006E000FFF7C2FD22682D4B9A4202D020B0BDE830
:1006F000F0814FF48073049304A801F0FBFA002802
:1007000048D1274CE36C43F00103E364E36C03F04E
:1007100001030193019BE36C43F00203E364E36C88
:1007200003F002030293029B80231B934FF01208F5
:10073000CDF8708000251D9503271E9704261F966F
:100740001BA94FF0904001F063FC10231B93CDF8E0
:1007500070801D951E971F961BA9124801F058FC2A
:10076000A36D43F40003A365A36D03F40003039397
:10077000039B2A462946482002F05AFD482002F0F1
:1007800067FD2A462946492002F052FD492002F021
:100790005FFDABE7FFF7BAFDB3E700BF005C0040C9
:1007A000001002400004004808B51048104B0360D8
:1007B0004FF482734360002383604FF4E062C260B1
:1007C000036143614FF4007282612022C2610362BF
:1007D000436283620722C26203630823436302F019
:1007E0004FFD00B908BDFFF791FDFBE7F0000020C9
:1007F0000030014000B589B00023039304930593B2
:10080000069307930268174B9A4202D009B05DF82D
:1008100004FB03F560431A6E42F480521A661A6EA6
:1008200002F480520192019ADA6C42F00202DA6418
:10083000DB6C03F002030293029B28230393022341
:100840000493032306930523079303A9064801F0A5
:10085000DFFB00221146232002F0EAFC232002F0F5
:10086000F7FCD3E70030014000040048FEE7FEE754
:10087000FEE7FEE7FEE770477047704708B500F0F7
:10088000BFFC08BD08B5024800F049F908BD00BF2B
:100890003800002008B5024802F062FD08BD00BF24
:1008A000F000002008B5024802F072F808BD00BF51
:1008B0009C00002008B5024802F04FFB08BD00BFB5
:1008C0009C00002082B00A4B1A6E42F001021A66A8
:1008D0001A6E02F001020092009A9A6D42F0805264
:1008E0009A659B6D03F080530193019B02B07047A2
:1008F0000010024010B430300B0A9B0003F00C03D0
:10090000C45801F01F014FF01F0C0CFA01FC24EA3F
:100910000C0CC2F384628A404CEA0202C2505DF8B9
:10092000044B704710B414304B0E9B0003F00403CB
:10093000C458C1F304514FF0070C0CFA01FC24EA2F
:100940000C0C8A404CEA0202C2505DF8044B70471E
:1009500030B583B000230193002800F0D080044616
:10096000436D13B323689A6812F0005F05D09A684C
:1009700022F0204222F03F029A602268936813F02E
:10098000805F1FD1936823F0104323F03F0343F0AF
:10099000805393605B4B1B689B095B4AA2FB03235C
:1009A0009B0901335B00019309E0FFF7F5FD00238C
:1009B000A36584F85030D5E7019B013B0193019B6F
:1009C000002BF9D12268936813F0805F70D1636DBA
:1009D00043F010036365A36D43F00103A365012099
:1009E000936813F0040300D00123616D11F0100F20
:1009F0007ED1002B7CD1636D23F4817343F002031D
:100A00006365936813F0010F0BD1404B9B6813F0A3
:100A1000010F06D163683E498A6822F47C121343B1
:100A20008B60627E636B43EA4233E2681343A268E1
:100A3000134394F8202043EA0243012A3AD0A26AE1
:100A400022B102F47072E16A0A4313432168CD684F
:100A5000304A2A401A43CA602268936813F0080398
:100A600000D00123ABB9237E94F83010490041EA4D
:100A70008331D36823F4804323F002030B43D36014
:100A800094F83830012B1AD02268136923F001033F
:100A900013612369012B22D02268136B23F00F030B
:100AA0001363636D23F0030343F00103636524E0E4
:100AB000002095E7626A013A43EA4243BFE72168B2
:100AC0000B696FF38A03E26B256C2A43656C2A433A
:100AD000A56C2A43134343F001030B61D9E7216856
:100AE0000B6B23F00F03E269013A13430B63D8E762
:100AF000636D43F010036365012003B030BD012036
:100B0000FBE700BF10000020632D3E0500000450ED
:100B10000003045007C0F0FF70477047704770B57E
:100B2000044603681E685D6816F0020F10D015F0C9
:100B3000020F0DD0436D13F0100F03D1436D43F43A
:100B400000634365204600F021FB236802221A60FF
:100B500016F0040F02D015F0040F05D116F0080F9F
:100B60003AD015F0080F37D0636D13F0100F03D192
:100B7000636D43F4007363652368DA6812F4406FB1
:100B800024D1DA6812F4005F20D11A6812F0080F3D
:100B90001CD09A6812F0040F10D15A6822F00C028F
:100BA0005A60636D23F480736365636D13F4805F33
:100BB0000CD1636D43F00103636507E0636D43F09F
:100BC00010036365A36D43F00103A3652046FFF79F
:100BD000A3FF23680C221A6016F0200F02D015F034
:100BE000200F05D116F0400F4CD015F0400F49D022
:100BF000636D13F0100F03D1636D43F4005363650D
:100C00002368DA6C12F0C00F2AD10121DA6812F4DD
:100C1000406F27D10120DA6871B312F0007F03D052
:100C200050B312F4005F27D1196811F0400F23D0A0
:100C300012F4001F20D19A6812F0080F14D15A68DC
:100C400022F060025A60636D23F480536365636D24
:100C500013F4807F10D1636D43F0010363650BE0F3
:100C60000021D3E70020D6E7636D43F010036365EE
:100C7000A36D43F00103A365204600F083FA2368C7
:100C800060221A6016F0800F02D015F0800F2DD16F
:100C900016F4807F02D015F4807F32D116F4007FE5
:100CA00002D015F4007F38D116F0100F17D015F0D0
:100CB000100F14D0636B23B12368DB6813F0010FAE
:100CC0000AD0636D43F480636365A36D43F0020350
:100CD000A3652046FFF722FF236810221A6016F44E
:100CE000806F02D015F4806F23D170BD636D43F423
:100CF000803363652046FFF710FF236880221A6067
:100D0000C6E7636D43F400336365204600F03CFAA8
:100D100023684FF480721A60C0E7636D43F4802348
:100D20006365204600F031FA23684FF400721A60C0
:100D3000BAE7636D43F480436365A36D43F0080332
:100D4000A36523684FF480621A60204600F01BFA06
:100D5000CBE70000F0B583B00023019390F850304A
:100D6000012B00F0048204460D46012380F8503028
:100D70000068836813F0040F09D0636D43F020030B
:100D800063650120002384F8503003B0F0BD49684A
:100D9000052907D8023903294ED8DFE801F0024FB0
:100DA000484A0C212A68FFF7A5FD2068836813F0E4
:100DB000040300D00123826812F0080200D001224F
:100DC0000BB9002A3CD02268936813F0010F17D1A9
:100DD0002B68E868D2F8B010C3F3120621EA0601C6
:100DE00000F0180CA84820FA0CF00340C3F31203DB
:100DF0000B43C2F8B030EA68A44B9A4200F0A580D9
:100E00002B68A34A134200F0AE81A24A926802F016
:100E1000E070A1498B4200F05881A0498B4200F05C
:100E20007B819F498B4200F08B810020AAE718212B
:100E3000B8E74FF48071B5E70621B3E71221B1E7B7
:100E4000AA682968FFF76EFD69692268D368C3F351
:100E5000C1035B009940286904280ED02E686032D7
:100E600052F820708F4B3B4006F0F84631430B435D
:100E700043F0004342F82030A5E7136E116EC1F332
:100E800084612B68C3F3120080BBC3F3846399426F
:100E900034D021684B6E4A6EC2F384622B68C3F370
:100EA000120080BBC3F384639A4234D021688B6EF6
:100EB0008A6EC2F384622B68C3F3120080BBC3F353
:100EC00084639A4234D02168CB6ECA6EC2F38462C6
:100ED0002B68C3F3120080BBC3F384639A427FF490
:100EE00072AFCB6E23F00043CB666CE793FAA3F3AB
:100EF00013B1B3FA83F3CAE72023C8E7136E23F0D4
:100F000000431366C5E793FAA3F313B1B3FA83F36F
:100F1000CAE72023C8E74B6E23F000434B66C5E7C2
:100F200093FAA3F313B1B3FA83F3CAE72023C8E714
:100F30008B6E23F000438B66C5E793FAA3F313B1DE
:100F4000B3FA83F3CAE72023C8E720682B68C3F30A
:100F500012063EBB9A0E013202F01F02092A8CBF14
:100F600000220122002A55D05EBB990E013189066C
:100F700001F0F8418EBB4FEA936C0CF1010C0CF0C0
:100F80001F0C012202FA0CF21143AEBB9B0E01337F
:100F900003F01F0303EB43031B051943AA68FFF784
:100FA000C1FC2DE793FAA3F24AB1B2FA82F2013200
:100FB00002F01F02092A8CBF00220122D2E7202260
:100FC000F5E793FAA3F131B1B1FA81F10131890664
:100FD00001F0F841CEE72021F8E793FAA3F24AB1F5
:100FE000B2FA82F2013202F01F024FF0010C0CFA49
:100FF00002F2C9E72022F5E793FAA3F343B1B3FA6B
:1010000083F3013303F01F0303EB43031B05C4E722
:101010002023F6E7E6B9990E0131890601F0F8417F
:1010200016BB4FEA936C0CF1010C0CF01F0C012263
:1010300002FA0CF21143BEBB9B0E013303F01F03F7
:1010400003EB43031E3B1B0543F000731943A5E765
:1010500093FAA3F131B1B1FA81F10131890601F0BE
:10106000F841DDE72021F8E793FAA3F24AB1B2FA9A
:1010700082F2013202F01F024FF0010C0CFA02F270
:10108000D8E72022F5E700BFFFFF070000007F4000
:101090000000088000030450000052C7000084CB09
:1010A0000100008000F0FF0393FAA3F35BB1B3FAF1
:1010B00083F3013303F01F0303EB43031E3B1B05C4
:1010C00043F00073C2E72023F3E712F4000F7FF42C
:1010D000A4AE2268274B9A4201D0002052E640F489
:1010E000000325498A6822F0E07213438B60234B8A
:1010F0001B689B09224AA2FB03239B09013303EBD4
:1011000043039B00019302E0019B013B0193019B80
:10111000002BF9D1002035E612F0807F7FF481AEFC
:101120002268144B9A4201D000202BE640F08073D5
:1011300011498A6822F0E07213438B60002021E697
:1011400012F4800F11D122680A4B9A4201D000207C
:1011500018E640F4800308498A6822F0E0721343DD
:101160008B6000200EE600200CE600200AE602203C
:101170000BE600BF000004500003045010000020E4
:10118000632D3E05704770477047704770470000F9
:10119000104B1B780BB90120704710B504464FF473
:1011A0007A70B0FBF3F30C4A1068B0FBF3F002F076
:1011B00053F868B90F2C01D901200AE0002221461A
:1011C0004FF0FF3002F034F8044B1C60002000E0C8
:1011D000012010BD0A000020100000200C0000209B
:1011E00010B5032002F012F80F20FFF7D1FF10B165
:1011F0000124204610BD0446FFF764FBF9E7000018
:10120000034B1B78034A11680B441360704700BFFF
:101210000A00002054010020014B1868704700BFED
:101220005401002038B50446FFF7F6FF0546B4F137
:10123000FF3F02D0044B1B781C44FFF7EDFF401B1F
:10124000A042FAD338BD00BF0A00002030B583B0F9
:101250000446204B9B6D13F0805F0BD001F044FFE0
:10126000B0F5007F17D0802C1FD82DD0702C2DD03A
:1012700000211BE0174DAB6D43F08053AB65AB6DA8
:1012800003F080530193019B01F02EFFAB6D23F01F
:101290008053AB65E4E7802C03D9A02C03D902214D
:1012A00004E0002102E0012100E003210A4A136862
:1012B00023F007030B431360136803F007038B420B
:1012C00006D1002003B030BD0221EFE70121EDE798
:1012D0000120F7E70010024000200240284A9368EE
:1012E000D26802F0030213F00C030AD00C2B06D0D4
:1012F000042B1FD0082B20D00020024610E0012A2A
:10130000F6D11F4A126812F0080F0CD11C4AD2F80D
:101310009420C2F303221B4951F8222043B100203C
:101320000C2B0DD07047164A1268C2F30312F2E775
:101330001046F5E714480022F2E714480022EFE7D0
:101340000F4BDB6803F00303022B03D0032B02D106
:101350000E4A00E00C4A0A49CB68C3F3021301337A
:10136000C868C0F3062002FB00F0B0FBF3F0CB68C6
:10137000C3F3416301335B00B0FBF3F0D2E700BF7E
:1013800000100240183500080024F40000127A0012
:10139000002800F01C83F0B583B00446964B9D688E
:1013A00005F00C05DE6806F00306036813F0100F65
:1013B0005AD0E5B10C2D18D0A369002B00F0BB80EA
:1013C0008D4A136843F001031360FFF725FF0746BA
:1013D000894B1B6813F0020F40F09A80FFF71CFF47
:1013E000C01B0228F4D90320FCE2012EE4D1824B79
:1013F0001B6813F0020F03D0A369002B00F0E982F1
:10140000206A7D4B1B6813F0080F5BD07A4B1B687A
:1014100003F0F00398425CD8774B1A6842F0080258
:101420001A601A6822F0F002216A0A431A605A68A8
:1014300022F47F42E16942EA01225A60002D60D025
:10144000FFF74CFF6C4B9B68C3F303136B4AD35CF1
:1014500003F01F03D8406A4B18606A4B1868FFF707
:1014600097FE002840F0BE82236813F0010F00F0C1
:101470008180082D75D00C2D71D06368B3F5803F45
:1014800000F09780B3F5A02F00F099805A4B1A68AE
:1014900022F480321A601A6822F480221A6063688B
:1014A000002B00F09980FFF7B7FE0746524B1B68F0
:1014B00013F4003F5ED1FFF7AFFEC01B6428F5D9DF
:1014C00003208FE24C4BD3F894301B0903F0F00358
:1014D000A0E7FFF7BBFE002840F07D82464B1A686C
:1014E00042F008021A601A6822F0F002216A0A43E8
:1014F0001A605A6822F47F42E16942EA01225A6086
:101500009EE7206AFFF7A2FE002899D0012069E239
:10151000394B1A6842F008021A601A6822F0F00289
:10152000216A0A431A605A6822F47F42E16942EA5A
:1015300001225A6098E7304A136823F001031360D0
:10154000FFF76AFE07462C4B1B6813F0020F8BD087
:10155000FFF762FEC01B0228F5D9032042E2032EEA
:101560008BD1254B1B6813F4003F03D06368002B1D
:1015700000F03382236813F0020F58D0042D45D0B9
:101580000C2D41D0E368002B77D01B4A136843F43D
:1015900080731360FFF740FE0646174B1B6813F479
:1015A000806F61D1FFF738FE801B0228F5D9032038
:1015B00018E2114A136843F4803313606FE703F1B4
:1015C0008043A3F53C331A6842F480221A601A68FB
:1015D00042F480321A6062E7FFF71EFE0746064BB0
:1015E0001B6813F4003FC5D0FFF716FEC01B64282C
:1015F000F5D90320F6E100BF00100240483500088D
:10160000100000200C000020022EBBD1A44B1B6850
:1016100013F4806F03D0E368002B00F0E081A04A50
:10162000536823F0F853216943EA01635360236848
:1016300013F0080F4CD063699BB3994AD2F89430E9
:1016400043F00103C2F89430FFF7E6FD0646944BE1
:10165000D3F8943013F0020F3AD1FFF7DDFD801B71
:101660000228F4D90320BDE18D4A536823F0F853D2
:10167000216943EA01635360D9E7894A136823F477
:1016800080731360FFF7C8FD0646854B1B6813F493
:10169000806FCCD0FFF7C0FD801B0228F5D9032056
:1016A000A0E17F4AD2F8943023F00103C2F89430CD
:1016B000FFF7B2FD06467A4BD3F8943013F0020FD1
:1016C00006D0FFF7A9FD801B0228F4D9032089E189
:1016D000236813F0040F7AD0714B9B6D13F0805F79
:1016E00036D16F4B9A6D42F080529A659B6D03F034
:1016F00080530193019B01266A4B1B6813F4807F82
:1017000028D0A368012B39D0052B3FD0644BD3F8E8
:10171000902022F00102C3F89020D3F8902022F00C
:101720000402C3F89020A368002B3DD0FFF774FD9E
:1017300007465B4BD3F8903013F0020F46D1FFF70A
:101740006BFDC01B41F288339842F2D9032049E176
:101750000026D1E7534A136843F480731360FFF700
:101760005BFD07464F4B1B6813F4807FC9D1FFF721
:1017700053FDC01B0228F5D9032033E1484AD2F8B3
:10178000903043F00103C2F89030CCE7444BD3F8DB
:10179000902042F00402C3F89020D3F8902042F049
:1017A0000102C3F89020BEE7FFF736FD07463C4B29
:1017B000D3F8903013F0020F08D0FFF72DFDC01BB7
:1017C00041F288339842F2D903200BE1E6B923684D
:1017D00013F0200F35D0636AE3B1314AD2F8983064
:1017E00043F00103C2F89830FFF716FD06462C4B74
:1017F000D3F8983013F0020F23D1FFF70DFD801BB3
:101800000228F4D90320EDE0254A936D23F080539C
:101810009365DCE7224AD2F8983023F00103C2F83E
:101820009830FFF7F9FC06461D4BD3F8983013F0BB
:10183000020F06D0FFF7F0FC801B0228F4D903202A
:10184000D0E0A36A002B00F0CC80022B17D00C2D27
:1018500000F0CC80124A136823F080731360FFF706
:10186000DBFC04460E4B1B6813F0007F00F0A880E1
:10187000FFF7D2FC001B0228F4D90320B2E0084B8A
:10188000DB6803F00301E26A91420DD00C2D00F0F9
:10189000AB80034B1B6813F0806F2FD00120A1E0B9
:1018A000001002400070004003F07002216B01390B
:1018B000B2EB011FEAD103F4FE42616BB2EB012FE0
:1018C000E4D103F07842A16BB2EBC16FDED103F437
:1018D000C001E26B5208013AB1EB425FD6D103F08E
:1018E000C063226C5208013AB3EB426FCED1404B39
:1018F0001B6813F0007F49D0002073E03C4A136856
:1019000023F080731360FFF787FC0546384B1B6894
:1019100013F0007F06D0FFF77FFC401B0228F5D9AB
:1019200003205FE0324AD36832491940E36A206BF2
:10193000013843EA0013606B43EA0023E06B400880
:10194000013843EA4053206C4008013843EA4063C1
:10195000A06B43EAC0631943D160136843F08073FE
:101960001360D36843F08073D360FFF755FC0446DF
:101970001F4B1B6813F0007F06D1FFF74DFC001BC7
:101980000228F5D903202DE000202BE0184B1A681F
:1019900042F080721A60DA6842F08072DA60FFF713
:1019A0003BFC0446124B1B6813F0007F06D1FFF787
:1019B00033FC031B022BF5D9032013E0002011E0B8
:1019C0000B4AD1680C4B0B40D36000200AE0012089
:1019D0007047012006E0012004E0012002E0012020
:1019E00000E0002003B0F0BD0120FBE70120F9E793
:1019F000001002408C809D01FCFFEEFE002800F0EC
:101A0000AF8070B50D460446594B1B6803F00703C1
:101A10008B420BD2564A136823F007030B43136023
:101A2000136803F007038B4240F09C80236813F097
:101A3000020F0CD0A2684F4B9B6803F0F0039A4250
:101A400005D94C498B6823F0F0031A438A60236858
:101A500013F0010F39D06368032B09D0022B26D075
:101A600063BB444A126812F0020F06D1012076E0EF
:101A7000404A126812F0007F76D03E498A6822F010
:101A8000030213438B60FFF7C7FB0646394B9B6885
:101A900003F00C036268B3EB820F16D0FFF7BCFBB8
:101AA000801B41F288339842F0D9032057E0314A35
:101AB000126812F4003FE0D1012050E02D4A126874
:101AC00012F4806FD9D1012049E0236813F0020F8E
:101AD0000CD0A268274B9B6803F0F0039A4205D212
:101AE00024498B6823F0F0031A438A60204B1B685B
:101AF00003F00703AB420AD91D4A136823F007031A
:101B00002B431360136803F00703AB422ED1236805
:101B100013F0040F06D0174A936823F4E063E168DA
:101B20000B439360236813F0080F07D0114A9368A2
:101B300023F46053216943EAC1039360FFF7CEFBAE
:101B40000C4B9B68C3F303130B4AD35C03F01F03D6
:101B5000D8400A4B18600A4B1868FFF719FB70BD94
:101B6000012070470120FAE70120F8E70120F6E79D
:101B700000200240001002404835000810000020FC
:101B80000C000020F8B504460D46594BDB6813F0F5
:101B9000030F18D0564BDB6803F00303026893422F
:101BA00002D001263046F8BD002A00F09C80504B40
:101BB000DB68C3F3021301334268934201D001266C
:101BC000F0E7002619E00368022B55D0032B5AD00A
:101BD000012B40F08A80464A126812F0020F5ED054
:101BE0004348C26822F073026168013943EA011375
:101BF0001343C3600026002ED4D13D4A136823F05E
:101C000080631360FFF708FB0746394B1B6813F02E
:101C1000006F05D0FFF700FBC31B022BF5D903268D
:101C2000002EBFD1002D3CD131490B6923F0784300
:101C300023F4FE43A068E268D20642EA002213437E
:101C40000B612B4A136843F080631360FFF7E4FADB
:101C50000546274B1B6813F0006F05D1FFF7DCFA30
:101C6000401B0228F5D90326002E9BD1204A136978
:101C7000A1690B43136195E71D4A126812F4806F46
:101C8000AED101268EE71A4A126812F4003FA7D19E
:101C9000174A126812F4802FA2D1012682E701268A
:101CA000A9E7012D0FD01248026922F0C06222F488
:101CB000FE42A16863695B08013B5B0643EA0123BE
:101CC0001A430261BDE70A48026922F4C00222F405
:101CD000FE42A16823695B08013B5B0543EA0123DF
:101CE0001A430261ADE701265CE701265AE700BF0F
:101CF000001002402DE9F04182B00446036813F45D
:101D0000006F26D0436CB3F5000F06D0B3F5400F3B
:101D10001DD09BB1012637461DE0B34AD36843F47A
:101D20008033D3600027B04AD2F8883023F44003D0
:101D3000616C0B43C2F8883000260CE000210430AF
:101D4000FFF720FF07460028EDD0064603E00027F6
:101D5000E9E700263746236813F4003F6BD0A24B17
:101D60009B6D13F0805F4CD19F4B9A6D42F0805277
:101D70009A659B6D03F080530193019B4FF001081E
:101D80009A4A136843F480731360FFF745FA0546D7
:101D9000964B1B6813F4807F05D1FFF73DFA401B7B
:101DA0000228F5D90327002F40D18F4BD3F890306C
:101DB00013F4407315D0A26D9A4212D08A4AD2F819
:101DC000903023F44073D2F8901041F48031C2F87F
:101DD0009010D2F8901021F48031C2F89010C2F81F
:101DE000903013F0010F0FD1002F40F0E3807E4AB6
:101DF000D2F8903023F44073A16D0B43C2F89030B9
:101E000015E04FF00008BBE7FFF706FA0546764BF2
:101E1000D3F8903013F0020FE6D1FFF7FDF9401B25
:101E200041F288339842F2D90327DDE73E46B8F104
:101E3000000F40F0C180236813F0010F08D06A4AF8
:101E4000D2F8883023F00303216A0B43C2F88830AC
:101E5000236813F0020F08D0634AD2F8883023F0C9
:101E60000C03616A0B43C2F88830236813F0040F37
:101E700008D05D4AD2F8883023F03003A16A0B43C2
:101E8000C2F88830236813F0200F08D0564AD2F8E1
:101E9000883023F44063E16A0B43C2F8883023683A
:101EA00013F4007F08D0504AD2F8883023F440233E
:101EB000E16B0B43C2F88830236813F4806F08D0BD
:101EC000494AD2F8883023F44013216C0B43C2F8FE
:101ED0008830236813F0400F08D0434AD2F8883086
:101EE00023F44053216B0B43C2F88830236813F06E
:101EF000800F08D03C4AD2F8883023F44043616B0D
:101F00000B43C2F88830236813F4807F08D0364A28
:101F1000D2F8883023F44033A16B0B43C2F88830E9
:101F2000236813F4002F0FD02F4AD2F8883023F003
:101F30004063A16C0B43C2F88830A36CB3F1006F0F
:101F400040D0B3F1806F42D0236813F4802F0FD0BC
:101F5000254AD2F8883023F04063E16C0B43C2F885
:101F60008830E36CB3F1006F39D0B3F1806F3FD0AC
:101F7000236813F4804F0CD01B4AD2F8883023F02A
:101F80004053216D0B43C2F88830236DB3F1805F5D
:101F900036D0236813F4004F08D0134AD2F88830A3
:101FA00023F08043616D0B43C2F88830304602B0A5
:101FB000BDE8F0813E463AE70B4A936D23F080532B
:101FC000936538E7D36843F48013D360BCE70121FD
:101FD000201DFFF7D7FD0028B6D00646B4E7D3682A
:101FE00043F48013D360C3E7001002400070004048
:101FF0000121201DFFF7C6FD0028B9D00646B7E72E
:102000000221201DFFF7BEFD0028C2D00646C0E712
:10201000F0B583B0002362E085685E000324B4401D
:1020200025EA0405CC68B4402C438460456825EA61
:102030000C054C68C4F300149C402C4344605FE0E2
:10204000DD08083550F8254003F0070C4FEA8C0CEA
:102050004FF00F0E0EFA0CFE24EA0E0E0C6904FA75
:102060000CF444EA0E0440F8254060E0042400E04B
:10207000002404FA0EF42C430CF1020C524D45F8E6
:102080002C40524CA568D44325EA02064F6817F449
:10209000801F01D042EA05064C4DAE60ED6804EAAF
:1020A00005064F6817F4001F01D042EA0506474DA8
:1020B000EE606D6804EA05064F6817F4003F01D032
:1020C00042EA0506414D6E602D682C404E6816F4BC
:1020D000803F01D042EA05043C4A146001330A689B
:1020E00032FA03F46ED04FF0010C0CFA03FC1CEA38
:1020F0000202F3D04C6804F00304013C012C8BD99C
:102100004C6804F00304032C0CD0C4685D004FF04D
:10211000030C0CFA05FC24EA0C0C8C68AC4044EA75
:102120000C04C4604C6804F00304022C88D00468DA
:102130004FEA430E4FF0030C0CFA0EFC24EA0C0C91
:102140004C6804F0030404FA0EF444EA0C0404603E
:102150004C6814F4403FC1D01D4C256E45F001057C
:102160002566246E04F001040194019C4FEA930C4F
:102170000CF10205144C54F8255003F0030E4FEAFD
:102180008E0E0F2404FA0EF425EA0405B0F1904FE8
:102190003FF46EAF0F4CA0420ED004F58064A04215
:1021A0000CD004F58064A0420AD004F58064A042FB
:1021B0003FF45CAF07245CE701245AE7022458E7A8
:1021C000032456E703B0F0BD0000014000040140C5
:1021D00000100240000400480AB18161704781622A
:1021E000704703689A6912F0020F01D000229A62C8
:1021F00003689A6912F0010F03D19A6942F0010253
:102200009A61704710B4019CC1F3090141EA02418F
:102210001943214321F0004102685368640D04F41E
:10222000806444F07F7444F4583444F47F7444F080
:10223000030423EA04030B4353605DF8044B704727
:1022400011F0010F09D090F8413003F02803282B3A
:1022500001D0F22302E0422300E0002311F0020F3C
:1022600009D043F0440C90F8412002F02802282ABB
:1022700010D043F0F40311F4004F0DD110290ED00B
:1022800020290FD0402910D001680A6822EA0303F0
:102290000B6070476346EEE743F0B803EEE743F0A8
:1022A0009003EDE743F02003ECE743F04003EBE756
:1022B0002DE9F041044603689E6916F010067CD0B3
:1022C0000D4690461022DA61002637462368986949
:1022D00010F0200F30D17FBBB5F1FF3FF6D0FEF7F5
:1022E0009BFFA0EB0800A84201D8002DEED1216889
:1022F0004B6803F4804394F84220D2B2886910F40A
:10230000004F02D00BB9202A0ED123689B6913F02D
:10231000200FDBD1FEF780FFA0EB08001928F4D9CD
:1023200046F020060127D1E74B6843F480434B6019
:10233000FEF772FF8046E8E70FB92022DA6146F027
:10234000040601252268936913F4807F05D046F0C6
:1023500001064FF48071D161012513F4806F06D01E
:1023600046F0080622684FF48061D161012513F41C
:10237000007F24D046F0020623684FF40072DA6131
:1023800001252046FFF72DFF2268536823F0FF73D5
:1023900023F48B3323F4FF7323F001035360636C46
:1023A00033436364202384F84130002384F84230AF
:1023B00084F840302846BDE8F0810025C2E7002DB2
:1023C000F8D0DEE770B504460D46164623689B69D3
:1023D00013F0020F22D1324629462046FFF768FF4C
:1023E000F0B9B5F1FF3FF1D0FEF716FF801BA84210
:1023F00001D8002DEAD123689B6913F0020FE5D1C3
:10240000636C43F020036364202384F8413000238D
:1024100084F8423084F84030012000E0002070BD94
:102420000120FCE72DE9F04105460F461646984687
:102430002C68A46937EA04040CBF01240024B442C8
:1024400022D1B8F1FF3FF3D0FEF7E6FE069BC01A9B
:10245000404502D8B8F1000FEAD12B689B6937EAF2
:1024600003030CBF01230023B342E1D16B6C43F0A3
:1024700020036B64202385F84130002385F8423027
:1024800085F84030012000E00020BDE8F08170B503
:1024900004460D46164604E023689B6913F0200F9E
:1024A00012D023689B6913F0200F1BD132462946B6
:1024B0002046FFF7FDFEB8B9FEF7AEFE801BA8422E
:1024C000EAD8002DEDD1E7E7636C43F020036364A5
:1024D000202384F84130002384F8423084F84030CF
:1024E000012000E0002070BD0120FCE770B504462B
:1024F0000D4616462DE09A6912F0040F02D0228D87
:10250000002A4CD19A6912F0100F1AD01022DA6109
:102510000423636423682022DA6121684B6823F076
:10252000FF7323F48B3323F4FF7323F001034B6019
:1025300084F84120002384F8423084F8403001219F
:102540002DE000236364E5E723689B6913F0040F23
:1025500018D023689B6913F0040F1FD13246294617
:102560002046FFF7A5FE0146D8B923689A6912F004
:10257000200FC0D1FEF750FE801BA842E4D8002DEA
:10258000E7D1E1E7636C43F020036364202384F820
:102590004130002384F84030012100E0002108464A
:1025A00070BD0121FBE700285FD010B5044690F80C
:1025B0004130002B48D0242384F84130226813682E
:1025C00023F0010313606368226823F070631361D2
:1025D0002268936823F400439360E368012B38D0AA
:1025E000A368226843F404439360E368022B36D067
:1025F0002268536823F4006353602268536843F0F1
:10260000007343F4004353602268D36823F400430B
:10261000D360236962691343A169226843EA0123F5
:10262000D360E369216A22680B4313602268136850
:1026300043F00103136000206064202384F84130DC
:10264000206384F8420010BD80F84030FEF73CF86B
:10265000B1E7A368226843F400439360C5E72268AA
:10266000536843F400635360C7E7012070470000DC
:102670002DE9F04782B00F460A9E90F84110C9B28A
:10268000202940F0B78004469046994690F84030A3
:10269000012B00F0B3804FF0010A80F840A0FEF754
:1026A000BBFD05460090192352464FF400412046D9
:1026B000FFF7B8FE002840F0A380212384F84130C2
:1026C000102384F8423000236364C4F82480A4F803
:1026D0002A906363638D9BB2FF2B1ED9FF23238552
:1026E0004FF08073228DEAB1226898F80010916251
:1026F000626A01326262628D92B2013A92B262857E
:10270000228D013A92B22285013241490091D2B222
:1027100039462046FFF776FD18E0638D23854FF09C
:102720000073DFE73A490091D2B239462046FFF7FD
:1027300069FD0BE0628D92B22285002300934FF079
:102740000073D2B239462046FFF75CFD638D9BB221
:10275000002B33D02A4631462046FFF733FE0028AF
:1027600050D1626A236812789A62636A01336362A5
:10277000638D9BB2013B9BB26385238D013B9BB272
:102780002385628D92B2002AE0D0002BDED1009525
:102790003346002280212046FFF744FEA0BB638D14
:1027A0009BB2FF2BC6D9FF222285002300934FF056
:1027B000807339462046FFF725FDC7E72A46314694
:1027C0002046FFF764FE08BB23682022DA612168F7
:1027D0004B6823F0FF7323F48B3323F4FF7323F050
:1027E00001034B6084F84120002384F8423084F8D0
:1027F000403000E0022002B0BDE8F0870220FAE796
:102800000120F8E70120F6E70120F4E70120F2E7D4
:10281000002000802DE9F04782B00F460A9E90F814
:102820004110C9B2202940F0A28004469046994642
:1028300090F84030012B00F09E804FF0010A80F8A4
:1028400040A0FEF7E9FC05460090192352464FF4DC
:1028500000412046FFF7E6FD002840F08E8022234D
:1028600084F84130102384F8423000236364C4F8B4
:102870002480A4F82A906363638D9BB2FF2B0AD94E
:10288000FF222285414B00934FF08073394620464A
:10289000FFF7B8FC18E0628D92B222853B4B0093A3
:1028A0004FF00073D2B239462046FFF7ABFC0BE085
:1028B000628D92B22285002300934FF00073D2B252
:1028C00039462046FFF79EFC638D9BB2002B32D029
:1028D0002A4631462046FFF709FE00284FD12368DB
:1028E0005A6A636A1A70636A01336362228D013A1D
:1028F00092B22285638D9BB2013B9BB26385638D4F
:102900009BB2002BE0D0002ADED100953346802117
:102910002046FFF787FDA0BB638D9BB2FF2BC7D975
:10292000FF222285002300934FF080733946204612
:10293000FFF768FCC8E72A4631462046FFF7A7FDA7
:1029400008BB23682022DA6121684B6823F0FF73FB
:1029500023F48B3323F4FF7323F001034B6084F8DB
:102960004120002384F8423084F8403000E0022007
:1029700002B0BDE8F0870220FAE70120F8E7012065
:10298000F6E70120F4E70120F2E700BF0024008011
:1029900008B5036899691A68436B03B1984708BD85
:1029A0007047704710B5044603681A68002180F824
:1029B000421012F4804F0ED01A6822F480421A603E
:1029C00094F84130DBB2292B0DD094F84130DBB2C2
:1029D0002A2B18D010BD12F4004FF1D01A6822F43F
:1029E00000421A60ECE7282384F841302123236356
:1029F00001212046FFF724FC002384F840302046C4
:102A0000FFF7CEFFE6E7282384F841302223236333
:102A100002212046FFF714FC002384F840302046B2
:102A2000FFF7BFFFD6E77047F8B5044690F841308E
:102A300003F02803282B06D003680822DA6100235C
:102A400080F84030F8BD03689E69C6F300469A6975
:102A5000120C02F0FE059A68C2F30902DF6807F063
:102A6000FE07C168022922D185EAD21515F0060FAA
:102A700010D1816C01318164816C0229E2D1002185
:102A800081640820D86184F8401031462046FFF761
:102A9000CAFFD7E74FF40041FFF7D2FB002384F8C9
:102AA00040303A4631462046FFF7BDFFCAE74FF4B3
:102AB0000041FFF7C5FB002384F840302A46314629
:102AC0002046FFF7B0FFBDE77047000010B5044691
:102AD000174BC36200230363202280F8412080F853
:102AE0004230436311F0040F13D003685A6A436AFB
:102AF0001A70436A01334362038D53B1013B03856E
:102B0000438D9BB2013B9BB24385436C43F004036E
:102B1000436448F203012046FFF792FB236810222A
:102B2000DA61002384F840302046FFF7CDFF10BD66
:102B30000000FFFF7047704708B590F84130DBB2E6
:102B4000602B06D00023036380F84030FFF7F2FFCC
:102B500008BD202380F841300023036380F8403013
:102B6000FFF7E9FFF4E7000010B5044690F84130A4
:102B7000002280F842204548E0626285626C0A4388
:102B80006264283BDBB2022B19D803212046FFF7F1
:102B900057FB282384F841303D4B6363236BA26BC2
:102BA0001AB1112B30D0212B2ED0E26B1AB1122B7F
:102BB0004BD0222B49D02046FFF7BEFF10BD48F274
:102BC00003012046FFF73CFB2046FFF70AFB94F881
:102BD0004130DBB2602B14D0202384F841302368CD
:102BE0009A6912F0200F0CD09A6912F0100F05D0DC
:102BF0001022DA61636C43F00403636423682022CB
:102C0000DA6100236363C9E723681A6812F4804F0E
:102C100003D01A6822F480421A60A06B00F061FAB7
:102C200001280ED0A36B1B4A9A63002384F840301E
:102C3000A06B00F02EFA0028C0D0A06B836B9847E1
:102C4000BCE72046FFF778FFB8E723681A6812F45C
:102C5000004F03D01A6822F400421A60E06B00F0C3
:102C600040FA01280ED0E36B0A4A9A63002384F8E5
:102C70004030E06B00F00DFA00289FD0E06B836BD2
:102C800098479BE72046FFF757FF97E70000FFFFB5
:102C90000D2E0008C52F000870B504460D460268C9
:102CA000166890F841302021D161213B092B0CD8C6
:102CB000DFE803F005630B0B0B0B0B6A056348F2AF
:102CC0000101FFF7BDFA212323632268536843F40F
:102CD000004353602268536823F0FF7323F48B335F
:102CE00023F4FF7323F0010353602046FFF779FAC2
:102CF00016F4804F4FD02268136823F4804313608A
:102D0000A36B1BB11B685B689BB2638515F0040F56
:102D100011D025F0040523685A6A636A1A70636A41
:102D200001336362238D33B1013B2385638D9BB2F5
:102D3000013B9BB26385638D9BB21BB1636C43F017
:102D400004036364002384F842306363636C002BE4
:102D500031D1E36A13F5803F3BD194F84130DBB2C7
:102D6000222B46D0202384F841300023236384F8AB
:102D700040302046FFF714FE3AE048F20201FFF728
:102D80005FFA22232363A0E748F20301FFF758FA12
:102D90000023236399E716F4004FB7D02268136825
:102DA00023F400431360E36B002BAFD01B685B6818
:102DB0009BB26385AAE7616C2046FFF7D5FE94F8C5
:102DC0004130DBB2282B13D129462046FFF77EFE87
:102DD0000EE02046FFF7E6FD0B4BE362202384F86C
:102DE00041300023236384F840302046FFF76CFE17
:102DF00070BD202384F841300023236384F84030E1
:102E00002046FFF7CEFDF3E70000FFFFF8B5C76AE5
:102E100090F84030012B00F09E8004460D46164687
:102E2000012380F8403011F0200F02D012F0200F63
:102E300019D115F0100F3ED016F0100F3BD0638D56
:102E40009BB243BB94F84130DBB2282B0ED094F8F0
:102E50004130DBB2292B11D023681022DA61002027
:102E600084F84000F8BDFFF717FFE2E7B7F1007FF5
:102E7000EDD129462046FFF729FEF0E717F5803F00
:102E8000EAD023681022DA612046FFF7AAF920462B
:102E9000FFF788FDE3E723681022DA61636C43F0F3
:102EA0000403636417B1B7F1807FD8D1616C204609
:102EB000FFF75AFED3E715F0040F1FD016F0040FEA
:102EC0001CD0638D9BB273B123685A6A636A1A700F
:102ED000636A01336362238D013B2385638D9BB25B
:102EE000013B9BB26385638D9BB2002BB7D117F575
:102EF000803FB4D02046FFF755FDB0E715F0080F2E
:102F000002D016F0080F18D115F0020FA7D016F056
:102F1000020FA4D0638D9BB2A3B1626A23681278BA
:102F20009A62636A01336362638D9BB2013B9BB219
:102F30006385238D013B238591E729462046FFF7D2
:102F400073FD8CE7B7F1807F01D0002F87D1204639
:102F5000FFF728FD83E7022084E710B50268936934
:102F6000116813F4807F09D011F0800F06D0446CF3
:102F700044F0010444644FF48074D46113F4806F0E
:102F80000AD011F0800F07D0426C42F00802426470
:102F900002684FF48064D46113F4007F0AD011F00A
:102FA000800F07D0436C43F00203436403684FF47F
:102FB0000072DA61416C11F00B0F00D110BDFFF708
:102FC000D3FDFBE708B5806A836B0BB100229A63DF
:102FD000C36B0BB100229A63FFF7AEFD08BD034639
:102FE00090F84120D2B2202A23D190F84020012A23
:102FF00021D0012280F84020242280F8412000685E
:10300000026822F0010202601868026822F480520D
:103010000260186802681143016019680A6842F08A
:1030200001020A60202283F84120002083F840003A
:1030300070470220704702207047034690F84120F5
:10304000D2B2202A21D190F84020012A1FD001229B
:1030500080F84020242280F841200068026822F095
:10306000010202601868026822F4706242EA0122DA
:10307000026019680A6842F001020A60202283F89F
:103080004120002083F84000704702207047022052
:10309000704708B590F82530DBB2022B03D004232B
:1030A000C363012008BD0268136823F00E03136098
:1030B0000268136823F001031360436C03F01C03E0
:1030C000016C012202FA03F34B6080F825200023F3
:1030D00080F82430836B13B198470020E2E700208A
:1030E000E0E790F825007047024B186800F4C060D4
:1030F000704700BF00700040B0F5007F0FD01F4B3D
:103100001B6803F4C063B3F5806F34D01B4A1368A7
:1031100023F4C06343F48063136000207047174BAF
:103120001B6803F4C063B3F5007F20D0134A136813
:1031300023F4C06343F400731360114B1B68322205
:1031400002FB03F30F4AA2FB03239B0C013300E0B5
:10315000013B0A4A526912F4806F01D0002BF7D16B
:10316000064B5B6913F4806F03D100207047002089
:103170007047032070470020704700BF0070004078
:103180001000002083DE1B43002807DB00F01F0235
:10319000400901239340024A42F82030704700BFA3
:1031A00000E100E0002808DB0901C9B200F160403D
:1031B00000F5614080F80013704700F00F0009012E
:1031C000C9B2014B1954704714ED00E000B500F08E
:1031D0000700C0F1070CBCF1040F28BF4FF0040C2E
:1031E000031D062B0FD9C31E4FF0FF3E0EFA0CF045
:1031F00021EA000199400EFA03FE22EA0E0241EA9A
:1032000002005DF804FB0023EEE70000074AD368E4
:1032100023F4E0631B041B0C000200F4E060034392
:1032200043F0BF6343F40033D360704700ED00E028
:1032300010B50446054BD868C0F30220FFF7C6FF5F
:1032400001462046FFF7AEFF10BD00BF00ED00E0D5
:1032500008B5FFF799FF08BD0138B0F1807F0BD2A8
:103260004FF0E0235861054AF02182F82310002036
:10327000986107221A6170470120704700ED00E055
:1032800000286AD010B50446436A33B94368B3F5E1
:10329000827F05D00023C36102E000230361436104
:1032A0000023A36294F85D30002B4DD0022384F8F4
:1032B0005D302268136823F040031360E368B3F5C0
:1032C000E06F47D90022B3F5706F04D0B3F5E06F1B
:1032D00001D00023A362636803F48273A16801F440
:1032E00004410B43216901F002010B43616901F0C4
:1032F00001010B43A16901F400710B43E16901F085
:1033000038010B43216A01F080010B43A16A01F4EB
:10331000005120680B430360638B03F00403616A70
:1033200001F010010B43616B01F008010B43E168F0
:1033300001F470610B43216813434B600020206649
:10334000012384F85D3010BD84F85C302046FDF721
:1033500051FAABE74FF48052B5E701207047704750
:1033600030B585B00446026851689368C3F3801095
:1033700013F0400F05D113F0010F02D011F0400FF0
:1033800069D113F0020F02D011F0800F67D1C3F39F
:10339000401513F0200F03D110B913F4807F61D0D2
:1033A00011F0200F5ED078B194F85D00C0B2032810
:1033B0005AD0206E40F00400206600200090D068B3
:1033C000009090680090009865B1206E40F0010078
:1033D00020660020029090680290106820F0400063
:1033E0001060029A13F4807F09D0236E43F0080323
:1033F00023660023039323689B680393039B236E38
:10340000002B2FD02268536823F0E0035360012380
:1034100084F85D3011F0030F2ED02268536823F03A
:1034200003035360A36D4BB1154A9A63A06DFFF778
:1034300030FE18B1236E43F040032366636D8BB1F9
:103440000F4A9A63606DFFF724FE58B1236E43F074
:103450004003236606E0E36C2046984702E0236DB4
:103460002046984705B030BD00230193D3680193EF
:1034700093680193019BF5E72046FFF770FFF1E7A2
:103480008534000808B5806A0023A0F84630C38759
:10349000FFF765FF08BD0000034AD2F8883043F407
:1034A0007003C2F88830704700ED00E0DFF834D0D8
:1034B000FFF7F2FF0C480D490D4A002302E0D458F3
:1034C000C4500433C4188C42F9D30A4A0A4C00236E
:1034D00001E013600432A242FBD3FCF79DFEFCF72F
:1034E00055FFFEE700C0002000000020180000206B
:1034F000683500081800002058010020FEE7000091
:10350000F8B500BFF8BC08BC9E467047F8B500BFD0
:08351000F8BC08BC9E467047A0
:10351800A0860100400D0300801A060000350C004B
:1035280040420F0080841E0000093D0000127A000E
:103538000024F40000366E010048E801006CDC024B
:10354800000000000000000001020304060708094B
:08355800F90100080000000069
:08356000D10100080000000089
:103568000D00000009E000000D300100100000000F
:0835780000093D000000000005
:04000005080034AD0E
:00000001FF
