:020000040800F2
:1000000000C00020BD3200081D0C00081F0C0008B5
:10001000210C0008230C0008250C0008000000003B
:10002000000000000000000000000000270C000895
:10003000290C0008000000002B0C00082D0C000803
:100040000D3300080D3300080D3300080D33000890
:100050000D3300080D3300080D3300080D030008B0
:100060000D3300080D3300080D3300080D33000870
:100070000D3300080D3300080D3300080D33000860
:100080000D3300080D330008950300080D330008F8
:100090000D3300080D3300080D3300082903000854
:1000A0000D3300080D3300080D3300080D33000830
:1000B0000D33000800000000000000000D330008B0
:1000C0000D3300080D3300080D330008350C00080F
:1000D0000D3300080D3300080D3300080D33000800
:1000E000450300080D330008000000000000000078
:1000F0000000000000000000000000000000000000
:10010000000000000D330008000000000D3300085F
:1001100000000000000000000D3300080D3300084F
:100120000D3300080D3300080D3300080D330008AF
:100130000D33000800000000000000000000000077
:100140000D3300080D3300080D33000800000000D7
:100150000D3300080D3300080D3300080D3300087F
:10016000450C0008550C00080D3300080000000085
:100170000D3300080D3300080000000000000000EF
:100180000D3300080D3300080D3300080000000097
:100190000348044B834202D0034B03B11847704716
:1001A0001000002010000020000000000548064B51
:1001B0001B1AD90F01EBA301491002D0034B03B165
:1001C00018477047100000201000002000000000B9
:1001D00010B5064C237843B9FFF7DAFF044B13B18F
:1001E0000448AFF300800123237010BD10000020ED
:1001F000000000001033000808B5044B1BB104498F
:100200000448AFF30080BDE80840CFE700000000DD
:10021000140000201033000870B50F4B0F4DAB4297
:10022000A3EB050607D0B610002455F8043B0134B3
:100230009847A642F9D803F06BF8094D094B5E1BAD
:10024000AB424FEAA60606D0002455F8043B013421
:100250009847A642F9D870BD683300086833000893
:10026000683300086C330008830730B547D0541E4C
:10027000002A3ED0CAB2034601E0013C39D303F85C
:10028000012B9D07F9D1032C2CD9CDB205EB052507
:100290000F2C05EB054535D9A4F1100222F00F0C07
:1002A00003F1100EE6444FEA121C1A46C2E900554B
:1002B000C2E9025510327245F8D10CF1010214F076
:1002C0000C0F03EB021204F00F0C13D0ACF104037B
:1002D00023F003030433134442F8045B9342FBD13D
:1002E0000CF003042CB1C9B21C4403F8011BA34257
:1002F000FBD130BD64461346002CF4D1F9E7034628
:100300001446C0E71A46A446E0E700BF044A536912
:1003100043F002035361034A1378013B13707047A3
:100320000004014000000020044A536943F04003E8
:100330005361034A1378013313707047000401407E
:100340000000002008B5114B1B788BB100220F4B29
:100350001A7001214FF0904001F056FD61210920F3
:1003600000F03CFA0A4A536943F40063536108BD44
:100370000121064B19700A464FF0904001F044FDF0
:10038000E121092000F02AFAECE700BF2C00002050
:1003900000040140074B1B6813F0040F08D0054B05
:1003A0001A6C92B204490A801A6842F004021A6078
:1003B000704700BF000004502E00002072B6FEE718
:1003C00000B597B04422002105A8FFF74DFF002398
:1003D000009301930293039304934FF4007002F08F
:1003E00087FB28BB1023059301220B9200230C935B
:1003F00060230D9302230F931092119228221292E0
:10040000072213921493159305A800F0D9FD88B91B
:100410000F23009303230193002302930393049378
:100420000421684601F002F930B917B05DF804FB09
:10043000FFF7C4FFFFF7C2FFFFF7C0FF08B500F0EA
:10044000E7FCFFF7BDFF00F033F800F0BBF800F069
:100450008BFB00F027F900F0FDF900F091F800F0B7
:10046000D1F9012211464FF0904001F0CDFC40F24D
:10047000E13000F0CDFB00F0F5FA0EE00B4B1B78FD
:10048000022B02D8094B03221A70084B197810204E
:1004900000F0A4F9642000F0DDFC044B1B783F2B36
:1004A000ECD9024B3F221A70E8E700BF00000020A1
:1004B000F0B589B00024039404940594069407943D
:1004C0002D4BDA6C42F00102DA64DA6C02F00102C0
:1004D0000192019ADA6C42F00202DA64DB6C03F0FA
:1004E00002030293029B224640F209714FF09040B2
:1004F00001F08AFC214D01228021284601F084FC74
:10050000012214214FF0904001F07EFC40F20D7367
:1005100003930127049705940326069603A94FF039
:10052000904001F08DFB1023039311230493059455
:10053000069403A94FF0904001F082FB4FF418435A
:1005400003930494059403A94FF0904001F078FBC5
:10055000422303930494059403A9284601F070FBF9
:100560008023039304970594069603A9284601F077
:1005700067FB09B0F0BD00BF001002400004004856
:100580000E4B9A6842F010029A60DA6842F4807268
:10059000DA6003F580631A6840F642010A431A6084
:1005A000DA680A43DA60064B80221A604FF40002D0
:1005B0001A604FF480725A60704700BF000001401B
:1005C00000E100E010B5324BDA6C42F40052DA641C
:1005D000D3F8882042F04052C3F888202D4A93680F
:1005E00023F0010393602B4B9B6813F0010FFAD1AA
:1005F000294A936843F4301393607F21274800F021
:1006000093FB244BDA6842F40052DA609A6942F4B0
:1006100060329A611A6B22F00F021A631A6B42F46D
:1006200070721A635A6842F004025A601C4A4FF40E
:10063000802111601A6842F001021A609A6822F063
:1006400000529A60DA6842F00042DA601A6842F0BA
:1006500001021A609A6842F001029A600D4B1B6811
:1006600013F0010FFAD10B4C236843F00103236010
:10067000A36843F08053A3600A2000F0EBFBA3685B
:1006800043F00403A3600A2000F0E4FB10BD00BFA8
:10069000001002400000045000030450300000200D
:1006A00000E100E008B51248124B0360124B4360B2
:1006B000002383600122C260036143618361C361DF
:1006C000036201F02BFD50B90021094802F083F9C3
:1006D00040B90021064802F0ACF930B908BDFFF777
:1006E0006DFEF1E7FFF76AFEF3E7FFF767FEF5E758
:1006F00094000020005C0040E49CD1102DE9F04102
:10070000A0B0044600211B911C911D911E911F91C8
:100710005C2204A8FFF7A8FD22682D4B9A4202D064
:1007200020B0BDE8F0814FF48073049304A801F079
:10073000F9F8002848D1274CE36C43F00103E36447
:10074000E36C03F001030193019BE36C43F00203AC
:10075000E364E36C03F002030293029B80231B9388
:100760004FF01208CDF8708000251D9503271E97C5
:1007700004261F961BA94FF0904001F061FA102348
:100780001B93CDF870801D951E971F961BA91248CC
:1007900001F056FAA36D43F40003A365A36D03F4BF
:1007A00000030393039B2A462946482002F03CFAA3
:1007B000482002F049FA2A462946492002F034FA34
:1007C000492002F041FAABE7FFF7F8FDB3E700BFBD
:1007D000005C0040001002400004004800B585B0F5
:1007E0008DF80C008DF80D1064230093022303AAEA
:1007F0006021034801F0F6FC05B05DF804FB00BF82
:100800009400002008B501228021114801F0FCFA73
:10081000002205214FF0904001F0F6FA0A2000F086
:1008200019FB30210D20FFF7D9FFE1210920FFF747
:10083000D5FF28211020FFF7D1FF012204214FF01E
:10084000904001F0E1FA642000F004FB08BD00BF15
:100850000004004808B51048104B03604FF4827341
:100860004360002383604FF4E062C2600361436130
:100870004FF4007282611822C26103624362836294
:100880000722C26203630823436302F002FB00B93C
:1008900008BDFFF793FDFBE7E800002000300140B2
:1008A00000B589B00023039304930593069307933F
:1008B0000268174B9A4202D009B05DF804FB03F5B9
:1008C00060431A6E42F480521A661A6E02F4805225
:1008D0000192019ADA6C42F00202DA64DB6C03F0F6
:1008E00002030293029B282303930223049303230E
:1008F00006930523079303A9064801F0A1F90022F6
:100900001146232002F090F9232002F09DF9D3E74D
:10091000003001400004004800B583B08DF80700A6
:1009200000224FF400714FF0904001F06DFA002268
:100930004FF480614FF0904001F066FA6423012289
:100940000DF10701064802F013FB01224FF400717C
:100950004FF0904001F058FA03B05DF804FB00BF7F
:10096000E800002000B583B08DF8070000224FF4A6
:1009700000714FF0904001F047FA01224FF480617E
:100980004FF0904001F040FA642301220DF107017D
:10099000064802F0EDFA01224FF400714FF090404A
:1009A00001F032FA03B05DF804FB00BFE80000205C
:1009B00008B540F0B000FFF7AFFF08BD10B5044622
:1009C000000940F01000FFF7A7FF04F00F00FFF749
:1009D000A3FF10BD38B500250CE004EBC5130B4A8E
:1009E000D05CFFF7BFFF0134E4B214F0800FF4D005
:1009F0000135EDB2032D07D82846FFF7D9FF0020B7
:100A0000FFF7DCFF0024F0E738BD00BF54010020F1
:100A100038B5014600B1FF21002303E0104AD1544C
:100A200001339BB2B3F5007FF8D300250CE004EB53
:100A3000C5130B4AD05CFFF795FF0134E4B214F004
:100A4000800FF4D00135EDB2032D07D82846FFF70B
:100A5000AFFF0020FFF7B2FF0024F0E738BD00BF72
:100A60005401002008B500224FF400714FF090406F
:100A700001F0CAF901224FF480714FF0904001F06B
:100A8000C3F9142000F0E6F900224FF480714FF012
:100A9000904001F0B9F9142000F0DCF901224FF484
:100AA00080714FF0904001F0AFF9142000F0D2F9BE
:100AB000012211464FF0904001F0A6F9642000F0A9
:100AC000C9F9AE20FFF728FFD520FFF725FFF0205A
:100AD000FFF722FFA820FFF71FFF1F20FFF71CFFD3
:100AE000D320FFF719FF0020FFF716FF8D20FFF737
:100AF00013FF1420FFF710FF4020FFF70DFFA62083
:100B0000FFF70AFFA420FFF707FFA120FFF704FF6C
:100B1000C820FFF701FFDA20FFF7FEFE4220FFF7B3
:100B2000FBFE8120FFF7F8FE8020FFF7F5FED920BD
:100B3000FFF7F2FEF120FFF7EFFEDB20FFF7ECFE00
:100B40004020FFF7E9FEAF20FFF7E6FE0120FFF7A8
:100B50005FFFFFF73FFF034B00221A805A800122FC
:100B60005A7108BD4C01002010B582B04FF090437F
:100B70001A6842F440621A605A6822F020025A60F1
:100B8000214A936D43F000539365204B1A6822F479
:100B900080321A601A6822F080421A60DA6B42F4DE
:100BA0000032DA634FF4FA725A641A6842F08042F3
:100BB0001A6000238DF8073005E09DF807300133F7
:100BC000DBB28DF807309DF80730DBB21E2B0DD855
:100BD0009DF807200D4CA36B43EA0243A363052055
:100BE00000F038F9636B13F0804FE6D0074B1A68BA
:100BF00022F080421A601A6842F480321A600022A1
:100C00005A6102B010BD00BF0010024000740040E5
:100C1000014B5861704700BF00740040FEE7FEE7DB
:100C2000FEE7FEE7FEE770477047704708B500F043
:100C3000FFF808BD08B5024802F09AFA08BD00BFE7
:100C4000E800002008B5024801F09EFB08BD00BF87
:100C50009400002008B5024801F07BFE08BD00BFEB
:100C60009400002082B00A4B1A6E42F001021A660C
:100C70001A6E02F001020092009A9A6D42F08052C0
:100C80009A659B6D03F080530193019B02B07047FE
:100C90000010024038B504460268936813F002035E
:100CA00000D00123916811F0010F39D0002B39D108
:100CB000936803F00D03012B09D0636D43F010031B
:100CC0006365A36D43F00103A365012029E09368E8
:100CD00023F0004323F03F0343F0020393602368B3
:100CE00003221A6000F0B0F8054623689B6813F0F1
:100CF000010F13D000F0A8F8401B0228F5D9236893
:100D00009B6813F0010FF0D0636D43F0100363652F
:100D1000A36D43F00103A365012002E0002000E081
:100D2000002038BD0020FCE730B583B000230193DC
:100D300090F85030012B41D004460D46012380F835
:100D40005030FFF7A7FF80BB636D23F4885323F077
:100D5000020343F0020363652268936823F0404373
:100D600023F03F0305F080452B4343F0004393609D
:100D700023689B68002B06DB636D23F0030343F0BD
:100D80000103636515E0019B01330193019BB3F5FA
:100D9000912FEDD3636D23F0120343F010036365CD
:100DA000002384F85030012006E0636D43F0100307
:100DB0006365002384F8503003B030BD0220FBE7A8
:100DC000104B1B780BB90120704710B504464FF447
:100DD0007A70B0FBF3F30C4A1068B0FBF3F001F04B
:100DE00037FF68B90F2C01D901200AE00022214603
:100DF0004FF0FF3001F018FF044B1C60002000E0B2
:100E0000012010BD01000020080000200400002087
:100E100010B5032001F0F6FE0F20FFF7D1FF10B14F
:100E20000124204610BD0446FFF71CFFF9E700002F
:100E3000034B1B78034A11680B441360704700BFD3
:100E40000100002054030020014B1868704700BFC8
:100E50005403002038B50446FFF7F6FF0546B4F109
:100E6000FF3F02D0044B1B781C44FFF7EDFF401BF3
:100E7000A042FAD338BD00BF0100002030B583B0D6
:100E80000446204B9B6D13F0805F0BD001F028FED1
:100E9000B0F5007F17D0802C1FD82DD0702C2DD00E
:100EA00000211BE0174DAB6D43F08053AB65AB6D7C
:100EB00003F080530193019B01F012FEAB6D23F010
:100EC0008053AB65E4E7802C03D9A02C03D9022121
:100ED00004E0002102E0012100E003210A4A136836
:100EE00023F007030B431360136803F007038B42DF
:100EF00006D1002003B030BD0221EFE70121EDE76C
:100F00000120F7E70010024000200240284A9368C1
:100F1000D26802F0030213F00C030AD00C2B06D0A7
:100F2000042B1FD0082B20D00020024610E0012AFD
:100F3000F6D11F4A126812F0080F0CD11C4AD2F8E1
:100F40009420C2F303221B4951F8222043B1002010
:100F50000C2B0DD07047164A1268C2F30312F2E749
:100F60001046F5E714480022F2E714480022EFE7A4
:100F70000F4BDB6803F00303022B03D0032B02D1DA
:100F80000E4A00E00C4A0A49CB68C3F3021301334E
:100F9000C868C0F3062002FB00F0B0FBF3F0CB689A
:100FA000C3F3416301335B00B0FBF3F0D2E700BF52
:100FB00000100240283300080024F40000127A00D8
:100FC000002800F01C83F0B583B00446964B9D6862
:100FD00005F00C05DE6806F00306036813F0100F39
:100FE0005AD0E5B10C2D18D0A369002B00F0BB80BE
:100FF0008D4A136843F001031360FFF725FF07468E
:10100000894B1B6813F0020F40F09A80FFF71CFF1A
:10101000C01B0228F4D90320FCE2012EE4D1824B4C
:101020001B6813F0020F03D0A369002B00F0E982C4
:10103000206A7D4B1B6813F0080F5BD07A4B1B684E
:1010400003F0F00398425CD8774B1A6842F008022C
:101050001A601A6822F0F002216A0A431A605A687C
:1010600022F47F42E16942EA01225A60002D60D0F9
:10107000FFF74CFF6C4B9B68C3F303136B4AD35CC5
:1010800003F01F03D8406A4B18606A4B1868FFF7DB
:1010900097FE002840F0BE82236813F0010F00F095
:1010A0008180082D75D00C2D71D06368B3F5803F19
:1010B00000F09780B3F5A02F00F099805A4B1A6882
:1010C00022F480321A601A6822F480221A6063685F
:1010D000002B00F09980FFF7B7FE0746524B1B68C4
:1010E00013F4003F5ED1FFF7AFFEC01B6428F5D9B3
:1010F00003208FE24C4BD3F894301B0903F0F0032C
:10110000A0E7FFF7BBFE002840F07D82464B1A683F
:1011100042F008021A601A6822F0F002216A0A43BB
:101120001A605A6822F47F42E16942EA01225A6059
:101130009EE7206AFFF7A2FE002899D0012069E20D
:10114000394B1A6842F008021A601A6822F0F0025D
:10115000216A0A431A605A6822F47F42E16942EA2E
:1011600001225A6098E7304A136823F001031360A4
:10117000FFF76AFE07462C4B1B6813F0020F8BD05B
:10118000FFF762FEC01B0228F5D9032042E2032EBE
:101190008BD1254B1B6813F4003F03D06368002BF1
:1011A00000F03382236813F0020F58D0042D45D08D
:1011B0000C2D41D0E368002B77D01B4A136843F411
:1011C00080731360FFF740FE0646174B1B6813F44D
:1011D000806F61D1FFF738FE801B0228F5D903200C
:1011E00018E2114A136843F4803313606FE703F188
:1011F0008043A3F53C331A6842F480221A601A68CF
:1012000042F480321A6062E7FFF71EFE0746064B83
:101210001B6813F4003FC5D0FFF716FEC01B6428FF
:10122000F5D90320F6E100BF001002405833000852
:101230000800002004000020022EBBD1A44B1B6834
:1012400013F4806F03D0E368002B00F0E081A04A24
:10125000536823F0F853216943EA0163536023681C
:1012600013F0080F4CD063699BB3994AD2F89430BD
:1012700043F00103C2F89430FFF7E6FD0646944BB5
:10128000D3F8943013F0020F3AD1FFF7DDFD801B45
:101290000228F4D90320BDE18D4A536823F0F853A6
:1012A000216943EA01635360D9E7894A136823F44B
:1012B00080731360FFF7C8FD0646854B1B6813F467
:1012C000806FCCD0FFF7C0FD801B0228F5D903202A
:1012D000A0E17F4AD2F8943023F00103C2F89430A1
:1012E000FFF7B2FD06467A4BD3F8943013F0020FA5
:1012F00006D0FFF7A9FD801B0228F4D9032089E15D
:10130000236813F0040F7AD0714B9B6D13F0805F4C
:1013100036D16F4B9A6D42F080529A659B6D03F007
:1013200080530193019B01266A4B1B6813F4807F55
:1013300028D0A368012B39D0052B3FD0644BD3F8BC
:10134000902022F00102C3F89020D3F8902022F0E0
:101350000402C3F89020A368002B3DD0FFF774FD72
:1013600007465B4BD3F8903013F0020F46D1FFF7DE
:101370006BFDC01B41F288339842F2D9032049E14A
:101380000026D1E7534A136843F480731360FFF7D4
:101390005BFD07464F4B1B6813F4807FC9D1FFF7F5
:1013A00053FDC01B0228F5D9032033E1484AD2F887
:1013B000903043F00103C2F89030CCE7444BD3F8AF
:1013C000902042F00402C3F89020D3F8902042F01D
:1013D0000102C3F89020BEE7FFF736FD07463C4BFD
:1013E000D3F8903013F0020F08D0FFF72DFDC01B8B
:1013F00041F288339842F2D903200BE1E6B9236821
:1014000013F0200F35D0636AE3B1314AD2F8983037
:1014100043F00103C2F89830FFF716FD06462C4B47
:10142000D3F8983013F0020F23D1FFF70DFD801B86
:101430000228F4D90320EDE0254A936D23F0805370
:101440009365DCE7224AD2F8983023F00103C2F812
:101450009830FFF7F9FC06461D4BD3F8983013F08F
:10146000020F06D0FFF7F0FC801B0228F4D90320FE
:10147000D0E0A36A002B00F0CC80022B17D00C2DFB
:1014800000F0CC80124A136823F080731360FFF7DA
:10149000DBFC04460E4B1B6813F0007F00F0A880B5
:1014A000FFF7D2FC001B0228F4D90320B2E0084B5E
:1014B000DB6803F00301E26A91420DD00C2D00F0CD
:1014C000AB80034B1B6813F0806F2FD00120A1E08D
:1014D000001002400070004003F07002216B0139DF
:1014E000B2EB011FEAD103F4FE42616BB2EB012FB4
:1014F000E4D103F07842A16BB2EBC16FDED103F40B
:10150000C001E26B5208013AB1EB425FD6D103F061
:10151000C063226C5208013AB3EB426FCED1404B0C
:101520001B6813F0007F49D0002073E03C4A136829
:1015300023F080731360FFF787FC0546384B1B6868
:1015400013F0007F06D0FFF77FFC401B0228F5D97F
:1015500003205FE0324AD36832491940E36A206BC6
:10156000013843EA0013606B43EA0023E06B400854
:10157000013843EA4053206C4008013843EA406395
:10158000A06B43EAC0631943D160136843F08073D2
:101590001360D36843F08073D360FFF755FC0446B3
:1015A0001F4B1B6813F0007F06D1FFF74DFC001B9B
:1015B0000228F5D903202DE000202BE0184B1A68F3
:1015C00042F080721A60DA6842F08072DA60FFF7E7
:1015D0003BFC0446124B1B6813F0007F06D1FFF75B
:1015E00033FC031B022BF5D9032013E0002011E08C
:1015F0000B4AD1680C4B0B40D36000200AE001205D
:101600007047012006E0012004E0012002E00120F3
:1016100000E0002003B0F0BD0120FBE70120F9E766
:10162000001002408C809D01FCFFEEFE002800F0BF
:10163000AF8070B50D460446594B1B6803F0070395
:101640008B420BD2564A136823F007030B431360F7
:10165000136803F007038B4240F09C80236813F06B
:10166000020F0CD0A2684F4B9B6803F0F0039A4224
:1016700005D94C498B6823F0F0031A438A6023682C
:1016800013F0010F39D06368032B09D0022B26D049
:1016900063BB444A126812F0020F06D1012076E0C3
:1016A000404A126812F0007F76D03E498A6822F0E4
:1016B000030213438B60FFF7C7FB0646394B9B6859
:1016C00003F00C036268B3EB820F16D0FFF7BCFB8C
:1016D000801B41F288339842F0D9032057E0314A09
:1016E000126812F4003FE0D1012050E02D4A126848
:1016F00012F4806FD9D1012049E0236813F0020F62
:101700000CD0A268274B9B6803F0F0039A4205D2E5
:1017100024498B6823F0F0031A438A60204B1B682E
:1017200003F00703AB420AD91D4A136823F00703ED
:101730002B431360136803F00703AB422ED12368D9
:1017400013F0040F06D0174A936823F4E063E168AE
:101750000B439360236813F0080F07D0114A936876
:1017600023F46053216943EAC1039360FFF7CEFB82
:101770000C4B9B68C3F303130B4AD35C03F01F03AA
:10178000D8400A4B18600A4B1868FFF719FB70BD68
:10179000012070470120FAE70120F8E70120F6E771
:1017A00000200240001002405833000808000020CA
:1017B00004000020F8B504460D46594BDB6813F0D1
:1017C000030F18D0564BDB6803F003030268934203
:1017D00002D001263046F8BD002A00F09C80504B14
:1017E000DB68C3F3021301334268934201D0012640
:1017F000F0E7002619E00368022B55D0032B5AD0DE
:10180000012B40F08A80464A126812F0020F5ED027
:101810004348C26822F073026168013943EA011348
:101820001343C3600026002ED4D13D4A136823F031
:1018300080631360FFF708FB0746394B1B6813F002
:10184000006F05D0FFF700FBC31B022BF5D9032661
:10185000002EBFD1002D3CD131490B6923F07843D4
:1018600023F4FE43A068E268D20642EA0022134352
:101870000B612B4A136843F080631360FFF7E4FAAF
:101880000546274B1B6813F0006F05D1FFF7DCFA04
:10189000401B0228F5D90326002E9BD1204A13694C
:1018A000A1690B43136195E71D4A126812F4806F1A
:1018B000AED101268EE71A4A126812F4003FA7D172
:1018C000174A126812F4802FA2D1012682E701265E
:1018D000A9E7012D0FD01248026922F0C06222F45C
:1018E000FE42A16863695B08013B5B0643EA012392
:1018F0001A430261BDE70A48026922F4C00222F4D9
:10190000FE42A16823695B08013B5B0543EA0123B2
:101910001A430261ADE701265CE701265AE700BFE2
:10192000001002402DE9F04182B00446036813F430
:10193000006F26D0436CB3F5000F06D0B3F5400F0F
:101940001DD09BB1012637461DE0B34AD36843F44E
:101950008033D3600027B04AD2F8883023F44003A4
:10196000616C0B43C2F8883000260CE00021043083
:10197000FFF720FF07460028EDD0064603E00027CA
:10198000E9E700263746236813F4003F6BD0A24BEB
:101990009B6D13F0805F4CD19F4B9A6D42F080524B
:1019A0009A659B6D03F080530193019B4FF00108F2
:1019B0009A4A136843F480731360FFF745FA0546AB
:1019C000964B1B6813F4807F05D1FFF73DFA401B4F
:1019D0000228F5D90327002F40D18F4BD3F8903040
:1019E00013F4407315D0A26D9A4212D08A4AD2F8ED
:1019F000903023F44073D2F8901041F48031C2F853
:101A00009010D2F8901021F48031C2F89010C2F8F2
:101A1000903013F0010F0FD1002F40F0E3807E4A89
:101A2000D2F8903023F44073A16D0B43C2F890308C
:101A300015E04FF00008BBE7FFF706FA0546764BC6
:101A4000D3F8903013F0020FE6D1FFF7FDF9401BF9
:101A500041F288339842F2D90327DDE73E46B8F1D8
:101A6000000F40F0C180236813F0010F08D06A4ACC
:101A7000D2F8883023F00303216A0B43C2F8883080
:101A8000236813F0020F08D0634AD2F8883023F09D
:101A90000C03616A0B43C2F88830236813F0040F0B
:101AA00008D05D4AD2F8883023F03003A16A0B4396
:101AB000C2F88830236813F0200F08D0564AD2F8B5
:101AC000883023F44063E16A0B43C2F8883023680E
:101AD00013F4007F08D0504AD2F8883023F4402312
:101AE000E16B0B43C2F88830236813F4806F08D091
:101AF000494AD2F8883023F44013216C0B43C2F8D2
:101B00008830236813F0400F08D0434AD2F8883059
:101B100023F44053216B0B43C2F88830236813F041
:101B2000800F08D03C4AD2F8883023F44043616BE0
:101B30000B43C2F88830236813F4807F08D0364AFC
:101B4000D2F8883023F44033A16B0B43C2F88830BD
:101B5000236813F4002F0FD02F4AD2F8883023F0D7
:101B60004063A16C0B43C2F88830A36CB3F1006FE3
:101B700040D0B3F1806F42D0236813F4802F0FD090
:101B8000254AD2F8883023F04063E16C0B43C2F859
:101B90008830E36CB3F1006F39D0B3F1806F3FD080
:101BA000236813F4804F0CD01B4AD2F8883023F0FE
:101BB0004053216D0B43C2F88830236DB3F1805F31
:101BC00036D0236813F4004F08D0134AD2F8883077
:101BD00023F08043616D0B43C2F88830304602B079
:101BE000BDE8F0813E463AE70B4A936D23F08053FF
:101BF000936538E7D36843F48013D360BCE70121D1
:101C0000201DFFF7D7FD0028B6D00646B4E7D368FD
:101C100043F48013D360C3E700100240007000401B
:101C20000121201DFFF7C6FD0028B9D00646B7E701
:101C30000221201DFFF7BEFD0028C2D00646C0E7E6
:101C4000F0B583B0002362E085685E000324B440F1
:101C500025EA0405CC68B4402C438460456825EA35
:101C60000C054C68C4F300149C402C4344605FE0B6
:101C7000DD08083550F8254003F0070C4FEA8C0CBE
:101C80004FF00F0E0EFA0CFE24EA0E0E0C6904FA49
:101C90000CF444EA0E0440F8254060E0042400E01F
:101CA000002404FA0EF42C430CF1020C524D45F8BA
:101CB0002C40524CA568D44325EA02064F6817F41D
:101CC000801F01D042EA05064C4DAE60ED6804EA83
:101CD00005064F6817F4001F01D042EA0506474D7C
:101CE000EE606D6804EA05064F6817F4003F01D006
:101CF00042EA0506414D6E602D682C404E6816F490
:101D0000803F01D042EA05043C4A146001330A686E
:101D100032FA03F46ED04FF0010C0CFA03FC1CEA0B
:101D20000202F3D04C6804F00304013C012C8BD96F
:101D30004C6804F00304032C0CD0C4685D004FF021
:101D4000030C0CFA05FC24EA0C0C8C68AC4044EA49
:101D50000C04C4604C6804F00304022C88D00468AE
:101D60004FEA430E4FF0030C0CFA0EFC24EA0C0C65
:101D70004C6804F0030404FA0EF444EA0C04046012
:101D80004C6814F4403FC1D01D4C256E45F0010550
:101D90002566246E04F001040194019C4FEA930C23
:101DA0000CF10205144C54F8255003F0030E4FEAD1
:101DB0008E0E0F2404FA0EF425EA0405B0F1904FBC
:101DC0003FF46EAF0F4CA0420ED004F58064A042E9
:101DD0000CD004F58064A0420AD004F58064A042CF
:101DE0003FF45CAF07245CE701245AE7022458E77C
:101DF000032456E703B0F0BD000001400004014099
:101E000000100240000400480AB1816170478162FD
:101E1000704703689A6912F0020F01D000229A629B
:101E200003689A6912F0010F03D19A6942F0010226
:101E30009A61704710B4019CC1F3090141EA024163
:101E40001943214321F0004102685368640D04F4F2
:101E5000806444F07F7444F4583444F47F7444F054
:101E6000030423EA04030B4353605DF8044B7047FB
:101E700011F0010F09D090F8413003F02803282B0E
:101E800001D0F22302E0422300E0002311F0020F10
:101E900009D043F0440C90F8412002F02802282A8F
:101EA00010D043F0F40311F4004F0DD110290ED0DF
:101EB00020290FD0402910D001680A6822EA0303C4
:101EC0000B6070476346EEE743F0B803EEE743F07C
:101ED0009003EDE743F02003ECE743F04003EBE72A
:101EE0002DE9F041044603689E6916F010067CD087
:101EF0000D4690461022DA6100263746236898691D
:101F000010F0200F30D17FBBB5F1FF3FF6D0FEF7C8
:101F10009BFFA0EB0800A84201D8002DEED121685C
:101F20004B6803F4804394F84220D2B2886910F4DD
:101F3000004F02D00BB9202A0ED123689B6913F001
:101F4000200FDBD1FEF780FFA0EB08001928F4D9A1
:101F500046F020060127D1E74B6843F480434B60ED
:101F6000FEF772FF8046E8E70FB92022DA6146F0FB
:101F7000040601252268936913F4807F05D046F09A
:101F800001064FF48071D161012513F4806F06D0F2
:101F900046F0080622684FF48061D161012513F4F0
:101FA000007F24D046F0020623684FF40072DA6105
:101FB00001252046FFF72DFF2268536823F0FF73A9
:101FC00023F48B3323F4FF7323F001035360636C1A
:101FD00033436364202384F84130002384F8423083
:101FE00084F840302846BDE8F0810025C2E7002D86
:101FF000F8D0DEE770B504460D46164623689B69A7
:1020000013F0020F22D1324629462046FFF768FF1F
:10201000F0B9B5F1FF3FF1D0FEF716FF801BA842E3
:1020200001D8002DEAD123689B6913F0020FE5D196
:10203000636C43F020036364202384F84130002361
:1020400084F8423084F84030012000E0002070BD68
:102050000120FCE72DE9F04105460F46164698465B
:102060002C68A46937EA04040CBF01240024B4429C
:1020700022D1B8F1FF3FF3D0FEF7E6FE069BC01A6F
:10208000404502D8B8F1000FEAD12B689B6937EAC6
:1020900003030CBF01230023B342E1D16B6C43F077
:1020A00020036B64202385F84130002385F84230FB
:1020B00085F84030012000E00020BDE8F08170B5D7
:1020C00004460D46164604E023689B6913F0200F72
:1020D00012D023689B6913F0200F1BD1324629468A
:1020E0002046FFF7FDFEB8B9FEF7AEFE801BA84202
:1020F000EAD8002DEDD1E7E7636C43F02003636479
:10210000202384F84130002384F8423084F84030A2
:10211000012000E0002070BD0120FCE700285FD016
:1021200010B5044690F84130002B48D0242384F8A1
:1021300041302268136823F001031360636822684A
:1021400023F0706313612268936823F40043936063
:10215000E368012B38D0A368226843F404439360FA
:10216000E368022B36D02268536823F4006353607F
:102170002268536843F0007343F4004353602268BD
:10218000D36823F40043D360236962691343A169D0
:10219000226843EA0123D360E369216A22680B4382
:1021A00013602268136843F0010313600020606429
:1021B000202384F84130206384F8420010BD80F869
:1021C0004030FEF79BFAB1E7A368226843F400436E
:1021D0009360C5E72268536843F400635360C7E720
:1021E000012070472DE9F04782B00F460A9E90F813
:1021F0004110C9B2202940F0B78004469046994664
:1022000090F84030012B00F0B3804FF0010A80F8C5
:1022100040A0FEF719FE05460090192352464FF4E0
:1022200000412046FFF716FF002840F0A38021233D
:1022300084F84130102384F8423000236364C4F8EA
:102240002480A4F82A906363638D9BB2FF2B1ED970
:10225000FF2323854FF08073228DEAB1226898F81E
:1022600000109162626A01326262628D92B2013A3A
:1022700092B26285228D013A92B2228501324149A1
:102280000091D2B239462046FFF7D4FD18E0638DA5
:1022900023854FF00073DFE73A490091D2B2394607
:1022A0002046FFF7C7FD0BE0628D92B22285002326
:1022B00000934FF00073D2B239462046FFF7BAFDC3
:1022C000638D9BB2002B33D02A4631462046FFF760
:1022D00091FE002850D1626A236812789A62636A7C
:1022E00001336362638D9BB2013B9BB26385238D97
:1022F000013B9BB22385628D92B2002AE0D0002B75
:10230000DED100953346002280212046FFF7A2FE51
:10231000A0BB638D9BB2FF2BC6D9FF222285002371
:1023200000934FF0807339462046FFF783FDC7E7DF
:102330002A4631462046FFF7C2FE08BB236820220A
:10234000DA6121684B6823F0FF7323F48B3323F4A5
:10235000FF7323F001034B6084F84120002384F8CD
:10236000423084F8403000E0022002B0BDE8F0873F
:102370000220FAE70120F8E70120F6E70120F4E760
:102380000120F2E70020008008B5036899691A6807
:10239000436B03B1984708BD7047704710B50446BA
:1023A00003681A68002180F8421012F4804F0ED0A2
:1023B0001A6822F480421A6094F84130DBB2292B6B
:1023C0000DD094F84130DBB22A2B18D010BD12F496
:1023D000004FF1D01A6822F400421A60ECE728237B
:1023E00084F841302123236301212046FFF740FD7B
:1023F000002384F840302046FFF7CEFFE6E728238D
:1024000084F841302223236302212046FFF730FD68
:10241000002384F840302046FFF7BFFFD6E770471F
:10242000F8B5044690F8413003F02803282B06D075
:1024300003680822DA61002380F84030F8BD0368A1
:102440009E69C6F300469A69120C02F0FE059A686E
:10245000C2F30902DF6807F0FE07C168022922D132
:1024600085EAD21515F0060F10D1816C0131816417
:10247000816C0229E2D1002181640820D86184F8AE
:10248000401031462046FFF7CAFFD7E74FF400411E
:10249000FFF7EEFC002384F840303A4631462046F0
:1024A000FFF7BDFFCAE74FF40041FFF7E1FC00234F
:1024B00084F840302A4631462046FFF7B0FFBDE79A
:1024C0007047000010B50446174BC3620023036336
:1024D000202280F8412080F84230436311F0040F3D
:1024E00013D003685A6A436A1A70436A013343621D
:1024F000038D53B1013B0385438D9BB2013B9BB2DE
:102500004385436C43F00403436448F203012046CF
:10251000FFF7AEFC23681022DA61002384F8403014
:102520002046FFF7CDFF10BD0000FFFF704770474A
:1025300008B590F84130DBB2602B06D0002303636E
:1025400080F84030FFF7F2FF08BD202380F84130CB
:102550000023036380F84030FFF7E9FFF4E7000051
:1025600010B5044690F84130002280F842204548DA
:10257000E0626285626C0A436264283BDBB2022B34
:1025800019D803212046FFF773FC282384F8413033
:102590003D4B6363236BA26B1AB1112B30D0212BFF
:1025A0002ED0E26B1AB1122B4BD0222B49D02046F1
:1025B000FFF7BEFF10BD48F203012046FFF758FCAD
:1025C0002046FFF726FC94F84130DBB2602B14D094
:1025D000202384F8413023689A6912F0200F0CD030
:1025E0009A6912F0100F05D01022DA61636C43F083
:1025F0000403636423682022DA6100236363C9E76C
:1026000023681A6812F4804F03D01A6822F48042BB
:102610001A60A06B00F061FA01280ED0A36B1B4A70
:102620009A63002384F84030A06B00F02EFA002853
:10263000C0D0A06B836B9847BCE72046FFF778FFBC
:10264000B8E723681A6812F4004F03D01A6822F41E
:1026500000421A60E06B00F040FA01280ED0E36BF4
:102660000A4A9A63002384F84030E06B00F00DFAC8
:1026700000289FD0E06B836B98479BE72046FFF7CD
:1026800057FF97E70000FFFF05280008BD29000855
:1026900070B504460D460268166890F84130202156
:1026A000D161213B092B0CD8DFE803F005630B0B4C
:1026B0000B0B0B6A056348F20101FFF7D9FB2123DD
:1026C00023632268536843F40043536022685368CD
:1026D00023F0FF7323F48B3323F4FF7323F0010300
:1026E00053602046FFF795FB16F4804F4FD02268C9
:1026F000136823F480431360A36B1BB11B685B68F2
:102700009BB2638515F0040F11D025F004052368F2
:102710005A6A636A1A70636A01336362238D33B144
:10272000013B2385638D9BB2013B9BB26385638D27
:102730009BB21BB1636C43F004036364002384F811
:1027400042306363636C002B31D1E36A13F5803F41
:102750003BD194F84130DBB2222B46D0202384F8C1
:1027600041300023236384F840302046FFF714FEF5
:102770003AE048F20201FFF77BFB22232363A0E744
:1027800048F20301FFF774FB0023236399E716F473
:10279000004FB7D02268136823F400431360E36B43
:1027A000002BAFD01B685B689BB26385AAE7616CA6
:1027B0002046FFF7D5FE94F84130DBB2282B13D129
:1027C00029462046FFF77EFE0EE02046FFF7E6FD95
:1027D0000B4BE362202384F841300023236384F809
:1027E00040302046FFF76CFE70BD202384F8413056
:1027F0000023236384F840302046FFF7CEFDF3E743
:102800000000FFFFF8B5C76A90F84030012B00F0D8
:102810009E8004460D461646012380F8403011F094
:10282000200F02D012F0200F19D115F0100F3ED05A
:1028300016F0100F3BD0638D9BB243BB94F8413030
:10284000DBB2282B0ED094F84130DBB2292B11D00B
:1028500023681022DA61002084F84000F8BDFFF7F9
:1028600017FFE2E7B7F1007FEDD129462046FFF7D9
:1028700029FEF0E717F5803FEAD023681022DA61DD
:102880002046FFF7C6FA2046FFF788FDE3E72368F6
:102890001022DA61636C43F00403636417B1B7F18B
:1028A000807FD8D1616C2046FFF75AFED3E715F040
:1028B000040F1FD016F0040F1CD0638D9BB273B1B0
:1028C00023685A6A636A1A70636A01336362238DEC
:1028D000013B2385638D9BB2013B9BB26385638D76
:1028E0009BB2002BB7D117F5803FB4D02046FFF73D
:1028F00055FDB0E715F0080F02D016F0080F18D1FB
:1029000015F0020FA7D016F0020FA4D0638D9BB272
:10291000A3B1626A236812789A62636A01336362C0
:10292000638D9BB2013B9BB26385238D013B238565
:1029300091E729462046FFF773FD8CE7B7F1807FCA
:1029400001D0002F87D12046FFF728FD83E7022022
:1029500084E710B502689369116813F4807F09D089
:1029600011F0800F06D0446C44F0010444644FF42D
:102970008074D46113F4806F0AD011F0800F07D0F7
:10298000426C42F00802426402684FF48064D461F1
:1029900013F4007F0AD011F0800F07D0436C43F08E
:1029A0000203436403684FF40072DA61416C11F072
:1029B0000B0F00D110BDFFF7D3FDFBE708B5806A10
:1029C000836B0BB100229A63C36B0BB100229A6335
:1029D000FFF7AEFD08BD034690F84120D2B2202A91
:1029E00023D190F84020012A21D0012280F84020F4
:1029F000242280F841200068026822F0010202606F
:102A00001868026822F48052026018680268114354
:102A1000016019680A6842F001020A60202283F806
:102A20004120002083F840007047022070470220B8
:102A30007047034690F84120D2B2202A21D190F865
:102A40004020012A1FD0012280F84020242280F853
:102A500041200068026822F00102026018680268E2
:102A600022F4706242EA0122026019680A6842F0A8
:102A700001020A60202283F84120002083F84000F0
:102A80007047022070470220704708B590F8253043
:102A9000DBB2022B03D00423C363012008BD02680C
:102AA000136823F00E0313600268136823F0010318
:102AB0001360436C03F01C03016C012202FA03F360
:102AC0004B6080F82520002380F82430836B13B1FD
:102AD00098470020E2E70020E0E790F825007047E3
:102AE000024B186800F4C060704700BF00700040DF
:102AF000B0F5007F0FD01F4B1B6803F4C063B3F524
:102B0000806F34D01B4A136823F4C06343F480639E
:102B1000136000207047174B1B6803F4C063B3F5C4
:102B2000007F20D0134A136823F4C06343F400737A
:102B30001360114B1B68322202FB03F30F4AA2FB06
:102B400003239B0C013300E0013B0A4A526912F453
:102B5000806F01D0002BF7D1064B5B6913F4806FB7
:102B600003D10020704700207047032070470020E9
:102B7000704700BF007000400800002083DE1B4348
:102B8000002807DB00F01F02400901239340024A9E
:102B900042F82030704700BF00E100E0002808DB69
:102BA0000901C9B200F1604000F5614080F80013EE
:102BB000704700F00F000901C9B2014B195470476A
:102BC00014ED00E000B500F00700C0F1070CBCF107
:102BD000040F28BF4FF0040C031D062B0FD9C31E92
:102BE0004FF0FF3E0EFA0CF021EA000199400EFA78
:102BF00003FE22EA0E0241EA02005DF804FB002314
:102C0000EEE70000074AD36823F4E0631B041B0CC3
:102C1000000200F4E060034343F0BF6343F4003379
:102C2000D360704700ED00E010B50446054BD8684E
:102C3000C0F30220FFF7C6FF01462046FFF7AEFFB4
:102C400010BD00BF00ED00E008B5FFF799FF08BD1B
:102C50000138B0F1807F0BD24FF0E0235861054A74
:102C6000F02182F823100020986107221A61704732
:102C70000120704700ED00E02DE9F04782B00546E5
:102C8000884617461E46FEF7DFF80A9B1B1A03EB21
:102C90000609FEF7D9F88246284B1B68C3F3CB33ED
:102CA00009FB03F301932B689C6838EA04040CBF0A
:102CB00001230023BB423DD0B6F1FF3FF3D0FEF726
:102CC000C3F8A0EB0A00484507D2019A02B14A4670
:102CD000019B013B01939146E5E72A68536823F085
:102CE000E00353606B68B3F5827F0BD0AB6AB3F53A
:102CF000005F14D0012385F85D30002385F85C3037
:102D0000032018E0AB68B3F5004F02D0B3F5806F35
:102D1000ECD12A68136823F040031360E6E72A68C1
:102D2000136823F4005313602A68136843F40053B4
:102D30001360DFE7002002B0BDE8F0870800002044
:102D40002DE9F04782B006460C4615461F46002383
:102D50008DF80330FEF778F80A9B1B1A03EB07087F
:102D6000FEF772F88146D6F800A0304B1B6803EBE3
:102D70008303C3EBC3031B0D08FB03F3019302E0C2
:102D8000B7F1FF3F12D133689B6803EA040CAC45EE
:102D900047D0B4F5C06FF3D1002DF1D19AF80C30C3
:102DA000DBB28DF803309DF80330E9E7FEF74CF80D
:102DB000A0EB0900404507D2019A02B14246019BAF
:102DC000013B01939046DEE73268536823F0E0034D
:102DD00053607368B3F5827F0BD0B36AB3F5005FBD
:102DE00014D0012386F85D30002386F85C30032080
:102DF00018E0B368B3F5004F02D0B3F5806FECD1A3
:102E00003268136823F040031360E6E73268136802
:102E100023F4005313603268136843F400531360C3
:102E2000DFE7002002B0BDE8F08700BF0800002007
:102E300070B582B004460D46164600920B4600223D
:102E40004FF4C051FFF77CFFB0B900962B4600222B
:102E500080212046FFF710FFA8B900962B460022DC
:102E60004FF4C0612046FFF76BFF50B1236E43F073
:102E700020032366032004E0236E43F0200323662F
:102E8000032002B070BD236E43F0200323660320AD
:102E9000F7E700286AD010B50446436A33B943689F
:102EA000B3F5827F05D00023C36102E000230361F4
:102EB00043610023A36294F85D30002B4DD00223C0
:102EC00084F85D302268136823F040031360E368E0
:102ED000B3F5E06F47D90022B3F5706F04D0B3F5B6
:102EE000E06F01D00023A362636803F48273A168DA
:102EF00001F404410B43216901F002010B436169B4
:102F000001F001010B43A16901F400710B43E16978
:102F100001F038010B43216A01F080010B43A16AE3
:102F200001F4005120680B430360638B03F004033A
:102F3000616A01F010010B43616B01F008010B4362
:102F4000E16801F470610B43216813434B6000207A
:102F50002066012384F85D3010BD84F85C30204683
:102F6000FDF79EFCABE74FF48052B5E701207047B8
:102F70002DE9F04383B01D4690F85C30012B00F042
:102F8000F480044688469146012380F85C30FDF7C2
:102F90005BFF074694F85D60F6B2012E40F0DD80DD
:102FA000B8F1000F00F0DA80B9F1000F00F0D68020
:102FB000032384F85D3000232366C4F83880A4F826
:102FC0003C90A4F83E902364A4F84430A4F8463022
:102FD0002365E364A368B3F5004F1ED023681A6825
:102FE00012F0400F03D11A6842F040021A60E36801
:102FF000B3F5E06F44D9636813B1B9F1010F20D183
:10300000A26B23681288DA60A36B0233A363E38F99
:103010009BB2013B9BB2E38713E02268136823F065
:10302000400313602268136843F480431360D5E7BC
:10303000FDF70AFFC01BA84202D3B5F1FF3F1AD12A
:10304000CDB1E38F9BB2002B6FD023689A6812F04A
:10305000020FEDD0A26B1288DA60A36B0233A36378
:10306000B4F83EC01FFA8CFC0CF1FF3C1FFA8CFC3C
:10307000A4F83EC0E5E7012384F85D3003266DE047
:10308000636813B1B9F1010F32D1E38F9BB2012B09
:103090000CD9A26B23681288DA60A36B0233A36396
:1030A000E38F9BB2023B9BB2E38721E0A26B2368D4
:1030B00012781A73A36B0133A363E38F9BB2013BB6
:1030C0009BB2E38714E0A36B1B781373A36B0133EC
:1030D000A363E38F9BB2013B9BB2E38708E0FDF75C
:1030E000B3FEC01BA84202D3B5F1FF3F18D1BDB15A
:1030F000E38F9BB2CBB12268936813F0020FEED03E
:10310000E38F9BB2012BDED9A36B1B88D360A36B2B
:103110000233A363E38F9BB2023B9BB2E387E7E7F3
:10312000012384F85D30032618E03A4629462046FC
:10313000FFF77EFE08B120232366A36833B901930D
:103140002368DA6801929B680193019B236E2BB977
:10315000012384F85D30002600E00226002384F875
:103160005C30304603B0BDE8F0830226F9E77047D3
:1031700030B585B00446026851689368C3F3801087
:1031800013F0400F05D113F0010F02D011F0400FE2
:1031900069D113F0020F02D011F0800F67D1C3F391
:1031A000401513F0200F03D110B913F4807F61D0C4
:1031B00011F0200F5ED078B194F85D00C0B2032802
:1031C0005AD0206E40F00400206600200090D068A5
:1031D000009090680090009865B1206E40F001006A
:1031E00020660020029090680290106820F0400055
:1031F0001060029A13F4807F09D0236E43F0080315
:1032000023660023039323689B680393039B236E29
:10321000002B2FD02268536823F0E0035360012372
:1032200084F85D3011F0030F2ED02268536823F02C
:1032300003035360A36D4BB1154A9A63A06DFFF76A
:1032400024FC18B1236E43F040032366636D8BB1F9
:103250000F4A9A63606DFFF718FC58B1236E43F074
:103260004003236606E0E36C2046984702E0236DA6
:103270002046984705B030BD00230193D3680193E1
:1032800093680193019BF5E72046FFF770FFF1E794
:103290009532000808B5806A0023A0F84630C3873D
:1032A000FFF765FF08BD0000034AD2F8883043F4F9
:1032B0007003C2F88830704700ED00E0DFF834D0CA
:1032C000FFF7F2FF0C480D490D4A002302E0D458E5
:1032D000C4500433C4188C42F9D30A4A0A4C002360
:1032E00001E013600432A242FBD3FCF795FFFDF727
:1032F000A5F8FEE700C0002000000020100000201C
:10330000783300081000002058030020FEE700007A
:10331000F8B500BFF8BC08BC9E467047F8B500BFC2
:08332000F8BC08BC9E46704792
:10332800A0860100400D0300801A060000350C003D
:1033380040420F0080841E0000093D0000127A0000
:103348000024F40000366E010048E801006CDC023D
:10335800000000000000000001020304060708093D
:08336800F9010008000000005B
:08337000D1010008000000007B
:10337800280100001000000000093D0000000000C6
:04000005080032BD00
:00000001FF
