:020000040800F2
:1000000000C0002049360008A90F0008AB0F000807
:10001000AD0F0008AF0F0008B10F0008000000008E
:10002000000000000000000000000000B30F000806
:10003000B50F000800000000B70F0008B90F000856
:100040009936000899360008993600089936000854
:100050009936000899360008993600080D03000803
:100060009936000899360008993600089936000834
:100070009936000899360008993600089936000824
:100080009936000899360008B5030008993600082B
:1000900099360008993600089936000829030008A7
:1000A00099360008993600089936000899360008F4
:1000B0009936000800000000000000009936000892
:1000C000993600089936000899360008C10F0008D3
:1000D00099360008993600089936000899360008C4
:1000E00045030008993600080000000000000000E9
:1000F0000000000000000000000000000000000000
:100100000000000099360008000000009936000841
:100110000000000000000000993600089936000831
:100120009936000899360008993600089936000873
:1001300099360008000000000000000000000000E8
:10014000993600089936000899360008000000002A
:100150009936000899360008993600089936000843
:10016000D10F0008E10F00089936000800000000D8
:1001700099360008993600080000000000000000D1
:1001800099360008993600089936000800000000EA
:100190000348044B834202D0034B03B11847704716
:1001A0003000002030000020000000000548064B11
:1001B0001B1AD90F01EBA301491002D0034B03B165
:1001C0001847704730000020300000200000000079
:1001D00010B5064C237843B9FFF7DAFF044B13B18F
:1001E0000448AFF300800123237010BD30000020CD
:1001F000000000009C36000808B5044B1BB1044900
:100200000448AFF30080BDE80840CFE700000000DD
:10021000340000209C36000870B50F4B0F4DAB42E8
:10022000A3EB050607D0B610002455F8043B0134B3
:100230009847A642F9D803F031FA094D094B5E1BE5
:10024000AB424FEAA60606D0002455F8043B013421
:100250009847A642F9D870BDC8510008C851000897
:10026000C8510008CC510008830730B547D0541E50
:10027000002A3ED0CAB2034601E0013C39D303F85C
:10028000012B9D07F9D1032C2CD9CDB205EB052507
:100290000F2C05EB054535D9A4F1100222F00F0C07
:1002A00003F1100EE6444FEA121C1A46C2E900554B
:1002B000C2E9025510327245F8D10CF1010214F076
:1002C0000C0F03EB021204F00F0C13D0ACF104037B
:1002D00023F003030433134442F8045B9342FBD13D
:1002E0000CF003042CB1C9B21C4403F8011BA34257
:1002F000FBD130BD64461346002CF4D1F9E7034628
:100300001446C0E71A46A446E0E700BF044A536912
:1003100043F002035361034A1378013B13707047A3
:100320000004014000000020044A536943F04003E8
:100330005361034A1378013313707047000401407E
:100340000000002000B583B0154B1B78BBB1002224
:10035000134B1A7001214FF0904001F01BFF6423F2
:10036000009302230F4A60210F4802F001F90F4A5F
:10037000536943F40063536103B05DF804FB01214A
:10038000074B19700A464FF0904001F003FF6423B9
:1003900000930223064A6021034802F0E9F8E6E7E9
:1003A0004C00002008000020B400002000040140A0
:1003B0000C000020074B1B6813F0040F08D0054BFE
:1003C0001A6C92B204490A801A6842F004021A6058
:1003D000704700BF000004504E00002072B6FEE7D8
:1003E00000B597B04422002105A8FFF73DFF002388
:1003F000009301930293039304934FF4007002F06F
:100400003DFD28BB1023059301220B9200230C9382
:1004100060230D9302230F931092119228221292BF
:10042000072213921493159305A800F08FFF88B943
:100430000F23009303230193002302930393049358
:100440000421684601F0B8FA30B917B05DF804FB32
:10045000FFF7C4FFFFF7C2FFFFF7C0FF00B583B08F
:1004600000F09CFEFFF7BCFF00F0C6F800F04EF96C
:1004700000F040FD00F0BAF900F054FA00F024F961
:1004800001228021514801F085FE002205214FF014
:10049000904001F07FFE642000F0A2FE4C4D6424E9
:1004A000009402234B4A6021284602F061F820465E
:1004B00000F096FE00940223474A6021284602F08D
:1004C00057F8204600F08CFE00940223434A602136
:1004D000284602F04DF8204600F082FE0122042159
:1004E0004FF0904001F056FE204600F079FE0122C8
:1004F00011464FF0904001F04DFE40F2E13000F027
:100500004DFD00F075FC14E0354B1B78022B02D832
:10051000334B03221A70314A314B1B7853706423DA
:100520000093022360212A4802F022F80A2000F0FA
:1005300057FE002000F032FC0124009403230A221D
:100540001C21762000F0CCFB009403230A22162104
:10055000762000F0C5FB009403230A2210217620A8
:1005600000F0BEFB009403230A221146762000F01F
:10057000B7FB0094022305220721782000F0B0FB8E
:100580000521462000F0AAFA164D224629461648B3
:1005900000F0F8FA1521462000F0A0FA224629467C
:1005A000124800F0EFFA0521002000F097FA2246E9
:1005B0000F49104800F0E6FA00F0D2FB084B1B7818
:1005C0003F2BA1D9064B3F221A709DE7000400483B
:1005D000B4000020100000200C00002004000020C7
:1005E000000000201C000020B8360008C0360008BB
:1005F00014000020C8360008F0B589B00024039428
:1006000004940594069407942D4BDA6C42F0010291
:10061000DA64DA6C02F001020192019ADA6C42F0BB
:100620000202DA64DB6C03F002030293029B2246AF
:1006300040F209714FF0904001F0ACFD214D0122D4
:100640008021284601F0A6FD012214214FF09040A0
:1006500001F0A0FD40F20D73039301270497059468
:100660000326069603A94FF0904001F0AFFC10233B
:100670000393112304930594069403A94FF090402B
:1006800001F0A4FC4FF4184303930494059403A9C8
:100690004FF0904001F09AFC422303930494059498
:1006A00003A9284601F092FC802303930497059444
:1006B000069603A9284601F089FC09B0F0BD00BFE9
:1006C00000100240000400480E4B9A6842F01002ED
:1006D0009A60DA6842F48072DA6003F580631A681F
:1006E00040F642010A431A60DA680A43DA60064BB0
:1006F00080221A604FF400021A604FF480725A6030
:10070000704700BF0000014000E100E010B5324B2F
:10071000DA6C42F40052DA64D3F8882042F0405296
:10072000C3F888202D4A936823F0010393602B4B74
:100730009B6813F0010FFAD1294A936843F43013F0
:1007400093607F21274800F0B5FC244BDA6842F41F
:100750000052DA609A6942F460329A611A6B22F0B0
:100760000F021A631A6B42F470721A635A6842F0ED
:1007700004025A601C4A4FF4802111601A6842F04A
:1007800001021A609A6822F000529A60DA6842F018
:100790000042DA601A6842F001021A609A6842F078
:1007A00001029A600D4B1B6813F0010FFAD10B4C3C
:1007B000236843F001032360A36843F08053A360E0
:1007C0000A2000F00DFDA36843F00403A3600A2093
:1007D00000F006FD10BD00BF0010024000000450F4
:1007E000000304505000002000E100E008B512486A
:1007F000124B0360124B4360002383600122C260EE
:10080000036143618361C361036201F04DFE50B92E
:100810000021094802F0A5FA40B90021064802F07B
:10082000CEFA30B908BDFFF7D9FDF1E7FFF7D6FDE5
:10083000F3E7FFF7D3FDF5E7B4000020005C0040CC
:10084000E49CD1102DE9F041A0B0044600211B9199
:100850001C911D911E911F915C2204A8FFF704FDBD
:1008600022682D4B9A4202D020B0BDE8F0814FF4AF
:100870008073049304A801F01BFA002848D1274C88
:10088000E36C43F00103E364E36C03F001030193C1
:10089000019BE36C43F00203E364E36C03F00203A7
:1008A0000293029B80231B934FF01208CDF87080B7
:1008B00000251D9503271E9704261F961BA94FF0A0
:1008C000904001F083FB10231B93CDF870801D95A1
:1008D0001E971F961BA9124801F078FBA36D43F4E5
:1008E0000003A365A36D03F400030393039B2A464F
:1008F0002946482002F05EFB482002F06BFB2A46A6
:100900002946492002F056FB492002F063FBABE781
:10091000FFF764FDB3E700BF005C00400010024039
:100920000004004808B51048104B03604FF4827370
:100930004360002383604FF4E062C260036143615F
:100940004FF4007282611822C261036243628362C3
:100950000722C26203630823436302F060FC00B90C
:1009600008BDFFF73BFDFBE7080100200030014018
:1009700000B589B00023039304930593069307936E
:100980000268174B9A4202D009B05DF804FB03F5E8
:1009900060431A6E42F480521A661A6E02F4805254
:1009A0000192019ADA6C42F00202DA64DB6C03F025
:1009B00002030293029B282303930223049303233D
:1009C00006930523079303A9064801F0FFFA0022C6
:1009D0001146232002F0EEFA232002F0FBFAD3E7BF
:1009E000003001400004004800B583B08DF80700D6
:1009F00000224FF400714FF0904001F0CBFB002239
:100A00004FF480614FF0904001F0C4FB6423012259
:100A10000DF10701064802F071FC01224FF400714C
:100A20004FF0904001F0B6FB03B05DF804FB00BF4F
:100A30000801002000B583B08DF8070000224FF4B4
:100A400000714FF0904001F0A5FB01224FF480614E
:100A50004FF0904001F09EFB642301220DF107014D
:100A6000064802F04BFC01224FF400714FF0904019
:100A700001F090FB03B05DF804FB00BF080100200B
:100A80007F2825D81F2923D810B4124B1B7913B106
:100A9000B2FA82F25209012A0FD0CB0800EBC31040
:100AA0000D4C225C01F0070101238B40DB435BB25C
:100AB000134023545DF8044B7047CB0800EBC31080
:100AC000054C235C01F007018A4013432354F1E7EE
:100AD000704700BF6C01002074010020014B18809A
:100AE000598070476C0100202DE9F8439046244B53
:100AF0001B880A7813447F2B3EDC81460D46204B31
:100B00005B884A7813441F2B38DC002620E01C4BFE
:100B10001888598831442044B8FA88F2520989B2B9
:100B200080B2FFF7ADFF01342B78A3420FD907FA4B
:100B300004F313F4004FEAD0114B1888598831445C
:100B40002044424689B280B2FFF79AFFEBE70136B4
:100B50006A78B24208D96968A9F1200302FB0363ED
:100B600031F813700024DFE7054A138829780B4415
:100B700013804846BDE8F8830020FBE70020F9E732
:100B80006C01002070B504460E46154600E00134A5
:100B9000207838B12A463146FFF7A6FF0346207871
:100BA0008342F4D070BD2DE9F04F83B004460E4669
:100BB000174699469DF830807F2800D97F247F2FE3
:100BC00000D97F271F2E00D91F26B9F11F0F01D989
:100BD0004FF01F09BC421FD2A7EB040A0FFA8AFA92
:100BE0004E451ED2A9EB060B0FFA8BFBBC421DD261
:100BF00001224E451DD20121DA451DDD0AEBDA75D1
:100C00006D10BAF1000F1DD0BBF1000F33D0009270
:100C1000CDF80490894651E0A4EB070A0FFA8AFA4E
:100C2000DEE7A6EB090B0FFA8BFBDFE74FF0FF3295
:100C3000DFE74FF0FF31DFE70BEBDB756D106D4247
:100C40002DB2DEE74E4502D84B46B1461E46BC42A9
:100C500000D827460FFA89F90AE01FFA89F94246B7
:100C600049463846FFF70CFF09F101090FFA89F9E7
:100C7000B145F2DD17E04E4500D8B146BC4202D87E
:100C80003B4627461C463FB207E0BFB242464946B4
:100C90003846FFF7F5FE01373FB2A742F5DD02E027
:100CA000019B9E4211D103B0BDE8F08F2B465D45FC
:100CB00003DA53441BB24E44B6B21D464246314697
:100CC0002046FFF7DDFEBC42EAD0CAF100039D4298
:100CD000ECDDA5EB0B031BB2009A1444A4B2E6E7CB
:100CE0002DE9F04383B09DF828907F2823D805464E
:100CF0000F4690461E461F291DD883187F2B03DD03
:100D0000C0F180081FFA88F8BB191F2B02DDC7F15C
:100D10002006B6B200240CE0E11989B208EB050206
:100D2000CDF800900B4692B22846FFF73CFF013405
:100D3000E4B2B442F0D903B0BDE8F08308B540F0A6
:100D4000B000FFF751FE08BD10B50446000940F0A1
:100D50001000FFF749FE04F00F00FFF745FE10BD3D
:100D600038B500250CE004EBC5130B4AD05CFFF747
:100D700061FE0134E4B214F0800FF4D00135EDB21D
:100D8000032D07D82846FFF7D9FF0020FFF7DCFF27
:100D90000024F0E738BD00BF7401002038B50146DB
:100DA00000B1FF21002303E0104AD15401339BB26C
:100DB000B3F5007FF8D300250CE004EBC5130B4A14
:100DC000D05CFFF737FE0134E4B214F0800FF4D0AA
:100DD0000135EDB2032D07D82846FFF7AFFF0020FD
:100DE000FFF7B2FF0024F0E738BD00BF7401002018
:100DF00008B500224FF400714FF0904001F0CAF99D
:100E000001224FF480714FF0904001F0C3F914209B
:100E100000F0E6F900224FF480714FF0904001F0AD
:100E2000B9F9142000F0DCF901224FF480714FF081
:100E3000904001F0AFF9142000F0D2F901221146E0
:100E40004FF0904001F0A6F9642000F0C9F9AE20FF
:100E5000FFF7CAFDD520FFF7C7FDF020FFF7C4FD5F
:100E6000A820FFF7C1FD1F20FFF7BEFDD320FFF72D
:100E7000BBFD0020FFF7B8FD8D20FFF7B5FD142066
:100E8000FFF7B2FD4020FFF7AFFDA620FFF7ACFD56
:100E9000A420FFF7A9FDA120FFF7A6FDC820FFF7BA
:100EA000A3FDDA20FFF7A0FD4220FFF79DFD812082
:100EB000FFF79AFD8020FFF797FDD920FFF794FDFB
:100EC000F120FFF791FDDB20FFF78EFD4020FFF7BB
:100ED0008BFDAF20FFF788FD0120FFF75FFFFFF7D5
:100EE0003FFF034B00221A805A8001225A7108BD2D
:100EF0006C01002010B582B04FF090431A6842F4A4
:100F000040621A605A6822F020025A60214A936DAA
:100F100043F000539365204B1A6822F480321A6024
:100F20001A6822F080421A60DA6B42F40032DA6307
:100F30004FF4FA725A641A6842F080421A60002331
:100F40008DF8073005E09DF807300133DBB28DF8EE
:100F500007309DF80730DBB21E2B0DD89DF8072017
:100F60000D4CA36B43EA0243A363052000F038F95C
:100F7000636B13F0804FE6D0074B1A6822F0804273
:100F80001A601A6842F480321A6000225A6102B074
:100F900010BD00BF0010024000740040014B5861BA
:100FA000704700BF00740040FEE7FEE7FEE7FEE783
:100FB000FEE770477047704708B500F0FFF808BDBE
:100FC00008B5024802F09AFA08BD00BF08010020E7
:100FD00008B5024801F09EFB08BD00BFB400002028
:100FE00008B5024801F07BFE08BD00BFB400002038
:100FF00082B00A4B1A6E42F001021A661A6E02F0B3
:1010000001020092009A9A6D42F080529A659B6D9F
:1010100003F080530193019B02B07047001002401F
:1010200038B504460268936813F0020300D0012328
:10103000916811F0010F39D0002B39D1936803F07A
:101040000D03012B09D0636D43F010036365A36D9D
:1010500043F00103A365012029E0936823F00043D6
:1010600023F03F0343F002039360236803221A60D6
:1010700000F0B0F8054623689B6813F0010F13D009
:1010800000F0A8F8401B0228F5D923689B6813F0EC
:10109000010FF0D0636D43F010036365A36D43F05F
:1010A0000103A365012002E0002000E0002038BD1C
:1010B0000020FCE730B583B00023019390F8503056
:1010C000012B41D004460D46012380F85030FFF734
:1010D000A7FF80BB636D23F4885323F0020343F022
:1010E000020363652268936823F0404323F03F03C3
:1010F00005F080452B4343F00043936023689B68D1
:10110000002B06DB636D23F0030343F001036365EB
:1011100015E0019B01330193019BB3F5912FEDD3B2
:10112000636D23F0120343F010036365002384F81A
:101130005030012006E0636D43F010036365002327
:1011400084F8503003B030BD0220FBE7104B1B7811
:101150000BB90120704710B504464FF47A70B0FB0C
:10116000F3F30C4A1068B0FBF3F001F037FF68B9F5
:101170000F2C01D901200AE0002221464FF0FF3058
:1011800001F018FF044B1C60002000E0012010BD9E
:10119000240000202C0000202800002010B503208F
:1011A00001F0F6FE0F20FFF7D1FF10B10124204619
:1011B00010BD0446FFF71CFFF9E70000034B1B7846
:1011C000034A11680B441360704700BF24000020DD
:1011D00074030020014B1868704700BF740300209F
:1011E00038B50446FFF7F6FF0546B4F1FF3F02D0DD
:1011F000044B1B781C44FFF7EDFF401BA042FAD3C1
:1012000038BD00BF2400002030B583B00446204B19
:101210009B6D13F0805F0BD001F028FEB0F5007FCE
:1012200017D0802C1FD82DD0702C2DD000211BE082
:10123000174DAB6D43F08053AB65AB6D03F080533E
:101240000193019B01F012FEAB6D23F08053AB655F
:10125000E4E7802C03D9A02C03D9022104E000216B
:1012600002E0012100E003210A4A136823F007038A
:101270000B431360136803F007038B4206D1002071
:1012800003B030BD0221EFE70121EDE70120F7E7D0
:101290000010024000200240284A9368D26802F001
:1012A000030213F00C030AD00C2B06D0042B1FD022
:1012B000082B20D00020024610E0012AF6D11F4A58
:1012C000126812F0080F0CD11C4AD2F89420C2F315
:1012D00003221B4951F8222043B100200C2B0DD0D2
:1012E0007047164A1268C2F30312F2E71046F5E798
:1012F00014480022F2E714480022EFE70F4BDB68A6
:1013000003F00303022B03D0032B02D10E4A00E0AB
:101310000C4A0A49CB68C3F302130133C868C0F30F
:10132000062002FB00F0B0FBF3F0CB68C3F341638F
:1013300001335B00B0FBF3F0D2E700BF00100240C6
:10134000885100080024F40000127A00002800F000
:101350001C83F0B583B00446964B9D6805F00C05E0
:10136000DE6806F00306036813F0100F5AD0E5B1EB
:101370000C2D18D0A369002B00F0BB808D4A136898
:1013800043F001031360FFF725FF0746894B1B68F5
:1013900013F0020F40F09A80FFF71CFFC01B0228D9
:1013A000F4D90320FCE2012EE4D1824B1B6813F038
:1013B000020F03D0A369002B00F0E982206A7D4B65
:1013C0001B6813F0080F5BD07A4B1B6803F0F00327
:1013D00098425CD8774B1A6842F008021A601A6883
:1013E00022F0F002216A0A431A605A6822F47F420E
:1013F000E16942EA01225A60002D60D0FFF74CFFFC
:101400006C4B9B68C3F303136B4AD35C03F01F035D
:10141000D8406A4B18606A4B1868FFF797FE00289F
:1014200040F0BE82236813F0010F00F08180082D88
:1014300075D00C2D71D06368B3F5803F00F09780B4
:10144000B3F5A02F00F099805A4B1A6822F480322D
:101450001A601A6822F480221A606368002B00F078
:101460009980FFF7B7FE0746524B1B6813F4003F05
:101470005ED1FFF7AFFEC01B6428F5D903208FE2D1
:101480004C4BD3F894301B0903F0F003A0E7FFF7AF
:10149000BBFE002840F07D82464B1A6842F00802ED
:1014A0001A601A6822F0F002216A0A431A605A6828
:1014B00022F47F42E16942EA01225A609EE7206AF3
:1014C000FFF7A2FE002899D0012069E2394B1A6883
:1014D00042F008021A601A6822F0F002216A0A43F8
:1014E0001A605A6822F47F42E16942EA01225A6096
:1014F00098E7304A136823F001031360FFF76AFE90
:1015000007462C4B1B6813F0020F8BD0FFF762FECF
:10151000C01B0228F5D9032042E2032E8BD1254BB4
:101520001B6813F4003F03D06368002B00F0338284
:10153000236813F0020F58D0042D45D00C2D41D054
:10154000E368002B77D01B4A136843F48073136061
:10155000FFF740FE0646174B1B6813F4806F61D1FE
:10156000FFF738FE801B0228F5D9032018E2114A44
:10157000136843F4803313606FE703F18043A3F5EE
:101580003C331A6842F480221A601A6842F48032AE
:101590001A6062E7FFF71EFE0746064B1B6813F44E
:1015A000003FC5D0FFF716FEC01B6428F5D9032005
:1015B000F6E100BF00100240B85100082C000020E6
:1015C00028000020022EBBD1A44B1B6813F4806FAF
:1015D00003D0E368002B00F0E081A04A536823F0B9
:1015E000F853216943EA01635360236813F0080F3D
:1015F0004CD063699BB3994AD2F8943043F001030D
:10160000C2F89430FFF7E6FD0646944BD3F89430C9
:1016100013F0020F3AD1FFF7DDFD801B0228F4D949
:101620000320BDE18D4A536823F0F853216943EA52
:1016300001635360D9E7894A136823F48073136008
:10164000FFF7C8FD0646854B1B6813F4806FCCD0AE
:10165000FFF7C0FD801B0228F5D90320A0E17F4AD7
:10166000D2F8943023F00103C2F89430FFF7B2FDB2
:1016700006467A4BD3F8943013F0020F06D0FFF7EA
:10168000A9FD801B0228F4D9032089E1236813F007
:10169000040F7AD0714B9B6D13F0805F36D16F4B86
:1016A0009A6D42F080529A659B6D03F080530193CE
:1016B000019B01266A4B1B6813F4807F28D0A36826
:1016C000012B39D0052B3FD0644BD3F8902022F06A
:1016D0000102C3F89020D3F8902022F00402C3F84E
:1016E0009020A368002B3DD0FFF774FD07465B4BAD
:1016F000D3F8903013F0020F46D1FFF76BFDC01BFB
:1017000041F288339842F2D9032049E10026D1E71B
:10171000534A136843F480731360FFF75BFD074679
:101720004F4B1B6813F4807FC9D1FFF753FDC01BDB
:101730000228F5D9032033E1484AD2F8903043F02B
:101740000103C2F89030CCE7444BD3F8902042F02C
:101750000402C3F89020D3F8902042F00102C3F8AD
:101760009020BEE7FFF736FD07463C4BD3F890309C
:1017700013F0020F08D0FFF72DFDC01B41F2883394
:101780009842F2D903200BE1E6B9236813F0200F49
:1017900035D0636AE3B1314AD2F8983043F001039F
:1017A000C2F89830FFF716FD06462C4BD3F8983058
:1017B00013F0020F23D1FFF70DFD801B0228F4D98F
:1017C0000320EDE0254A936D23F080539365DCE719
:1017D000224AD2F8983023F00103C2F89830FFF77C
:1017E000F9FC06461D4BD3F8983013F0020F06D0D3
:1017F000FFF7F0FC801B0228F4D90320D0E0A36A95
:10180000002B00F0CC80022B17D00C2D00F0CC80E8
:10181000124A136823F080731360FFF7DBFC044661
:101820000E4B1B6813F0007F00F0A880FFF7D2FC7E
:10183000001B0228F4D90320B2E0084BDB6803F058
:101840000301E26A91420DD00C2D00F0AB80034BF6
:101850001B6813F0806F2FD00120A1E00010024020
:101860000070004003F07002216B0139B2EB011FE0
:10187000EAD103F4FE42616BB2EB012FE4D103F035
:101880007842A16BB2EBC16FDED103F4C001E26B11
:101890005208013AB1EB425FD6D103F0C063226C2B
:1018A0005208013AB3EB426FCED1404B1B6813F0A4
:1018B000007F49D0002073E03C4A136823F0807316
:1018C0001360FFF787FC0546384B1B6813F0007F59
:1018D00006D0FFF77FFC401B0228F5D903205FE00C
:1018E000324AD36832491940E36A206B013843EA2F
:1018F0000013606B43EA0023E06B4008013843EAC1
:101900004053206C4008013843EA4063A06B43EA2F
:10191000C0631943D160136843F080731360D368C8
:1019200043F08073D360FFF755FC04461F4B1B68E0
:1019300013F0007F06D1FFF74DFC001B0228F5D9FC
:1019400003202DE000202BE0184B1A6842F0807233
:101950001A60DA6842F08072DA60FFF73BFC0446F6
:10196000124B1B6813F0007F06D1FFF733FC031BFB
:10197000022BF5D9032013E0002011E00B4AD168B7
:101980000C4B0B40D36000200AE00120704701207F
:1019900006E0012004E0012002E0012000E0002038
:1019A00003B0F0BD0120FBE70120F9E70010024081
:1019B0008C809D01FCFFEEFE002800F0AF8070B52A
:1019C0000D460446594B1B6803F007038B420BD2AC
:1019D000564A136823F007030B431360136803F0A0
:1019E00007038B4240F09C80236813F0020F0CD059
:1019F000A2684F4B9B6803F0F0039A4205D94C490B
:101A00008B6823F0F0031A438A60236813F0010FF8
:101A100039D06368032B09D0022B26D063BB444A1C
:101A2000126812F0020F06D1012076E0404A1268D7
:101A300012F0007F76D03E498A6822F003021343F9
:101A40008B60FFF7C7FB0646394B9B6803F00C031E
:101A50006268B3EB820F16D0FFF7BCFB801B41F22C
:101A600088339842F0D9032057E0314A126812F4C3
:101A7000003FE0D1012050E02D4A126812F4806F3F
:101A8000D9D1012049E0236813F0020F0CD0A268DD
:101A9000274B9B6803F0F0039A4205D224498B68D8
:101AA00023F0F0031A438A60204B1B6803F00703FE
:101AB000AB420AD91D4A136823F007032B43136076
:101AC000136803F00703AB422ED1236813F0040F11
:101AD00006D0174A936823F4E063E1680B439360F0
:101AE000236813F0080F07D0114A936823F460535A
:101AF000216943EAC1039360FFF7CEFB0C4B9B685F
:101B0000C3F303130B4AD35C03F01F03D8400A4B03
:101B100018600A4B1868FFF719FB70BD0120704769
:101B20000120FAE70120F8E70120F6E70020024053
:101B300000100240B85100082C00002028000020AE
:101B4000F8B504460D46594BDB6813F0030F18D067
:101B5000564BDB6803F003030268934202D0012670
:101B60003046F8BD002A00F09C80504BDB68C3F380
:101B7000021301334268934201D00126F0E70026A8
:101B800019E00368022B55D0032B5AD0012B40F0EB
:101B90008A80464A126812F0020F5ED04348C2683B
:101BA00022F073026168013943EA01131343C360F1
:101BB0000026002ED4D13D4A136823F080631360C1
:101BC000FFF708FB0746394B1B6813F0006F05D081
:101BD000FFF700FBC31B022BF5D90326002EBFD154
:101BE000002D3CD131490B6923F0784323F4FE43A7
:101BF000A068E268D20642EA002213430B612B4A36
:101C0000136843F080631360FFF7E4FA0546274B3F
:101C10001B6813F0006F05D1FFF7DCFA401B0228A8
:101C2000F5D90326002E9BD1204A1369A1690B43E5
:101C3000136195E71D4A126812F4806FAED1012638
:101C40008EE71A4A126812F4003FA7D1174A1268A9
:101C500012F4802FA2D1012682E70126A9E7012DE7
:101C60000FD01248026922F0C06222F4FE42A1683D
:101C700063695B08013B5B0643EA01231A43026187
:101C8000BDE70A48026922F4C00222F4FE42A168BC
:101C900023695B08013B5B0543EA01231A430261A8
:101CA000ADE701265CE701265AE700BF00100240BD
:101CB0002DE9F04182B00446036813F4006F26D08A
:101CC000436CB3F5000F06D0B3F5400F1DD09BB1A8
:101CD000012637461DE0B34AD36843F48033D3600E
:101CE0000027B04AD2F8883023F44003616C0B43DC
:101CF000C2F8883000260CE000210430FFF720FFF6
:101D000007460028EDD0064603E00027E9E7002655
:101D10003746236813F4003F6BD0A24B9B6D13F042
:101D2000805F4CD19F4B9A6D42F080529A659B6DBB
:101D300003F080530193019B4FF001089A4A136806
:101D400043F480731360FFF745FA0546964B1B6812
:101D500013F4807F05D1FFF73DFA401B0228F5D927
:101D60000327002F40D18F4BD3F8903013F44073EA
:101D700015D0A26D9A4212D08A4AD2F8903023F43C
:101D80004073D2F8901041F48031C2F89010D2F82C
:101D9000901021F48031C2F89010C2F8903013F006
:101DA000010F0FD1002F40F0E3807E4AD2F890302F
:101DB00023F44073A16D0B43C2F8903015E04FF04F
:101DC0000008BBE7FFF706FA0546764BD3F89030DC
:101DD00013F0020FE6D1FFF7FDF9401B41F2883303
:101DE0009842F2D90327DDE73E46B8F1000F40F0F4
:101DF000C180236813F0010F08D06A4AD2F88830F6
:101E000023F00303216A0B43C2F88830236813F0E0
:101E1000020F08D0634AD2F8883023F00C03616ABD
:101E20000B43C2F88830236813F0040F08D05D4AD2
:101E3000D2F8883023F03003A16A0B43C2F888300F
:101E4000236813F0200F08D0564AD2F8883023F4C4
:101E50004063E16A0B43C2F88830236813F4007FC3
:101E600008D0504AD2F8883023F44023E16B0B436A
:101E7000C2F88830236813F4806F08D0494AD2F83A
:101E8000883023F44013216C0B43C2F88830236858
:101E900013F0400F08D0434AD2F8883023F440535F
:101EA000216B0B43C2F88830236813F0800F08D0F1
:101EB0003C4AD2F8883023F44043616B0B43C2F8AC
:101EC0008830236813F4807F08D0364AD2F88830EF
:101ED00023F44033A16B0B43C2F88830236813F41A
:101EE000002F0FD02F4AD2F8883023F04063A16C26
:101EF0000B43C2F88830A36CB3F1006F40D0B3F14C
:101F0000806F42D0236813F4802F0FD0254AD2F877
:101F1000883023F04063E16C0B43C2F88830E36CF7
:101F2000B3F1006F39D0B3F1806F3FD0236813F461
:101F3000804F0CD01B4AD2F8883023F04053216DDB
:101F40000B43C2F88830236DB3F1805F36D023682D
:101F500013F4004F08D0134AD2F8883023F080439E
:101F6000616D0B43C2F88830304602B0BDE8F081A5
:101F70003E463AE70B4A936D23F08053936538E76A
:101F8000D36843F48013D360BCE70121201DFFF721
:101F9000D7FD0028B6D00646B4E7D36843F48013D3
:101FA000D360C3E700100240007000400121201DF3
:101FB000FFF7C6FD0028B9D00646B7E70221201D6D
:101FC000FFF7BEFD0028C2D00646C0E7F0B583B0DB
:101FD000002362E085685E000324B44025EA04051E
:101FE000CC68B4402C438460456825EA0C054C68F5
:101FF000C4F300149C402C4344605FE0DD080835C6
:1020000050F8254003F0070C4FEA8C0C4FF00F0EF0
:102010000EFA0CFE24EA0E0E0C6904FA0CF444EAE3
:102020000E0440F8254060E0042400E0002404FA97
:102030000EF42C430CF1020C524D45F82C40524C3E
:10204000A568D44325EA02064F6817F4801F01D023
:1020500042EA05064C4DAE60ED6804EA05064F689D
:1020600017F4001F01D042EA0506474DEE606D6887
:1020700004EA05064F6817F4003F01D042EA05065E
:10208000414D6E602D682C404E6816F4803F01D0A3
:1020900042EA05043C4A146001330A6832FA03F448
:1020A0006ED04FF0010C0CFA03FC1CEA0202F3D0D4
:1020B0004C6804F00304013C012C8BD94C6804F0FB
:1020C0000304032C0CD0C4685D004FF0030C0CFA21
:1020D00005FC24EA0C0C8C68AC4044EA0C04C46097
:1020E0004C6804F00304022C88D004684FEA430EC5
:1020F0004FF0030C0CFA0EFC24EA0C0C4C6804F0B4
:10210000030404FA0EF444EA0C0404604C6814F46A
:10211000403FC1D01D4C256E45F001052566246E5B
:1021200004F001040194019C4FEA930C0CF10205A8
:10213000144C54F8255003F0030E4FEA8E0E0F2472
:1021400004FA0EF425EA0405B0F1904F3FF46EAFA7
:102150000F4CA0420ED004F58064A0420CD004F5D0
:102160008064A0420AD004F58064A0423FF45CAFD2
:1021700007245CE701245AE7022458E7032456E7C2
:1021800003B0F0BD00000140000401400010024017
:10219000000400480AB1816170478162704703689A
:1021A0009A6912F0020F01D000229A6203689A69BC
:1021B00012F0010F03D19A6942F001029A6170474F
:1021C00010B4019CC1F3090141EA024119432143C2
:1021D00021F0004102685368640D04F4806444F007
:1021E0007F7444F4583444F47F7444F0030423EAC5
:1021F00004030B4353605DF8044B704711F0010F6B
:1022000009D090F8413003F02803282B01D0F223A5
:1022100002E0422300E0002311F0020F09D043F056
:10222000440C90F8412002F02802282A10D043F0F4
:10223000F40311F4004F0DD110290ED020290FD036
:10224000402910D001680A6822EA03030B60704736
:102250006346EEE743F0B803EEE743F09003EDE7A3
:1022600043F02003ECE743F04003EBE72DE9F041B6
:10227000044603689E6916F010067CD00D46904611
:102280001022DA61002637462368986910F0200F83
:1022900030D17FBBB5F1FF3FF6D0FEF79BFFA0EB3F
:1022A0000800A84201D8002DEED121684B6803F444
:1022B000804394F84220D2B2886910F4004F02D0D3
:1022C0000BB9202A0ED123689B6913F0200FDBD1B4
:1022D000FEF780FFA0EB08001928F4D946F020068D
:1022E0000127D1E74B6843F480434B60FEF772FF50
:1022F0008046E8E70FB92022DA6146F0040601259E
:102300002268936913F4807F05D046F001064FF4EC
:102310008071D161012513F4806F06D046F0080664
:1023200022684FF48061D161012513F4007F24D02D
:1023300046F0020623684FF40072DA610125204658
:10234000FFF72DFF2268536823F0FF7323F48B33CC
:1023500023F4FF7323F001035360636C334363641E
:10236000202384F84130002384F8423084F8403040
:102370002846BDE8F0810025C2E7002DF8D0DEE751
:1023800070B504460D46164623689B6913F0020F8C
:1023900022D1324629462046FFF768FFF0B9B5F151
:1023A000FF3FF1D0FEF716FF801BA84201D8002D99
:1023B000EAD123689B6913F0020FE5D1636C43F007
:1023C00020036364202384F84130002384F84230E2
:1023D00084F84030012000E0002070BD0120FCE7BF
:1023E0002DE9F04105460F46164698462C68A4692B
:1023F00037EA04040CBF01240024B44222D1B8F10E
:10240000FF3FF3D0FEF7E6FE069BC01A404502D818
:10241000B8F1000FEAD12B689B6937EA03030CBFC0
:1024200001230023B342E1D16B6C43F020036B64C2
:10243000202385F84130002385F8423085F840306C
:10244000012000E00020BDE8F08170B504460D4693
:10245000164604E023689B6913F0200F12D023680E
:102460009B6913F0200F1BD1324629462046FFF707
:10247000FDFEB8B9FEF7AEFE801BA842EAD8002DDB
:10248000EDD1E7E7636C43F020036364202384F815
:102490004130002384F8423084F84030012000E0CD
:1024A000002070BD0120FCE700285FD010B5044675
:1024B00090F84130002B48D0242384F84130226822
:1024C000136823F0010313606368226823F07063CC
:1024D00013612268936823F400439360E368012B3F
:1024E00038D0A368226843F404439360E368022B66
:1024F00036D02268536823F400635360226853681F
:1025000043F0007343F4004353602268D36823F41C
:102510000043D360236962691343A169226843EAD7
:102520000123D360E369216A22680B4313602268A8
:10253000136843F00103136000206064202384F8D3
:102540004130206384F8420010BD80F84030FEF72F
:1025500079F9B1E7A368226843F400439360C5E7C3
:102560002268536843F400635360C7E70120704753
:102570002DE9F04782B00F460A9E90F84110C9B28B
:10258000202940F0B78004469046994690F84030A4
:10259000012B00F0B3804FF0010A80F840A0FEF755
:1025A00019FE05460090192352464FF4004120467B
:1025B000FFF716FF002840F0A380212384F8413064
:1025C000102384F8423000236364C4F82480A4F804
:1025D0002A906363638D9BB2FF2B1ED9FF23238553
:1025E0004FF08073228DEAB1226898F80010916252
:1025F000626A01326262628D92B2013A92B262857F
:10260000228D013A92B22285013241490091D2B223
:1026100039462046FFF7D4FD18E0638D23854FF03F
:102620000073DFE73A490091D2B239462046FFF7FE
:10263000C7FD0BE0628D92B22285002300934FF01C
:102640000073D2B239462046FFF7BAFD638D9BB2C4
:10265000002B33D02A4631462046FFF791FE002852
:1026600050D1626A236812789A62636A01336362A6
:10267000638D9BB2013B9BB26385238D013B9BB273
:102680002385628D92B2002AE0D0002BDED1009526
:102690003346002280212046FFF7A2FEA0BB638DB7
:1026A0009BB2FF2BC6D9FF222285002300934FF057
:1026B000807339462046FFF783FDC7E72A46314637
:1026C0002046FFF7C2FE08BB23682022DA6121689A
:1026D0004B6823F0FF7323F48B3323F4FF7323F051
:1026E00001034B6084F84120002384F8423084F8D1
:1026F000403000E0022002B0BDE8F0870220FAE797
:102700000120F8E70120F6E70120F4E70120F2E7D5
:102710000020008008B5036899691A68436B03B10B
:10272000984708BD7047704710B5044603681A689B
:10273000002180F8421012F4804F0ED01A6822F463
:1027400080421A6094F84130DBB2292B0DD094F806
:102750004130DBB22A2B18D010BD12F4004FF1D05B
:102760001A6822F400421A60ECE7282384F841300A
:102770002123236301212046FFF740FD002384F835
:1027800040302046FFF7CEFFE6E7282384F84130AB
:102790002223236302212046FFF730FD002384F823
:1027A00040302046FFF7BFFFD6E77047F8B5044634
:1027B00090F8413003F02803282B06D00368082244
:1027C000DA61002380F84030F8BD03689E69C6F3E3
:1027D00000469A69120C02F0FE059A68C2F30902DB
:1027E000DF6807F0FE07C168022922D185EAD21509
:1027F00015F0060F10D1816C01318164816C0229C2
:10280000E2D1002181640820D86184F8401031466B
:102810002046FFF7CAFFD7E74FF40041FFF7EEFC71
:10282000002384F840303A4631462046FFF7BDFF8A
:10283000CAE74FF40041FFF7E1FC002384F8403081
:102840002A4631462046FFF7B0FFBDE7704700003B
:1028500010B50446174BC36200230363202280F89F
:10286000412080F84230436311F0040F13D0036815
:102870005A6A436A1A70436A01334362038D53B143
:10288000013B0385438D9BB2013B9BB24385436C67
:1028900043F00403436448F203012046FFF7AEFC13
:1028A00023681022DA61002384F840302046FFF7C5
:1028B000CDFF10BD0000FFFF7047704708B590F8CE
:1028C0004130DBB2602B06D00023036380F8403038
:1028D000FFF7F2FF08BD202380F841300023036397
:1028E00080F84030FFF7E9FFF4E7000010B5044638
:1028F00090F84130002280F842204548E06262852D
:10290000626C0A436264283BDBB2022B19D80321B4
:102910002046FFF773FC282384F841303D4B636366
:10292000236BA26B1AB1112B30D0212B2ED0E26B6E
:102930001AB1122B4BD0222B49D02046FFF7BEFFF5
:1029400010BD48F203012046FFF758FC2046FFF770
:1029500026FC94F84130DBB2602B14D0202384F89D
:10296000413023689A6912F0200F0CD09A6912F056
:10297000100F05D01022DA61636C43F00403636426
:1029800023682022DA6100236363C9E723681A6899
:1029900012F4804F03D01A6822F480421A60A06BB0
:1029A00000F061FA01280ED0A36B1B4A9A63002342
:1029B00084F84030A06B00F02EFA0028C0D0A06B45
:1029C000836B9847BCE72046FFF778FFB8E723689A
:1029D0001A6812F4004F03D01A6822F400421A60F9
:1029E000E06B00F040FA01280ED0E36B0A4A9A63CC
:1029F000002384F84030E06B00F00DFA00289FD0EF
:102A0000E06B836B98479BE72046FFF757FF97E7FC
:102A10000000FFFF912B0008492D000870B5044607
:102A20000D460268166890F841302021D161213BA3
:102A3000092B0CD8DFE803F005630B0B0B0B0B6ABB
:102A4000056348F20101FFF7D9FB212323632268C4
:102A5000536843F4004353602268536823F0FF73C4
:102A600023F48B3323F4FF7323F0010353602046D8
:102A7000FFF795FB16F4804F4FD02268136823F4BC
:102A800080431360A36B1BB11B685B689BB26385BB
:102A900015F0040F11D025F0040523685A6A636A03
:102AA0001A70636A01336362238D33B1013B23855E
:102AB000638D9BB2013B9BB26385638D9BB21BB15F
:102AC000636C43F004036364002384F8423063635F
:102AD000636C002B31D1E36A13F5803F3BD194F84E
:102AE0004130DBB2222B46D0202384F84130002332
:102AF000236384F840302046FFF714FE3AE048F2A2
:102B00000201FFF77BFB22232363A0E748F20301C6
:102B1000FFF774FB0023236399E716F4004FB7D047
:102B20002268136823F400431360E36B002BAFD0DB
:102B30001B685B689BB26385AAE7616C2046FFF760
:102B4000D5FE94F84130DBB2282B13D1294620461C
:102B5000FFF77EFE0EE02046FFF7E6FD0B4BE3623B
:102B6000202384F841300023236384F8403020463A
:102B7000FFF76CFE70BD202384F8413000232363EF
:102B800084F840302046FFF7CEFDF3E70000FFFF5A
:102B9000F8B5C76A90F84030012B00F09E800446DB
:102BA0000D461646012380F8403011F0200F02D068
:102BB00012F0200F19D115F0100F3ED016F0100FA3
:102BC0003BD0638D9BB243BB94F84130DBB2282BE2
:102BD0000ED094F84130DBB2292B11D0236810229B
:102BE000DA61002084F84000F8BDFFF717FFE2E744
:102BF000B7F1007FEDD129462046FFF729FEF0E727
:102C000017F5803FEAD023681022DA612046FFF7EB
:102C1000C6FA2046FFF788FDE3E723681022DA6151
:102C2000636C43F00403636417B1B7F1807FD8D1BC
:102C3000616C2046FFF75AFED3E715F0040F1FD052
:102C400016F0040F1CD0638D9BB273B123685A6ACF
:102C5000636A1A70636A01336362238D013B2385C3
:102C6000638D9BB2013B9BB26385638D9BB2002B4E
:102C7000B7D117F5803FB4D02046FFF755FDB0E738
:102C800015F0080F02D016F0080F18D115F0020F3A
:102C9000A7D016F0020FA4D0638D9BB2A3B1626AD5
:102CA000236812789A62636A01336362638D9BB210
:102CB000013B9BB26385238D013B238591E7294628
:102CC0002046FFF773FD8CE7B7F1807F01D0002F1E
:102CD00087D12046FFF728FD83E7022084E710B55F
:102CE00002689369116813F4807F09D011F0800F96
:102CF00006D0446C44F0010444644FF48074D46101
:102D000013F4806F0AD011F0800F07D0426C42F0AC
:102D10000802426402684FF48064D46113F4007FB7
:102D20000AD011F0800F07D0436C43F002034364D4
:102D300003684FF40072DA61416C11F00B0F00D19F
:102D400010BDFFF7D3FDFBE708B5806A836B0BB1BD
:102D500000229A63C36B0BB100229A63FFF7AEFDAA
:102D600008BD034690F84120D2B2202A23D190F822
:102D70004020012A21D0012280F84020242280F81E
:102D800041200068026822F00102026018680268AF
:102D900022F48052026018680268114301601968C9
:102DA0000A6842F001020A60202283F841200020D4
:102DB00083F84000704702207047022070470346A6
:102DC00090F84120D2B2202A21D190F84020012A47
:102DD0001FD0012280F84020242280F84120006882
:102DE000026822F0010202601868026822F4706230
:102DF00042EA0122026019680A6842F001020A6090
:102E0000202283F84120002083F8400070470220F0
:102E100070470220704708B590F82530DBB2022BCE
:102E200003D00423C363012008BD0268136823F0A4
:102E30000E0313600268136823F001031360436CF0
:102E400003F01C03016C012202FA03F34B6080F8CB
:102E50002520002380F82430836B13B1984700208D
:102E6000E2E70020E0E790F825007047024B186881
:102E700000F4C060704700BF00700040B0F5007FF4
:102E80000FD01F4B1B6803F4C063B3F5806F34D0C1
:102E90001B4A136823F4C06343F48063136000206B
:102EA0007047174B1B6803F4C063B3F5007F20D055
:102EB000134A136823F4C06343F400731360114B87
:102EC0001B68322202FB03F30F4AA2FB03239B0C75
:102ED000013300E0013B0A4A526912F4806F01D0CD
:102EE000002BF7D1064B5B6913F4806F03D10020F0
:102EF000704700207047032070470020704700BFD4
:102F0000007000402C00002083DE1B43002807DBFC
:102F100000F01F02400901239340024A42F820308A
:102F2000704700BF00E100E0002808DB0901C9B2DA
:102F300000F1604000F5614080F80013704700F038
:102F40000F000901C9B2014B1954704714ED00E09C
:102F500000B500F00700C0F1070CBCF1040F28BF5A
:102F60004FF0040C031D062B0FD9C31E4FF0FF3E7C
:102F70000EFA0CF021EA000199400EFA03FE22EA53
:102F80000E0241EA02005DF804FB0023EEE70000B8
:102F9000074AD36823F4E0631B041B0C000200F40F
:102FA000E060034343F0BF6343F40033D3607047F2
:102FB00000ED00E010B50446054BD868C0F30220D0
:102FC000FFF7C6FF01462046FFF7AEFF10BD00BF6A
:102FD00000ED00E008B5FFF799FF08BD0138B0F13A
:102FE000807F0BD24FF0E0235861054AF02182F830
:102FF00023100020986107221A6170470120704752
:1030000000ED00E02DE9F04782B0054688461746FE
:103010001E46FEF7DFF80A9B1B1A03EB0609FEF7B4
:10302000D9F88246284B1B68C3F3CB3309FB03F363
:1030300001932B689C6838EA04040CBF0123002329
:10304000BB423DD0B6F1FF3FF3D0FEF7C3F8A0EB93
:103050000A00484507D2019A02B14A46019B013B4A
:1030600001939146E5E72A68536823F0E003536033
:103070006B68B3F5827F0BD0AB6AB3F5005F14D0F9
:10308000012385F85D30002385F85C30032018E0CB
:10309000AB68B3F5004F02D0B3F5806FECD12A686E
:1030A000136823F040031360E6E72A68136823F4EB
:1030B000005313602A68136843F400531360DFE77A
:1030C000002002B0BDE8F0872C0000202DE9F04779
:1030D00082B006460C4615461F4600238DF8033085
:1030E000FEF778F80A9B1B1A03EB0708FEF772F845
:1030F0008146D6F800A0304B1B6803EB8303C3EB7B
:10310000C3031B0D08FB03F3019302E0B7F1FF3F7C
:1031100012D133689B6803EA040CAC4547D0B4F580
:10312000C06FF3D1002DF1D19AF80C30DBB28DF8DD
:1031300003309DF80330E9E7FEF74CF8A0EB0900F7
:10314000404507D2019A02B14246019B013B0193DF
:103150009046DEE73268536823F0E00353607368FB
:10316000B3F5827F0BD0B36AB3F5005F14D00123AF
:1031700086F85D30002386F85C30032018E0B368E1
:10318000B3F5004F02D0B3F5806FECD1326813680D
:1031900023F040031360E6E73268136823F400531A
:1031A00013603268136843F400531360DFE70020B4
:1031B00002B0BDE8F08700BF2C00002070B582B0DF
:1031C00004460D46164600920B4600224FF4C051AD
:1031D000FFF77CFFB0B900962B46002280212046E5
:1031E000FFF710FFA8B900962B4600224FF4C061EC
:1031F0002046FFF76BFF50B1236E43F02003236698
:10320000032004E0236E43F020032366032002B072
:1032100070BD236E43F0200323660320F7E70028E8
:103220006AD010B50446436A33B94368B3F5827F68
:1032300005D00023C36102E0002303614361002342
:10324000A36294F85D30002B4DD0022384F85D30EA
:103250002268136823F040031360E368B3F5E06F5E
:1032600047D90022B3F5706F04D0B3F5E06F01D0F9
:103270000023A362636803F48273A16801F404412C
:103280000B43216901F002010B43616901F0010167
:103290000B43A16901F400710B43E16901F03801AE
:1032A0000B43216A01F080010B43A16A01F4005134
:1032B00020680B430360638B03F00403616A01F031
:1032C00010010B43616B01F008010B43E16801F44D
:1032D00070610B43216813434B600020206601237B
:1032E00084F85D3010BD84F85C302046FDF740FB6B
:1032F000ABE74FF48052B5E7012070472DE9F0436A
:1033000083B01D4690F85C30012B00F0F480044639
:1033100088469146012380F85C30FDF75BFF074645
:1033200094F85D60F6B2012E40F0DD80B8F1000F38
:1033300000F0DA80B9F1000F00F0D680032384F8A2
:103340005D3000232366C4F83880A4F83C90A4F8CC
:103350003E902364A4F84430A4F846302365E36427
:10336000A368B3F5004F1ED023681A6812F0400F0F
:1033700003D11A6842F040021A60E368B3F5E06FC7
:1033800044D9636813B1B9F1010F20D1A26B23684E
:103390001288DA60A36B0233A363E38F9BB2013B15
:1033A0009BB2E38713E02268136823F040031360A5
:1033B0002268136843F480431360D5E7FDF70AFFE2
:1033C000C01BA84202D3B5F1FF3F1AD1CDB1E38FA4
:1033D0009BB2002B6FD023689A6812F0020FEDD0D9
:1033E000A26B1288DA60A36B0233A363B4F83EC009
:1033F0001FFA8CFC0CF1FF3C1FFA8CFCA4F83EC0B9
:10340000E5E7012384F85D3003266DE0636813B1BE
:10341000B9F1010F32D1E38F9BB2012B0CD9A26B12
:1034200023681288DA60A36B0233A363E38F9BB235
:10343000023B9BB2E38721E0A26B236812781A73E8
:10344000A36B0133A363E38F9BB2013B9BB2E38782
:1034500014E0A36B1B781373A36B0133A363E38F97
:103460009BB2013B9BB2E38708E0FDF7B3FEC01BB4
:10347000A84202D3B5F1FF3F18D1BDB1E38F9BB293
:10348000CBB12268936813F0020FEED0E38F9BB2AA
:10349000012BDED9A36B1B88D360A36B0233A3631C
:1034A000E38F9BB2023B9BB2E387E7E7012384F8FB
:1034B0005D30032618E03A4629462046FFF77EFE97
:1034C00008B120232366A36833B901932368DA681F
:1034D00001929B680193019B236E2BB9012384F811
:1034E0005D30002600E00226002384F85C30304680
:1034F00003B0BDE8F0830226F9E7704730B585B028
:103500000446026851689368C3F3801013F0400FBB
:1035100005D113F0010F02D011F0400F69D113F063
:10352000020F02D011F0800F67D1C3F3401513F0E2
:10353000200F03D110B913F4807F61D011F0200F58
:103540005ED078B194F85D00C0B203285AD0206EE6
:1035500040F00400206600200090D0680090906841
:103560000090009865B1206E40F0010020660020B8
:10357000029090680290106820F040001060029A5B
:1035800013F4807F09D0236E43F0080323660023E1
:10359000039323689B680393039B236E002B2FD018
:1035A0002268536823F0E0035360012384F85D3000
:1035B00011F0030F2ED02268536823F003035360E9
:1035C000A36D4BB1154A9A63A06DFFF724FC18B1A7
:1035D000236E43F040032366636D8BB10F4A9A63F9
:1035E000606DFFF718FC58B1236E43F0400323666B
:1035F00006E0E36C2046984702E0236D204698479A
:1036000005B030BD00230193D36801939368019303
:10361000019BF5E72046FFF770FFF1E72136000830
:1036200008B5806A0023A0F84630C387FFF765FF1E
:1036300008BD0000034AD2F8883043F47003C2F892
:103640008830704700ED00E0DFF834D0FFF7F2FF7C
:103650000C480D490D4A002302E0D458C4500433ED
:10366000C4188C42F9D30A4A0A4C002301E01360C3
:103670000432A242FBD3FCF7CFFDFCF7EFFEFEE7DE
:1036800000C000200000002030000020D8510008B9
:103690003000002078030020FEE70000F8B500BFEE
:1036A000F8BC08BC9E467047F8B500BFF8BC08BC23
:0836B0009E4670470000000077
:1036B800313230487A00000030303A30306800004B
:1036C800362E3276000000000000000000000000E6
:1036D80000000000000000000000000000000000E2
:1036E80000000000000000000000000000000000D2
:1036F800000000000000000000000000E003E003FC
:10370800E003E003E003E003E003E003C003C003D9
:10371800C001C001C001C001C001000000000000DC
:10372800E003E003E00300000000000000000000E8
:103738003C1E3C1E3C1E3C1E3C1E3C1E3C1E00000B
:103748000000000000000000000000000000000071
:103758000000000000000000000000000000000061
:1037680000000000CE01CE03DE039E039C039C07ED
:10377800FF3FFF7F3807380F780F780F780EFFFF6D
:10378800FFFFF01EF01CE01CE03CE03DE0390000CB
:103798000000000000000000FC03FE0FEE1FE01E0A
:1037A800E01EE01EE01EE01FE00FE007F003FC0152
:1037B800FE01FE01FE01FE01FE01FE01FE3DFC3F91
:1037C800F00FE001E001000000000000033E07F7F1
:1037D8008FE78EE79EE3BCE3B8E7F8E7F0F7E03F52
:1037E800C001FF03FF07F307F30FF31EF33CF338A1
:1037F800F3787FF03FE000000000000000000000C8
:10380800E007F80F780F781F781F781F780FF00FF0
:10381800E00F801FC37FC3FBE7F3F7F1F7F0FFF07A
:103828007FF03EF87F7CFF3FEF1F000000000000A4
:1038380000000000E003E003E003E003E003C0034E
:10384800C0010000000000000000000000000000AF
:103858000000000000000000000000000000000060
:1038680000000000000000003F007C00F001E001C3
:10387800C003C00780078007800F000F000F000FEC
:10388800000F000F000F800F80078007C007C003DC
:10389800E001F0017C003F000F000000007E001FE7
:1038A800C007C003E001F001F000F000F800780064
:1038B80078007800780078007800F800F000F000D0
:1038C800F001E001C003C007001F007E007800007F
:1038D800E003C003C001CE39FF3F7F3F20037003E0
:1038E800F807780F3C1F38060000000000000000B1
:1038F80000000000000000000000000000000000C0
:1039080000000000000000000000000000000000AF
:10391800C001C001C001C001C001C001C001FFFF5A
:10392800FFFFC001C001C001C001C001C00100000B
:10393800000000000000000000000000000000007F
:10394800000000000000000000000000000000006F
:1039580000000000000000000000E003E003E003B6
:10396800E003E001E001E001C00180030000000085
:10397800000000000000000000000000000000003F
:103988000000FE3FFE3F00000000000000000000B5
:10399800000000000000000000000000000000001F
:1039A800000000000000000000000000000000000F
:1039B80000000000000000000000000000000000FF
:1039C8000000E003E003E003E00300000000000063
:1039D800000000000F000F001E001E003C003C000D
:1039E80078007800F000F000E001E001C003C003B7
:1039F80080078007000F000F001E001E003C003CDF
:103A08000078007800F00000F007F80F7C1F3E3EB9
:103A18001E3C1F7C1F7C0F780F780F780F780F786B
:103A28000F780F781F7C1F7C1E3C3E3E7C1FF80FD2
:103A3800F00700000000000000000000F000F007A0
:103A4800F03FF03FF001F001F001F001F001F0016A
:103A5800F001F001F001F001F001F001F001F001D6
:103A6800F001FF3FFF3F00000000000000000000E1
:103A7800E00FF83F7C3C3C003E003E003E003C002E
:103A88003C007C00F800F001E003C0078007000F4D
:103A9800001E003E003CFE3FFE3F0000000000000C
:103AA80000000000F00FF81F7C1C3E003E003E00A6
:103AB8003C003C00F800F00FF80F7C003E001E00B0
:103AC8001E001E001E003E007C1CF81FE01F0000A8
:103AD80000000000000000007800F800F800F8017D
:103AE800F803F807F807780F781E781E783C78787E
:103AF8007878FFFFFFFF780078007800780078007A
:103B0800780000000000000000000000FC1FFC1FFF
:103B1800FC1F001E001E001E001E001EE01FF81FD6
:103B2800FC007C003E003E001E003E003E003C00C3
:103B38007C1CF81FE01F00000000000000000000CF
:103B4800FC01FE078E0F001F001E003E003C003CDB
:103B5800F83DFC3F3E7F1F7E0F3C0F3C0F3C0F3C67
:103B68000F3E1F1E3E1FFC0FF00300000000000068
:103B780000000000FF3FFF3FFF3F0F001E001E0038
:103B88003C0038007800F000F000E001E001C003DC
:103B9800C0038007800F800F000F001F001F000068
:103BA8000000000000000000F807FC0F3E1F1E1E6A
:103BB8001E3E1E3E1E1E3C1FF80FF007F80FFC1E8F
:103BC8003E3E1F3C1F7C0F7C0F7C1F3C3E3FFC1F72
:103BD800F00700000000000000000000F007F80FE8
:103BE8007C1E3E3C1E3C1F7C1F7C1F7C1F7C1F3C98
:103BF8003F3EFF1FEF071F001E001E003E003C0057
:103C0800F838F03FE01F000000000000000000004E
:103C1800000000000000000000000000E003E003D6
:103C2800E003E003000000000000000000000000C6
:103C38000000E003E003E003E003000000000000F0
:103C4800000000000000000000000000000000006C
:103C5800E003E003E003E0030000000000000000D0
:103C6800000000000000E003E003E003E003E001DF
:103C7800E001E001C0038003000000000000000034
:103C88000000000003000F003F00FC00F003C00F1D
:103C9800003F00FE003FC00FF003FC003F000F0094
:103CA8000300000000000000000000000000000009
:103CB80000000000000000000000000000000000FC
:103CC800FFFFFFFF000000000000FFFFFFFF0000F4
:103CD80000000000000000000000000000000000DC
:103CE80000000000000000000000000000E000F8F4
:103CF800007E801FE007F8017E001F007E00F801AB
:103D0800E007801F007E00F800E0000000000000CF
:103D180000000000F01FFC3F3E381F381F381E000F
:103D28001E003C007800F000E001C003C003C0079B
:103D3800C007000000000000C007C007C00700005F
:103D48000000000000000000F803FE0F1E1F0F3ED9
:103D58007F3CFF78EF79C773C7F38FF38FF38FF347
:103D68009FF39FF3FF73FF7BF779003C1C1FFC0F49
:103D7800F803000000000000000000000000000040
:103D88000000E003E003F007F007F007780F780F72
:103D98007C0E3C1E3C1E3E3CFE3FFF3F1F780F78CA
:103DA8000FF007F007F0000000000000000000001E
:103DB800000000000000F83FFC3F3E3C1E3C1E3C5B
:103DC8001E3C3E3C7C3CF03FF83F7E3C1F3C1F3C89
:103DD8000F3C0F3C1F3CFE3FF83F00000000000076
:103DE80000000000000000000000FF01FF07871F1F
:103DF800003E003C007C007800780078007800786D
:103E0800007C007C003E003F831FFF07FF0100008D
:103E18000000000000000000000000000000F07F2B
:103E2800FC7F7E781F781F780F780F780F780F78CF
:103E38000F780F780F780F781F781E787E78F87FC4
:103E4800E07F00000000000000000000000000000B
:103E58000000FF3FFF3F003E003E003E003E003EA8
:103E6800003EFE3FFE3F003E003E003E003E003E5C
:103E7800003EFF3FFF3F0000000000000000000080
:103E8800000000000000FF1FFF1F001E001E001E94
:103E9800001E001E001EFF1FFF1F001E001E001E2A
:103EA800001E001E001E001E001E00000000000074
:103EB80000000000000000000000FE03FF0F871F45
:103EC800003E007C007C007800F800F87FF87FF85E
:103ED8000F780F7C0F7C0F3E8F1FFF0FFE03000033
:103EE80000000000000000000000000000001F7C2F
:103EF8001F7C1F7C1F7C1F7C1F7C1F7C1F7CFF7FFF
:103F0800FF7F1F7C1F7C1F7C1F7C1F7C1F7C1F7CEE
:103F18001F7C0000000000000000000000000000FE
:103F28000000FF3FFF3FE003E003E003E003E0039E
:103F3800E003E003E003E003E003E003E003E00361
:103F4800E003FF3FFF3F000000000000000000000A
:103F5800000000000000FC1FFC1F7C007C007C00AF
:103F68007C007C007C007C007C007C007C007C0069
:103F780078007800F838F03FC03F000000000000EB
:103F8800000000000000000000001F3C1E3C3C3CFC
:103F9800783CF03CE03DE03FC03F803FC03FE03F21
:103FA800F03DF03C783C7C3C3E3C1F3C0F3C000024
:103FB8000000000000000000000000000000003EBB
:103FC800003E003E003E003E003E003E003E003EF9
:103FD800003E003E003E003E003E003E003EFF3FE9
:103FE800FF3F00000000000000000000000000008B
:103FF80000001FF81FFC1FFC3FFE3FFE3FFE7FFF37
:1040080077FF77FFF7F7E7F7E7F3E7F3C7F307F08B
:1040180007F007F007F000000000000000000000B3
:104028000000000000000F7C0F7C0F7E0F7F0F7FC9
:104038008F7F8F7FCF7FEF7BEF79FF79FF78FF78D6
:104048007F783F783F781F781F78000000000000D5
:1040580000000000000000000000F007FC1F3E3ECA
:104068001F7C0F780F780FF80FF80FF80FF80FF87C
:104078000FF80F780F781F7C3E3EFC1FF0070000FA
:104088000000000000000000000000000000FC3FED
:10409800FF3F1F3E0F3E0F3E0F3E0F3E1F3E3F3E6F
:1040A800FC3FF03F003E003E003E003E003E003E2A
:1040B800003E0000000000000000000000000000BA
:1040C8000000F007FC1F3E3E1F7C0F780F780FF8AA
:1040D8000FF80FF80FF80FF80FF80F780F781F7C0C
:1040E8003E3EFC1FF8077C003F000F000300000065
:1040F800000000000000F03FFC3F7E3C3E3C1E3CC0
:104108001E3C3E3C3C3CFC3CF03FE03FF03DF83C74
:104118007C3C3E3C1E3C1F3C0F3C00000000000065
:1041280000000000000000000000FC07FE1F0E3E1B
:10413800003C003C003C003EC01FF80FFE037F001F
:104148001F000F000F001F203E3CFC3FF01F000027
:104158000000000000000000000000000000FFFF59
:10416800FFFFE003E003E003E003E003E003E00314
:10417800E003E003E003E003E003E003E003E0031F
:10418800E003000000000000000000000000000044
:1041980000000F7C0F7C0F7C0F7C0F7C0F7C0F7C4A
:1041A8000F7C0F7C0F7C0F7C0F7C0F7C1E3C1E3C11
:1041B8003E3EFC1FF0070000000000000000000069
:1041C80000000000000007F007F007F80F780F7CE8
:1041D8001E3C1E3C1E3E3C1E3C1F781F780FF80FED
:1041E800F007F007F007E003E0030000000000001C
:1041F8000000000000000000000003E003F003F0EE
:1042080007F0E7F3E7F3E7F3E773F77BF77FFF7F61
:104218007F7F7F7F7E7F7E3F3E3E3E3E3E3E00006C
:10422800000000000000000000000000000007F887
:104238000F7C1E3E3E3E3C1FF80FF007E007E003F0
:10424800E003F007F80F7C0F7C1E3E3C1F780F78C8
:104258000FF0000000000000000000000000000057
:10426800000007F807780F7C1E3C1E3E3C1F780FA5
:10427800F80FF007E003E003E003E003E003E003E6
:10428800E003E003E003000000000000000000007D
:10429800000000000000FF7FFF7F0F001F003E00AE
:1042A8007C00F800F000E001E003C007800F000F79
:1042B800001E003E007CFF7FFF7F00000000000022
:1042C80000000000FF07800780078007800780073D
:1042D800800780078007800780078007800780079E
:1042E800800780078007800780078007800780078E
:1042F8008007FF07FF07000000780078003C003CBB
:10430800001E001E000F000F80078007C003C003B7
:10431800E001E001F000F000780078003C003C008B
:104328001E001E000F000F0007000000F07FF000C5
:10433800F000F000F000F000F000F000F000F000F5
:10434800F000F000F000F000F000F000F000F000E5
:10435800F000F000F000F000F000F07FF07F0000C7
:10436800C000C001C001E003E003F007F0077807D0
:10437800780F380F3C1E3C1E1E3C1E3C0F380F7831
:1043880007780000000000000000000000000000A6
:104398000000000000000000000000000000000015
:1043A8000000000000000000000000000000000005
:1043B8000000000000000000000000000000FFFFF7
:1043C800FFFF000000000000F000000000000000F7
:1043D80000000000000000000000000000000000D5
:1043E80000000000000000000000000000000000C5
:1043F80000000000000000000000000000000000B5
:104408000000000000000000F80FFC3F7C3C3E006C
:104418003E003E00FE07FE1F3E3E3E7C3E783E7C50
:104428007E7CFF3FCF1F000000000000000000005E
:10443800003C003C003C003C003C003CF83DFE3F9A
:104448003E3F1F3E0F3C0F3C0F3C0F3C0F3C0F3CC8
:104458001F3C1E3C3E3FFC3FF03B000000000000BC
:104468000000000000000000000000000000000044
:10447800FE03FF0F871F003E003E003C007C007CCF
:10448800007C003C003E003E871FFF0FFE0300003B
:1044980000000000000000001F001F001F001F0098
:1044A8001F001F00FF07FF1F3F3E1F3C1F7C1F7C94
:1044B8001F7C1F781F781F7C1F7C3F3C7F3EFF1F9F
:1044C800DF0F0000000000000000000000000000F6
:1044D8000000000000000000F803FC0F3E1F1E3E15
:1044E8001F3C1F7CFF7FFF7F007C007C003C003E60
:1044F800071FFF0FFE03000000000000000000007F
:10450800FF01E103C003C007C007C007FF7FFF7FAB
:10451800C007C007C007C007C007C007C007C0075B
:10452800C007C007C007C007C007000000000000A0
:104538000000000000000000000000000000000073
:10454800EF07FF1F7F3E1F3C1F7C1F7C1F781F78D3
:104558001F781F7C1F7C3F3C7F3EFF1FDF0F1E0024
:104568001E001E007C38F83F003C003C003C003C2C
:10457800003C003CFC3DFE3F9E3F1F3F1F3E1F3C52
:104588001F3C1F3C1F3C1F3C1F3C1F3C1F3C1F3C4B
:104598001F3C00000000000000000000F001F001D6
:1045A8000000000000000000E07FE07FE001E00183
:1045B800E001E001E001E001E001E001E001E001EB
:1045C800E001E001E0010000000000000000000040
:1045D800F800F8000000000000000000F83FF83F75
:1045E800F800F800F800F800F800F800F800F80003
:1045F800F800F800F800F800F800F800F800F000FB
:10460800F071E07F003C003C003C003C003C003C7A
:104618001F3C3E3C7C3CF83CF03DE03DC03FC03F89
:10462800E03FF03DF83C7C3C3E3C1F3C1F3C00001A
:104638000000000000000000F07FF001F001F00130
:10464800F001F001F001F001F001F001F001F001DA
:10465800F001F001F001F001F001F001F001F001CA
:10466800F001000000000000000000000000000051
:1046780000000000000000009EF7FFFFFFFFFFFFA3
:10468800E7FBE7F9C7F1C7F1C7F1C7F1C7F1C7F110
:10469800C7F1C7F1C7F100000000000000000000EA
:1046A800000000000000000000000000FC3DFE3F8C
:1046B8009E3F1F3F1F3E1F3C1F3C1F3C1F3C1F3C93
:1046C8001F3C1F3C1F3C1F3C1F3C0000000000001B
:1046D80000000000000000000000000000000000D2
:1046E800F007FC1F3E3E1F3C1F7C0F780F780F78A9
:1046F8000F780F781F7C1F3C3E3EFC1FF007000020
:1047080000000000000000000000000000000000A1
:1047180000000000F83DFE3F3E3F1F3E0F3C0F3CAF
:104728000F3C0F3C0F3C0F3C1F3C1E3E3E3FFC3FE6
:10473800F83F003C003C003C003C003C000000000E
:104748000000000000000000EE07FE1F7E3E1E3C39
:104758001E7C1E781E781E781E781E781E7C3E7C75
:104768007E3EFE1FDE0F1E001E001E001E001E00E5
:104778000000000000000000000000007F1FFF1F75
:10478800E71FC71F871F001F001F001F001F001FF4
:10479800001F001F001F001F001F00000000000076
:1047A8000000000000000000000000000000000001
:1047B800FC07FE1F0E1E003E003E003FE01FFC07E8
:1047C800FE003E001E001E003E3CFC3FF01F0000A5
:1047D800000000000000000000000000000080074A
:1047E80080078007FF7FFF7F80078007800780079B
:1047F800800780078007800780078007C007FF03BE
:10480800FF010000000000000000000000000000A0
:1048180000000000000000001E3C1E3C1E3C1E3C28
:104828001E3C1E3C1E3C1E3C1E3C1E3C3E3C7E3C30
:10483800FE3EFE1FDE0F000000000000000000002A
:1048480000000000000000000000000007F00F78E2
:104858000F781E3C1E3C1E3E3C1E3C1E780F780FF7
:10486800F00FF007F007E003E0030000000000008D
:104878000000000000000000000000000000000030
:1048880003F0E3F1E3F3E7F3F7F3F7F3F77F777F69
:104898007F7F7F7F7F7F3E3E3E3E3E3E3E3E000026
:1048A8000000000000000000000000000000000000
:1048B800000000000F7C1E3E3C3E3C1FF80FF00736
:1048C800F007E003F007F807F80F7C1E3E3E1F3C98
:1048D8001F78000000000000000000000000000039
:1048E800000000000000000007F80F780F7C1E3C55
:1048F8001E3C3C1E3C1E3C1F780FF80FF007F007CB
:10490800E003E003C003C003C0038007800F007FFB
:10491800000000000000000000000000FF3FFF3F13
:104928001F003E007C00F800F001E003C007800F84
:10493800001F001E003CFF7FFF7F000000000000FA
:1049480000000000FE01E003C003C003C003C00371
:10495800E001E001E001C001C003803F803FC003E7
:10496800C001E001E001E001C003C003C003C003CF
:10497800E003FE017E000000C001C001C001C001CB
:10498800C001C001C001C001C001C001C001C00117
:10499800C001C001C001C001C001C001C001C00107
:1049A800C001C001C001C001C0010000C03FE00358
:1049B800E001E001E001E001C001C003C003C00163
:1049C800E001FE00FE00E001C001C003C003C00119
:1049D800E001E001E001E001E003C03F003F00002A
:1049E80000000000000000000000000000000000BF
:1049F800000000000000073FC77FE773FFF17EF06B
:104A0800000000000000000000000000000000009E
:104A1800000000000000000000000000000000008E
:104A2800000000000000000000100010001000103E
:104A380000100010000000100000000000280028EE
:104A48000028000000000000000000000000000036
:104A580000240024007C00240048007C0048004812
:104A680000000000003800540050003800140054C2
:104A78000054003800100000002000540058003096
:104A8800002800540014000800000000001000284E
:104A980000280010003400480048003400000000DE
:104AA80000100010001000000000000000000000CE
:104AB8000000000000080010002000200020002056
:104AC8000020002000100008002000100008000846
:104AD8000008000800080008001000200010003836
:104AE8000010002800000000000000000000000086
:104AF8000000000000100010007C001000100000F2
:104B0800000000000000000000000000000000009D
:104B1800000000100010001000000000000000005D
:104B28000000003800000000000000000000000045
:104B3800000000000000000000000010000000005D
:104B480000080008001000100010001000200020CD
:104B580000000000003800440044005400440044B1
:104B68000044003800000000001000300050001021
:104B78000010001000100010000000000038004471
:104B880000440004000800100020007C0000000021
:104B980000380044000400180004000400440038F1
:104BA8000000000000080018002800280048007CC9
:104BB8000008000800000000007C00400040007869
:104BC80000040004004400380000000000380044DD
:104BD8000040007800440044004400380000000011
:104BE800007C0004000800100010002000200020B5
:104BF800000000000038004400440038004400442D
:104C0800004400380000000000380044004400441C
:104C1800003C0004004400380000000000000000D0
:104C2800001000000000000000000010000000005C
:104C3800000000000000001000000000000000104C
:104C48000010001000000000000C00300040003090
:104C5800000C000000000000000000000000007CC4
:104C68000000007C000000000000000000000000C0
:104C78000060001800040018006000000000000038
:104C88000038004400040008001000100000001064
:104C98000000000000380044004C0054005C004054
:104CA80000400038000000000010002800280028FC
:104CB8000028007C00440044000000000078004404
:104CC80000440078004400440044007800000000DC
:104CD80000380044004000400040004000440038D4
:104CE80000000000007000480044004400440044F4
:104CF8000048007000000000007C00400040007C7C
:104D0800004000400040007C00000000007C0040A3
:104D180000400078004000400040004000000000D3
:104D28000038004400400040005C00440044003863
:104D380000000000004400440044007C004400449B
:104D4800004400440000000000380010001000106B
:104D580000100010001000380000000000040004DB
:104D680000040004000400040044003800000000AF
:104D780000440048005000600050004800480044CB
:104D8800000000000040004000400040004000409B
:104D98000040007C000000000044006C006C0054DF
:104DA8000044004400440044000000000044006443
:104DB800006400540054004C004C00440000000003
:104DC80000380044004400440044004400440038D3
:104DD80000000000007800440044004400780040CF
:104DE8000040004000000000003800440044004437
:104DF80000440044005400380004000000780044D7
:104E080000440044007800480048004400000000C6
:104E18000038004400400030000800040044003816
:104E280000000000007C00100010001000100010AE
:104E3800001000100000000000440044004400443A
:104E480000440044004400380000000000440044CE
:104E5800004400280028002800100010000000006E
:104E680000440044005400540054006C00280028FA
:104E7800000000000044002800280010001000284E
:104E880000280044000000000044004400280028D6
:104E9800001000100010001000000000007C00044A
:104EA80000080010001000200040007C00000000F6
:104EB8000018001000100010001000100010001062
:104EC8000010001800200020001000100010001032
:104ED800000800080000000000300010001000105A
:104EE8000010001000100010001000300010002802
:104EF800002800440000000000000000000000003E
:104F08000000000000000000000000000000000099
:104F1800000000FE0020001000000000000000005B
:104F280000000000000000000000000000380044FD
:104F3800003C0044004C00340000000000400040E9
:104F48000058006400440044006400580000000059
:104F580000000000003800440040004000440038D1
:104F680000000000000400040034004C0044004429
:104F7800004C00340000000000000000003800442D
:104F8800007C00400044003800000000000C0010C5
:104F9800007C00100010001000100010000000003D
:104FA800000000000034004C00440044004C003471
:104FB80000040078004000400058006400440044A9
:104FC80000440044000000000010000000700010C1
:104FD8000010001000100010000000000010000079
:104FE800007000100010001000100010001000E009
:104FF8000040004000480050006000500048004455
:1050080000000000007000100010001000100010D8
:10501800001000100000000000000000007800549C
:105028000054005400540054000000000000000028
:10503800005800640044004400440044000000009C
:1050480000000000003800440044004400440038D8
:105058000000000000000000005800640044004404
:105068000064005800400040000000000034004C7C
:1050780000440044004C0034000400040000000018
:10508800005800640040004000400040000000005C
:1050980000000000003800440030000800440038D8
:1050A80000000000002000200078002000200020E0
:1050B8000020001800000000000000000044004428
:1050C80000440044004C00340000000000000000D0
:1050D80000440044002800280028001000000000B8
:1050E80000000000005400540054006C0028002800
:1050F800000000000000000000440028001000101C
:1051080000280044000000000000000000440044A3
:1051180000280028001000100010006000000000A7
:10512800007C0008001000200040007C0000000007
:1051380000180010001000100020002000100010BF
:1051480000100018001000100010001000100010CF
:1051580000100010001000100030001000100010A7
:1051680000080008001000100010003000000000C7
:1051780000000074004C0000000000000000000067
:10518800A0860100400D0300801A060000350C00BF
:1051980040420F0080841E0000093D0000127A0082
:1051A8000024F40000366E010048E801006CDC02BF
:1051B80000000000000000000102030406070809BF
:0851C800F901000800000000DD
:0851D000D101000800000000FD
:1051D80028000000102800000961000009E1000013
:1051E8000D300000101A0000D0360008070A000031
:1051F8001C4A0008010000001000000000093D00E2
:040000050800364970
:00000001FF
