:020000040800F2
:1000000000C000203D7F0008E1570008E3570008CA
:10001000E5570008E7570008E9570008000000000E
:10002000000000000000000000000000EB57000886
:10003000ED57000800000000EF570008F1570008D6
:100040008D7F00088D7F00088D7F00088D7F000860
:100050008D7F00088D7F00088D7F00082D4B0008E4
:100060008D7F00088D7F00088D7F0008D94B000828
:100070008D7F00088D7F00088D7F00088D7F000830
:100080008D7F00088D7F0008B54B00088D7F00082C
:100090008D7F00088D7F00088D7F0008494B000888
:1000A0008D7F00088D7F00088D7F00088D7F000800
:1000B0008D7F000800000000000000008D7F000818
:1000C0008D7F00088D7F00088D7F0008F95700089C
:1000D0008D7F00088D7F00088D7F00088D7F0008D0
:1000E000654B00088D7F0008000000000000000044
:1000F0000000000000000000000000000000000000
:10010000000000008D7F0008000000008D7F0008C7
:1001100000000000000000008D7F00088D7F0008B7
:100120008D7F00088D7F00088D7F00088D7F00087F
:100130008D7F0008000000000000000000000000AB
:100140008D7F00088D7F00088D7F00080000000073
:100150008D7F00088D7F00088D7F00088D7F00084F
:1001600009580008195800088D7F00080000000099
:100170008D7F00088D7F0008000000000000000057
:100180008D7F00088D7F00088D7F00080000000033
:100190000348044B834202D0034B03B11847704716
:1001A0008000002080000020000000000548064B71
:1001B0001B1AD90F01EBA301491002D0034B03B165
:1001C00018477047800000208000002000000000D9
:1001D00010B5064C237843B9FFF7DAFF044B13B18F
:1001E0000448AFF300800123237010BD800000207D
:1001F00000000000907F000808B5044B1BB10449C3
:100200000448AFF30080BDE80840CFE700000000DD
:1002100084000020907F0008002300F01FBA00BF78
:1002200070B5044610EE100A0D46164604F03CF870
:10023000324641EC100B002329462046BDE87040B1
:1002400000F00CBA30B52DED028BB0EE408AF0EE26
:10025000608A00220C4683B00023054651EC100B47
:1002600004F0ECFA224618B12D2302F8013B013DBF
:100270000949B0EE480AF0EE680A002308680093C6
:100280002946672300F08AFA002818BF204603B0E9
:10029000BDEC028B30BD00BF0000002030B52DED5D
:1002A000028B054683B010EE100AB0EE408A0C4671
:1002B00003F0FAFFB5EEC08AF1EE10FA41EC100B34
:1002C000224603D52D2302F8013B013D07490023B7
:1002D000086800932946672300F060FA002818BFD9
:1002E000204603B0BDEC028B30BD00BF00000020F3
:1002F000002300F005BA00BF70B5044610EE100AE6
:100300000D46164603F0D0FF324641EC100B002399
:1003100029462046BDE8704000F0F2B970B50F4B99
:100320000F4DAB42A3EB050607D0B610002455F8DD
:10033000043B01349847A642F9D807F029FE094D3D
:10034000094B5E1BAB424FEAA60606D0002455F8C7
:10035000043B01349847A642F9D870BD089D0008B7
:10036000089D0008089D00080C9D0008830730B513
:1003700047D0541E002A3ED0CAB2034601E0013CD9
:1003800039D303F8012B9D07F9D1032C2CD9CDB219
:1003900005EB05250F2C05EB054535D9A4F1100219
:1003A00022F00F0C03F1100EE6444FEA121C1A461D
:1003B000C2E90055C2E9025510327245F8D10CF17C
:1003C000010214F00C0F03EB021204F00F0C13D017
:1003D000ACF1040323F003030433134442F8045B39
:1003E0009342FBD10CF003042CB1C9B21C4403F8B6
:1003F000011BA342FBD130BD64461346002CF4D14F
:10040000F9E703461446C0E71A46A446E0E700BFF2
:10041000014B1868704700BF00000020844641EA85
:10042000000313F003036DD1403A41D351F8043B6C
:1004300040F8043B51F8043B40F8043B51F8043BBE
:1004400040F8043B51F8043B40F8043B51F8043BAE
:1004500040F8043B51F8043B40F8043B51F8043B9E
:1004600040F8043B51F8043B40F8043B51F8043B8E
:1004700040F8043B51F8043B40F8043B51F8043B7E
:1004800040F8043B51F8043B40F8043B51F8043B6E
:1004900040F8043B51F8043B40F8043B51F8043B5E
:1004A00040F8043B51F8043B40F8043B403ABDD2CD
:1004B000303211D351F8043B40F8043B51F8043B6F
:1004C00040F8043B51F8043B40F8043B51F8043B2E
:1004D00040F8043B103AEDD20C3205D351F8043BFE
:1004E00040F8043B043AF9D2043208D0D2071CBFCA
:1004F00011F8013B00F8013B01D30B8803806046F3
:10050000704700BF082A13D38B078DD010F0030368
:100510008AD0C3F10403D21ADB071CBF11F8013BD8
:1005200000F8013B80D331F8023B20F8023B7BE727
:10053000043AD9D3013A11F8013B00F8013BF9D252
:100540000B7803704B7843708B78837060467047EC
:10055000F0B587B014461D4604AA03AB0192009380
:100560000E4605AB621C022101F0B8FB059F42F26A
:100570000F739F425ED0B44603780CF8013B002C09
:100580004EDD4378002B5BD02E23421C737006F1A6
:10059000020C00E04CB112F8013B8CF800301178ED
:1005A000013C0CF1010C0029F4D1672D3ED0472D00
:1005B0003ED034B13022013C8CF800200CF1010C0B
:1005C000F9D17B1E46BFC7F101032D222B22632BDD
:1005D0008CF800508CF8012013DC0CF102001D494E
:1005E000DA1781FB0341C2EBA1026FF0090101FBA5
:1005F000023330333032002102704370817007B013
:10060000F0BD154AA2FB0312520902F130018CF829
:1006100002106FF063010CF1030001FB0233DEE70F
:10062000672D03D0472D08BF4525CAE76525C8E7D4
:100630004525C6E70146304600F0BCFF07B0F0BDD7
:10064000672DF3D0472DF3D02E228CF800200CF12B
:10065000010CAFE7676666661F85EB512DE9F04335
:10066000264C87B0D4F800800E46044617461D4637
:1006700043B305AA33460192009722464046032120
:1006800001F02CFB059A33689042C3F1000330D28D
:10069000844629461CF8012B01F8012B059A624576
:1006A000F8D81B1A63449C4226DDE21A0A44302320
:1006B00001F8013B9142FBD100231370284607B09B
:1006C000BDE8F083D8E90A2500F123039A42D0DC83
:1006D00000F1240929464A4640468DED020B02F0FE
:1006E000E5FA05460028E9D0C8E90A909DED020B1D
:1006F000BFE79C422946D8DC0A46DDE7000000201F
:100700002DE9F041244C1D46276888B004460B466D
:1007100016463DB307A901910096022122463846AC
:1007200001F0DCFA079B9842844629464FF0000E00
:1007300008D21CF8013B01F8013B079B63450EF111
:10074000010EF6D8744524DDA4EB0E020A443023D2
:1007500001F8013B9142FBD100231370284608B0F9
:10076000BDE8F081D7E90A258242D3DC00F1010817
:1007700005914246294638468DED020B02F096FA65
:1007800005460028EAD0C7E90A809DED020B059BCB
:10079000C0E70A46E0E700BF000000202DE9F04373
:1007A00057EC106B87B080460C46154699460022E0
:1007B00000233046394604F041F80022002350B9A6
:1007C0003046394604F030F840B1302328462B80BB
:1007D00007B0BDE8F08307F100431F464CA3D3E9FF
:1007E00000233046394604F033F868B10E9B00937D
:1007F00047EC106B4B46621E29464046FFF7A8FEA9
:10080000284607B0BDE8F083204600F057FE324688
:1008100051EC100B3B4604F01BF80028E6D105AA6A
:1008200004ABCDE9003247EC106B2246404603ABE7
:10083000022101F053FA039E42F20F7296425DD0FC
:1008400002782B4642B940E003F8012B039610F8DA
:10085000012F013C002A38D0002E06F1FF36F3DCD0
:100860000E9A0AB9027852B39D4242D0039A1E46AC
:100870002E21002A06F8011B45DAC2F101021A44B2
:10088000302306F8013BB242FBD1002303930678E4
:100890005EB1002C2BDD034600E044B302F8016B8F
:1008A00013F8016F013C002EF7D10E9BFBB1002C19
:1008B0001DDD1319302102F8011B9A42FBD10022E1
:1008C00028461A7007B0BDE8F083002EC8DD002C62
:1008D000C6DD1E44302100E03CB103F8011BB342E9
:1008E00004F1FF34A6EB0302F6D10392B8E71346F6
:1008F000E5E72B46302203F8012BB7E701462846EF
:1009000000F058FE7CE73246C1E700BFAFF300803D
:100910002D431CEBE2361A3FF0B587B015469DF823
:1009200030300D9CA3F145020E46222A1BD8DFE889
:1009300002F0691D121A1A1A1A1A1A1A1A1A1A1A0F
:100940001A1A1A1A1A1A1A1A1A1A1A1A1A1A1A1A07
:100950001A1A691D1200002D0094324614BF294650
:100960000121FFF71BFF304607B0F0BD05AB019337
:1009700004AB002D00932A4603AB4FF0030118BFD0
:10098000012401F0ABF9039B42F20F72934274D041
:100990000778002F3ED0B446024607E00CF8017BF2
:1009A000013B039312F8017F002F35D0002BF5DCBB
:1009B000002C67D11C4663461178002955D090421F
:1009C00004BF302103F8011B0399002C5DD0002DDA
:1009D0004BDD9C4600294FF02E030CF8013B5BDAFF
:1009E00063463020ACEB010CC91A01E0002D3BD06E
:1009F00003F8010B634505F1FF3503EB0104F5D165
:100A0000039417E000942A463146FFF7A1FD3046D3
:100A100007B0F0BD0246B446002BC9DD6344302761
:100A20000CF8017B9C45FBD100210391002CC3D025
:100A300090421ED0117851B1002D01DC15E0A5B116
:100A400003F8011B12F8011F013D0029F7D1002D09
:100A50000BDD1D44302203F8012BAB42FBD10023F8
:100A60002B70304607B0F0BD03941D4600232B7059
:100A7000F7E70CF8017B6346DCE70146304600F0FF
:100A800099FD70E71C46634699E700299C46F2DA17
:100A9000002DA5DC1D46E9E7117863460029CFD17A
:100AA000D7E700BF70B5C66905460C465EB1F3686E
:100AB000A3B153F82400E8B1026843F824200023CE
:100AC000C0E9033370BD102002F0E0F80646E8618B
:100AD000E8B10023C0E90033C0E902332122042138
:100AE000284600F0ABFFEB69F060DB68002BE0D13B
:100AF000002070BD012101FA04F6721D9200284603
:100B000000F09CFF0028F3D0C0E90146D7E7034B73
:100B1000034832466B2102F0FFF800BFEC8000086A
:100B20000481000870B5C66905460C464EB13CB15B
:100B3000EB696268DB6853F82210216043F82240B9
:100B400070BD102002F0A2F80246E86120B1C0E9B1
:100B50000066C0E90266EAE7024B03488F2102F013
:100B6000DBF800BFEC800008048100082DE9F041AB
:100B70000D6907460E461C4601F1140E0020DEF8F2
:100B800000108BB202FB03434FEA134C090C02FB2B
:100B900001CC01309BB203EB0C4385424EF8043B81
:100BA0004FEA1C44EBDC3CB1B368AB4207DD06EB1B
:100BB000850301355C6135613046BDE8F0817168BF
:100BC00038460131FFF76EFF804690B1326902323C
:100BD00006F10C0192000C30FFF720FC314638463C
:100BE0004646FFF79FFF06EB850301355C613561E3
:100BF000E2E7034B03484246BA2102F08DF800BFFA
:100C000034810008048100082DE9F8431746284A7A
:100C10001E4608330C46092E82FB03124FEAE3738B
:100C20000546C3EB62033ADD4FF0010C00214FEAA9
:100C30004C0C634501F10101F9DC2846FFF732FF56
:100C4000014670B3089B4361092F4FF00103036114
:100C500012DC0A340927BE420BDDF61B264414F8C9
:100C6000013B0A22303B2846FFF780FFB442014691
:100C7000F5D10846BDE8F88304F1090804EB07093B
:100C8000444614F8013B0A22303B2846FFF76EFF2A
:100C90004C450146F5D1A7F108044444DBE70021A7
:100CA000CBE70A46034B0448D32102F035F800BFD6
:100CB000398EE3383481000804810008B0F5803FA4
:100CC000034636BF030400201020B3F1807F3CBFF1
:100CD0001B020830B3F1805F3CBF1B010430B3F14D
:100CE000804F03D3002B06DB013070479B0003D4F9
:100CF0005B0003D4202070470230704703307047F8
:100D0000036813F00702014607D0DA071FD49807DB
:100D100021D55B080B600120704798B2A0B1104646
:100D2000DAB20AB908301B0A1A0704BF1B090430DB
:100D30009A0704BF9B080230DA0703D45B0800F16E
:100D4000010006D00B6070471B0C1020E8E7002064
:100D50007047202070479B080B600220704700BF3F
:100D600010B50C460121FFF79DFE024618B1012384
:100D7000C0E9043410BD034B034840F2451101F0B3
:100D8000CBFF00BF34810008048100082DE9F04F3B
:100D9000D1F810801569A84585B00E46924605DB4E
:100DA0002A46534645468A4690461E46DAF808309B
:100DB000DAF8041005EB0804A342B8BF0131FFF7CD
:100DC00071FE8446002800F08B8000F1140707EBC9
:100DD000840E774505D23B46002243F8042B9E45FE
:100DE000FBD8143606EB88080AF11409464509EBCE
:100DF000850566D2A5EB0A03153B23F003030AF130
:100E0000150A043355452CBF9B464FF0040BCDF813
:100E100008E00394AE46E24605E0090C2AD1B0454D
:100E200007F104074AD956F8041B8DB2002DF4D0FF
:100E3000CC463C46002301965CF8040B216886B240
:100E40008AB2000C05FB0622090C1A4405FB0011AE
:100E500001EB124192B242EA0142E64544F8042B0A
:100E60004FEA1143E8D8019E47F80B3056F8041CAE
:100E7000090CD4D03B68002248461D463C469446A7
:100E8000028801FB02C202EB15429BB243EA024315
:100E900044F8043B50F8043B25684FEA134CABB2CE
:100EA00001FB0C3303EB124370454FEA134CE7D3BD
:100EB000B04547F80B3007F10407B4D8DDE902E488
:100EC000D446002C02DC05E0013C03D05EF8043D72
:100ED000002BF9D06046CCF8104005B0BDE8F08F8B
:100EE000034B044862464FF4B17101F015FF00BF97
:100EF00034810008048100082DE9F04312F0030357
:100F000083B0144607462DD10E46A4101CD0FA69B2
:100F10008AB39568002D39D0E3074FF0000906D455
:100F2000641011D0286898B10546E307F8D531461A
:100F30002A463846FFF72AFF314680463846FFF7F3
:100F4000F1FD64104646EDD1304603B0BDE8F083B4
:100F50002A4629463846FFF719FF2860C0F8009056
:100F60000546E2E7013B184A52F823200023FFF729
:100F7000FDFD0646C9E7102001F088FE0246F86133
:100F8000E0B10023C0E90033C0E902330121384653
:100F90000192FFF787FD019A054640B1012340F217
:100FA0007121C0E90431002390600360B4E7074B6E
:100FB00007482A4640F2451101F0AEFE054B0448B1
:100FC00040F2B31101F0A8FEA87F000834810008A8
:100FD00004810008EC8000082DE9F0470D46914699
:100FE0002B69496803EB6218AB6808F101049C4265
:100FF00007464FEA621A04DD5B009C4201F10101E1
:10100000FADC3846FFF74EFD064600284DD0BAF10F
:10101000000F00F114000EDD0AF105024FEA820C08
:10102000034606EB8202002143F8041B9342FBD1E6
:10103000ACF114031844296905F1140319F01F09D0
:1010400003EB810129D0C9F1200E84464FF0000A3C
:101050001A6802FA09F242EA0A024CF8042B53F821
:10106000042B994222FA0EFAF2D84B1B153B23F0BF
:101070000303043305F11502914238BF042340F8FD
:1010800003A0BAF1000F00D1444638463461294626
:10109000FFF748FD3046BDE8F087043853F8042BCD
:1010A00040F8042F9942F9D8EEE7034B0348324643
:1010B0004FF4EF7101F030FE348100080481000824
:1010C0000B6984460069C01A16D10CF1140C143156
:1010D0000CEB830210B401EB830301E0944508D2CA
:1010E00052F8044D53F8041D8C42F7D005D24FF04E
:1010F000FF305DF8044B7047704701205DF8044BEA
:10110000704700BF2DE9F04F15460A692B69D21AC6
:10111000002A83B0884640F0878001F1140605F16B
:10112000140101EB830106EB830301E09E427ED2B2
:1011300053F8044D51F8042D9442F7D075D32B4643
:101140000024454698466968FFF7ACFC81460028B4
:1011500000F089802E69C460D8F8100005F1140BE6
:1011600008F1140E09F1140A05F110020EEB8000CB
:101170000BEB860157464FF0000CCDF804B05EF83B
:10118000044B52F8045F1FFA84FBABB2A3EB0B03D2
:10119000240C6344C4EB154404EB23449BB243EAA0
:1011A0000443704547F8043B4FEA244CE7D8A0EBD2
:1011B000080208F115084045A2F1150234BF0020CD
:1011C000012092080028DDF804B002F101044FEA82
:1011D000840408BF04240BEB0405A942544433D90A
:1011E0002746284650F8043B1CFA83FE1A0C634439
:1011F00002EB2E429BB243EA0243814247F8043B92
:101200004FEA224CEED80139491B21F003010C446E
:1012100023B954F8043D013E002BFAD04846C9F8E2
:10122000106003B0BDE8F08F89DA01248BE700215C
:10123000FFF738FC814678B101220023C0E904237E
:10124000484603B0BDE8F08F00284FEA820208BF8D
:1012500000220AEB0204DBE7064B07484A4640F24D
:10126000372101F059FD034B03484A4640F245211E
:1012700001F052FD348100080481000882B08DED38
:10128000000B164B019A1340A3F15073002B06DD9F
:1012900000221946104641EC100B02B070475B4229
:1012A000B3F1A07F4FEA235209DA4FF40023134130
:1012B00000221946104641EC100B02B07047A2F113
:1012C00014031E2BDABF4FF00042DA400122002344
:1012D0001946104641EC100B02B070470000F07F39
:1012E000F8B5046900F1140606EB8404271F54F8CE
:1012F000045C2846FFF7E2FCC0F120030A280B60DB
:1013000033DDBE42A0F10B0119D254F8080C21B311
:10131000C1F120078D4020FA07F215438840A4F15F
:10132000080145F07F538E4243F4401319D254F81C
:101330000C1CF9400843024643EC102BF8BD0B2867
:101340000AD005FA01F141F07F53002043F4401325
:10135000024643EC102BF8BD002045F07F5343F4C8
:101360004013024643EC102BF8BDC0F10B0C25FADC
:101370000CF1BE4241F07F5338BF54F8081C00F115
:10138000150034BF21FA0CF1002105FA00F00843E2
:1013900043F44013024643EC102BF8BD2DE9F04313
:1013A0000E4683B0012159EC108B1546FFF77AFBEE
:1013B0000446002846D0C9F30A57C9F313030FB1F6
:1013C00043F480130193B8F1000313D101A8FFF790
:1013D00097FC019B63610122203022610FB3A7F2C9
:1013E00033470744C0F1350037602860204603B01A
:1013F000BDE8F08368460093FFF782FC019BF8B1DB
:101400000099C0F1200203FA02F2C3400A4301939B
:10141000002B62610CBF01220222A3612261002F16
:10142000DDD104EB8203A0F2324030601869FFF78F
:1014300045FCC0EB42102860204603B0BDE8F083B5
:10144000009AE5E7034B0448224640F20F3101F0D1
:1014500063FC00BF34810008048100082DE9F043DB
:1014600083B0884669468146FFF73AFF01A94046A6
:1014700055EC104BFFF734FFD8F81030D9F8102096
:10148000D21ADDE900315B1A03EB4213002B59EC51
:10149000108B0DDD05EB03573D4642464B4620467B
:1014A000294603F083F841EC100B03B0BDE8F0834C
:1014B000C3EB033309EB03518946EEE7172870B5F8
:1014C00006460CDD0A490B4D0020002422462B461F
:1014D00002F042FF013EF9D141EC100B70BD064B0A
:1014E00003EBC003D3E9040141EC100B70BD00BF56
:1014F0000000F03F00002440A87F00080139491196
:1015000001F1010C116902F1140303EB81018B421B
:1015100000EB8C0C16D210B5A0F1040E53F8044B5E
:101520004EF8044F9942F9D88B1A153B23F0030368
:1015300004331844844504D9002340F8043B84450F
:10154000FBD810BD844505D9002340F8043B8445F1
:10155000FBD87047704700BF03694A11934200F1FE
:10156000140009DA00EB830302E053F8042DAAB952
:101570008342FAD80020704700EB8203F8DD11F0B7
:101580001F01F5D010B450F8224024FA01F28A402D
:10159000944209D001205DF8044B70470120704748
:1015A00053F8042D002AF5D18342F9D800205DF8C4
:1015B000044B704780EA0102844612F0030F4FD1BA
:1015C00011F0030F32D14DF8044D11F0040F51F812
:1015D000043B0BD0A3F101329A4312F0803F04BFC9
:1015E0004CF8043B51F8043B16D100BF51F8044BB2
:1015F000A3F101329A4312F0803FA4F101320BD1E2
:101600004CF8043BA24312F0803F04BF51F8043B66
:101610004CF8044BEAD023460CF8013B13F0FF0FC3
:101620004FEA3323F8D15DF8044B704711F0010FF6
:1016300006D011F8012B0CF8012B002A08BF7047C7
:1016400011F0020FBFD031F8022B12F0FF0F16BFBE
:101650002CF8022B8CF8002012F47F4FB3D1704786
:1016600011F8012B0CF8012B002AF9D1704700BFAB
:1016700000207047024A0349034801F0E5BA00BF61
:1016800050000020B9190008040000200C4B4168EC
:10169000994210B5044601D000F08EF9A168094BBB
:1016A000994202D0204600F087F9E168064B994242
:1016B00004D02046BDE8104000F07EB910BD00BF48
:1016C0009C000020040100206C01002000207047D5
:1016D0002DE9F8432A4C2B49DFF8BC90DFF8BC8099
:1016E000294FC4F83811002504230822294604F1A3
:1016F0005C00264EE360C4E90055C4E90455A560CA
:101700006566A561FEF732FE214B63670822294614
:1017100004F1C400C4E90849C4E90A87C4E91A55B8
:10172000C4E91E552567C4F8CC50C4F88050266320
:10173000FEF71CFE174BC4F8DC30294604F16803A1
:10174000082204F59670C4F88830C4E92398C4E9E7
:101750002576C4E93455C4E93855C4F8D850C4F8DE
:101760003451C4F8E850FEF701FE04F1D003C4E997
:101770003D98C4E93F76C4F8F030BDE8F88300BF77
:101780009C00002075160008F12D0008152E000899
:101790000900010012000200892D0008B12D000887
:1017A000F8B5254BD3F838310646002B3CD0234FF3
:1017B000D7E90134013B04D51DE05A1C04F168044B
:1017C00019D0B4F90C50013B002DF6D11C4BE3604D
:1017D000C4E90155C4E9045565662560A561082280
:1017E000294604F15C00FEF7C1FDC4E90D55C4E9CA
:1017F00012552046F8BD3D680DB12F46D8E74FF48D
:10180000D671304600F052F9044680B10423C0E995
:1018100000530C302946A0604FF4D0722546FEF7E5
:10182000A5FD3C602F46C3E7FFF752FFBFE70C233F
:1018300038603360DDE700BF9C00002050000020CE
:101840000100FFFF036A03B17047044B044AD3F859
:1018500038310262002BF7D13AE700BF9C0000202C
:101860008D160008704700BF704700BF024A034949
:10187000002001F0E9B900BF5000002071160008F7
:10188000024A0349002001F0DFB900BF50000020E8
:10189000CD160008B1F90C302DE9F0411E070C46B9
:1018A00080463DD44A68002A56DDE56A002D34D0D2
:1018B0000022D8F80060C8F8002013F48052216A92
:1018C00057D101234046A847451C024666D0B4F9CB
:1018D0000C30E56A216A580705D56368D21A636B34
:1018E0000BB1236CD21A00234046A847431C42D0B8
:1018F0000023636023692360A389DF0400D560654A
:10190000616BC8F8006041B104F14403994202D010
:10191000404601F03BF9002363630020BDE8F081FD
:101920000E69002EF9D09B070D6808BF4B690E6049
:1019300018BF0023AD1B8B600BE02B463246216A9B
:10194000A76A4046B847B0F1000CA5EB0C05664409
:1019500006DD002DF1DCE0E70A6C002AA5DCDCE7FF
:10196000B4F90C3043F04003A3814FF0FF30BDE8E1
:10197000F081626DAFE7D8F80010B4F90C301D2982
:10198000F0D80C4ACA40D507ECD522692260002263
:101990006260DA04B4D50029B1D0B1E7D8F80030DC
:1019A000002B94D01D2B01D0162BD9D1C8F8006084
:1019B000B3E700BF010040200B69B3B110B5044686
:1019C00082B008B1036A5BB1B1F90C3013B90020E1
:1019D00002B010BD204602B0BDE81040FFF75ABF6C
:1019E0000191FFF72FFF0199EEE70020704700BF3C
:1019F000B8B138B50D4A0369156804462BB10DB16D
:101A00002B6A53B1B4F90C300BB9002038BD214614
:101A10002846BDE83840FFF73DBF2846FFF712FFD4
:101A2000F0E7034A0349044801F00EB90000002022
:101A300050000020B91900080400002070B5A1FB77
:101A4000025454B9294600F031F8064618B12A4626
:101A50002146FEF78BFC304670BD0C22026000264A
:101A6000F9E700BF70B5104E336805460C46B3B1B8
:101A70002146284601F076F9431C0CD0C41C24F002
:101A80000304A04205D0211A284601F06BF9013069
:101A900001D0204670BD4FF0FF34204670BD19467E
:101AA00001F060F93060E3E7D80100202DE9F84348
:101AB000CD1C25F0030508350C2D38BF0C25002D55
:101AC000064618DBA94216D8DFF8DC8001F020F9C1
:101AD000D8F80420A2B1144603E0636822467BB123
:101AE0001C4623685B1BF8D40B2B1FD894426368F9
:101AF00054D053600CE00C2333600020BDE8F88321
:101B000029463046FFF7AEFF431C044619D0056056
:101B1000304601F0FFF804F10B00231D20F0070010
:101B2000C21A1CBF1B1AA350BDE8F8836119944266
:101B3000256014BF5160C8F80410635163684B609E
:101B4000E6E7D8F804701FB33C467F68002FFBD14E
:101B500023683946304604EB030901F003F9814557
:101B600016D12368ED1A29463046FFF77BFF013076
:101B70000ED02368D8F804202B442360536883B127
:101B8000A34203D01A465B689C42FBD10023B0E716
:101B90000C233360304601F0BDF8AEE7C8F80430DE
:101BA000B6E7C8F80470B3E7D801002000000000D1
:101BB0002DE9F04F03690C69A34283B0C0F28A801B
:101BC000013C01F1140500F1140855F8243058F8CF
:101BD000242001339A428E4681464FEA840105EB68
:101BE000840708EB840AB2FBF3F63AD3CDE900157B
:101BF0000022AC46404613465CF8041B05681FFAF9
:101C000081FB06FB0B22090C4FEA124B06FB01BBC2
:101C100092B2A9B2891A19441FFA8BF3C3EB21437C
:101C200003EB154389B241EA0341674540F8041BC1
:101C30004FEA1B424FEA2343DED2DDE9001558F894
:101C4000013073B9AAF1040AD04504D307E0D045A6
:101C500004F1FF3403D25AF80439002BF7D0C9F845
:101C6000104071464846FFF72BFA00282EDB41460C
:101C7000002255F8040BD1F800C01FFA80FE1FFAAD
:101C80008CF3A3EB0E031344020CC2EB234202EBD2
:101C90001C429BB243EA0243AF4241F8043B4FEA85
:101CA0002242E6D258F8242008EB84036AB9043BA8
:101CB000434504D807E0984504F1FF3403D253F8B4
:101CC0000429002AF7D0C9F810400136304603B085
:101CD000BDE8F08F002003B0BDE8F08F2DE9F04F94
:101CE000C5699DB08DED060B269C049057EC106BDA
:101CF00002910B920993002D00F0B183296851B134
:101D00006A684A60012393408B60FEF70BFF049BD7
:101D1000DB6900221A60B7F10009B4BF0123002378
:101D20002360774BBCBF29F00049CDF81C9033EA03
:101D3000090300F0AC809DED067B002251EC170BEF
:101D400000238DED007B02F06FFD804668B1099A9B
:101D500001231360279B13B1279A6A4B13606A4BC8
:101D6000059305981DB0BDE8F08F9DED000B04981C
:101D70001AAA1BA9FFF712FB5FEA1955824640F029
:101D80009C80DDE91A85454405F23243202B40F35F
:101D90009B83C3F1400309FA03F905F2124326FAC3
:101DA00003F349EA030002F05DFA0123013DA1F1CA
:101DB000F8711293554B002202F016F94AA3D3E9A9
:101DC000002302F0C9FA4AA3D3E9002302F00EF976
:101DD000064628460F4602F055FA47A3D3E90023EA
:101DE00002F0BAFA02460B463046394602F0FEF8D7
:101DF00006460F4602F04AFD0022044608900023E2
:101E00003046394602F01AFD002840F03683089C1F
:101E1000A8EB0508162C08F1FF3B00F214833C4B9D
:101E200003EBC403D3E90023DDE9000102F006FD62
:101E3000002873D0631E0893BBF1000F4FF000031E
:101E40001193C0F2068300230C93089B002B6BDADE
:101E5000089B0C9A0D93D21A0C925A4200230893B5
:101E6000029B1092092B67D8052BC4BF043B029339
:101E7000029BA3F10203CCBF00250125032B00F236
:101E80004986DFE813F07C04790470045204099A4F
:101E9000C9F3130942F20F7359EA060913601CD102
:101EA000279B002B00F02D861A4B05930833279AA9
:101EB000059813601DB0BDE8F08FDDE90012C2F394
:101EC0001303084643F07F51CDF84880A5F2FF3553
:101ED000DDF8688041F440116CE7279B002B40F04F
:101EE00000840D4B05933CE761436F63A787D23FA6
:101EF000B3C8608B288AC63FFB799F501344D33FF9
:101F00000000F07F59810008588100080000F83F68
:101F1000B87F00084881000854810008B8F1000F1C
:101F200040F3AF8411900C90089B0D939B440023C9
:101F30001093029B092B97D900234FF0FF32CDE974
:101F40000A23012502930E95049BDB690021596049
:101F50000A9B13930498FEF7A5FD0590002800F056
:101F6000E285049B059ADB691A600A9B0E2B00F23E
:101F70000D81002D00F00A810D99002940F3518454
:101F8000AE4B01F00F0203EBC203C805D3E9008991
:101F90004FEA211540F11584A94BDDE90001D3E991
:101FA000082302F003FBCDE9140105F00F05032718
:101FB0007DB1A34EE90708D540464946D6E900233E
:101FC00002F0CAF90137804689466D1006F108060D
:101FD000F0D142464B46DDE9140102F0E7FA8046B3
:101FE0008946119B43B1974B00224046494602F077
:101FF00025FC002840F01785384602F043F9424698
:102000004B4602F0A9F9904B002201F0EFFFA1F13D
:102010005073CDE9140115930A9B002B00F09D80AD
:102020000D9B19930A9B18934946404602F02EFCDB
:10203000189A824B03EBC20313ED027B05468DED2C
:10204000167B02F01FF90B4602464946404601F056
:10205000CBFF059F0E9B30357E1CECB28046894637
:102060003546002B00F07284DDE916237749002005
:1020700002F09CFADDE9142301F0B6FF3C70424601
:102080004B4604460D4602F0F7FB002840F0BF84A3
:10209000CDF858B0CDF850A0AB460027189DA24609
:1020A0002AE00137AF4280F20685694B5046594617
:1020B000002202F051F9664B002282468B464046D0
:1020C000494602F049F98946804602F0DFFB0446A2
:1020D00002F0D8F802460B464046494601F084FF1C
:1020E000303406F8014B52465B468046894602F082
:1020F000A5FB002840F0DC8442464B4651490020B5
:1021000001F072FF52465B4602F098FB0028C8D0EF
:10211000199BDDF850A0059A374603F1010802E04B
:10212000974200F0A6843E4617F8013D392BF7D0C0
:102130000133DBB23B70454674E1384602F0A2F849
:1021400042464B4602F008F93F4B002201F04EFF99
:10215000A1F15073CDE9140115933E4B0022404686
:10216000494601F041FFDDE9144522462B4606466B
:102170000F4602F081FB002840F08A843046394641
:10218000224605F1004302F059FB28BB1B9B002BA4
:10219000C0F292800D9A0E2A00F38E80274B0D9A82
:1021A00003EBC20393ED007B0B9B002B8DED027BB9
:1021B00019DA0A9B002B16DC0ED1264B0022DDE932
:1021C000020102F0C9F802460B46DDE9000102F007
:1021D0003FFB002800F05C840023059E00931F460F
:1021E0000B9BDD4344E2059B5D1CDDE90278DDE9E4
:1021F00000013A46434602F0D9F902F047FB064691
:1022000002F040F83A46434602F0A6F802460B4672
:10221000DDE9000101F0E8FE059A06F130031370D4
:102220000A9B012B2F4600F037830125CDF800A033
:10223000A846DDE902AB99462CE000BFB87F000854
:10224000A88000080000F03F00001C400000E03FB4
:10225000000024400000144052465B4620462946B8
:1022600002F0A4F902F012FB064602F00BF8524607
:102270005B4602F071F808F101080B460246294658
:10228000204601F0B1FE06F13003C84507F8013BD6
:1022900000F000838F4B002202F05EF80022002342
:1022A00004460D4602F0C0FA0028D5D00D9DDDF899
:1022B00000A001353E46B5E00E9A002A40F0F180BC
:1022C0000023109E0C9D0E931F4665B1BBF1000FBD
:1022D00009DD5D450C9A2B46A8BF5B46D21A0C92CD
:1022E000ED1AABEB030B109B53B10E9B13B1002EF9
:1022F00040F00B835146109A0498FEF7FDFD82468C
:1023000004980121FEF72CFD089B0090002B40F063
:10231000D381029B012B40F3E9810120584410F046
:102320001F0000F0B780C0F12003042B40F3F881B8
:102330000C9BC0F11C0003440C93054483440C9B8C
:10234000002B05DD514604981A46FEF745FE8246ED
:10235000BBF1000F05DD009904985A46FEF73CFEDC
:102360000090119B002B40F08C810A9B002B40F3C6
:1023700064810E9B002B40F0BC800D9D0135DDF883
:102380001480009CDDF828B0DDF81090012607E0ED
:10239000514600230A224846FEF7E8FB01368246F2
:1023A00021465046FFF704FCB34500F1300008F821
:1023B000010BEDDC0A9B002BC8BF1E46059BD8BF56
:1023C0000126814603EB060B0024514601220498A6
:1023D000FEF702FE00998246FEF772FE002840F3E7
:1023E0000382059A02E0934500F016825E460BF1E7
:1023F000FF3B16F8013C392BF5D001338BF8003048
:10240000DDF8108000994046FEF78CFB57B12CB1E7
:10241000BC4203D021464046FEF784FB049839466F
:10242000FEF780FB04985146FEF77CFB00233370D7
:10243000099B1D60279B002B3FF493AC05981E6001
:102440001DB0BDE8F08F0123BBF1000F1193BFF663
:10245000FAACC8F101030C934FF0000BF5E4102027
:1024600000F014FC049B0246D861002800F04D8364
:10247000C0E90055C0E902554DE4204601F002FFD5
:1024800032463B4602F0D0F900287FF4C0AC631E10
:102490000893BCE41C230C9A1A440C921D449B44E0
:1024A0004DE7029A012A40F3AA810A9B109A5E1E08
:1024B000B242C0F26781002BA2EB060680F2EC82EA
:1024C0000C9B0A9A9D1A6AE1C3F1200306FA03F0F5
:1024D00069E400BF000024403946002304980A2222
:1024E000FEF744FB139B002B074640F3FE820D963C
:1024F0000A93002D05DD394604982A46FEF76CFD47
:102500000746089B002B40F0E481B846059E0A9CD4
:10251000731E1C44069B03F00103CDE90B43049C8E
:1025200000995046FFF744FB394683465046FEF774
:10253000C7FD0099054642462046FEF7E3FDC36805
:102540000BF130090146ABBB0A905046FEF7B8FDCF
:102550000A9908902046FEF7E5FA089A002A54D115
:10256000029B1BB90C9B002B00F0AB82002D3FDBC4
:102570000B9BB346B3420BF8019B00F0C18151465F
:1025800000230A222046FEF7F1FA474582463946E3
:102590004FF000034FF00A02204630D0FEF7E6FA73
:1025A0004146074600230A222046FEF7DFFA5E4630
:1025B0008046B5E70498FEF7B5FA002D06DB069BCA
:1025C00003F00102029B1D432A4329D151460122F7
:1025D0000498FEF701FD00998246FEF771FD002880
:1025E00040F3F680B9F1390F00F048820BF1310960
:1025F0000D9D06F8019B3C460135474600E7FEF776
:10260000B5FA5E46074680468AE7002DC0F29D82F5
:10261000029B1D430C9B1D4300F09782002AA7DDFF
:10262000B9F1390F00F02A820D9D09F101033C46F2
:1026300006F8013B01354746E2E6029B022B7FF795
:1026400098AE0A9B002B40F0238100990498052244
:10265000FEF78CFA014600905046FEF731FD002847
:1026600040F31681059E0D9D312306F8013B01358F
:1026700000990498FEF756FA0135002F7FF4CEAE8C
:10268000D0E600995046FEF71BFD0028BFF66DAE60
:102690005146002304980D9C0A22FEF767FA0E9B10
:1026A000661E8246002B7FF417AF139B002B40F36E
:1026B0000F820D9D0A9362E601461A460498FEF7C2
:1026C0001BFC029B0090012B6FDD00230893009AF6
:1026D000136902EB83031869FEF7F0FAC0F12000DA
:1026E0001CE6964B05930333FFF7E1BB069B002BDB
:1026F0007FF413AEDDE90612C2F31303002B7FF45F
:102700000CAE8F4B13402BB10C9B01330C930BF190
:10271000010B0123089A0893002A3FF4FEADD6E787
:102720003FF40DAEC0F13C03B5E601230E930B9BC5
:102730000D9A134413930133012B1F460A93B8BF1C
:102740000127049B172FDE6940F2FB81012204233D
:102750005B0003F11400B842114602F10102F7D9FF
:102760007160FFF7F7BB01230E930B9B002B36DD47
:102770001F4613930A93E4E700230E93D7E7002341
:102780000E93F2E7109B089A1096F31A1A440892D7
:102790000A9B0C9A15461A449B440C9200260498F6
:1027A0000121FEF7DDFA07468FE5069B002B8CD151
:1027B000DDE90601C1F313030A46002BA1D00890FE
:1027C00085E79DED007B02278DED147BFFF7F0BBC5
:1027D0007FF40EAF19F0010F7FF404AF08E7012377
:1027E000CDE90A33FFF7B0BB03D119F0010F7FF435
:1027F000F8AD5E461BF8013D302BFAD000E6129A88
:10280000002A00F0078103F233430C9A109E15460C
:102810001A449B440C92C2E7059A31230135137088
:10282000EEE500F0FB800D9A464B554205F00F0295
:1028300003EBC203D3E90023DDE9000101F08CFDC5
:102840002D11CDE9140100F057813F4E00230227DE
:1028500080468946EA0709D5D6E90023404649461D
:1028600001F07AFD01378046894601236D1006F19B
:102870000806EFD1002B7FF4B4ABDDE91489FFF734
:10288000B0BBC8F1010383460C931190FFF74CBB1A
:10289000059EA5E4DDF800A002460B4601F0A6FB6C
:1028A0000D9D02460B46CDE900230135DDE90223EB
:1028B000A84601F0E1FF40B9DDE90223DDE90001AE
:1028C00001F0B2FF18B1F30701D5059A2BE43E469B
:1028D000A8E579680498FEF7E5F80546002800F0B9
:1028E00029813B6902339A0007F10C010C30FDF796
:1028F00095FD049829460122FEF76EFB804605E609
:102900000D9D3C46013547465FE5049C39463246FD
:102910002046FEF7F1FA5246014607462046FEF7EA
:1029200035FA514680462046FEF7FCF8109B9B1B6B
:10293000C24610933FF4E4ACDCE400BF54810008CD
:102940000000F07FB87F0008A8800008DDE91623AA
:10295000DDE9140101F000FD059B1C70189B012BA3
:10296000CDE90E0100F0BF80189F059B12961F4411
:102970007E4B00224046494601F0EEFC0D460446DF
:1029800001F084FF814601F07DFC09F13009024627
:102990000B462046294601F027FB06F8019BB7426B
:1029A00080468946E4D1129D714B0022DDE90E017B
:1029B00001F01CFB02460B464046494601F05CFF15
:1029C00000286FD1DDE90E236949002001F00CFBDE
:1029D00002460B464046494601F030FF88B91B9B32
:1029E000002BFFF66DAC0D9B0E2B3FF769AC614BD6
:1029F0000D9A03EBC20393ED007B8DED027BFFF795
:102A0000F4BB3E46013F16F8013C302BF9D0199D2E
:102A1000013507E51A9BC3F13603F6E6DDE90089C7
:102A20000227FFF7DEBA0A9B002B3FF486AB139C0C
:102A3000002C7FF7ABAB0D9B013B00224046494683
:102A400019934A4B01F088FC80468946781C01F0B6
:102A500019FC42464B4601F07FFC474B002201F037
:102A6000C5FAA1F15073CDE9140118941593FFF73D
:102A7000DBBA08F101083123FFF75CBB0D9D059A15
:102A8000B34639233C460BF8013B01354746ADE4DC
:102A9000002300931F46E5E50C9A15461A449B4413
:102AA0000C927CE6199B059A03F10108FFF73BBBEA
:102AB000DDF850A0ABE7DDF858B0DDF850A0FFF727
:102AC00065BBB9F1390FD9D0002D3FF78FAD8FE538
:102AD000029B022B03DC139B0D9D0A934FE4139B77
:102AE0000A930D96ADE537465EE7029B022BF6DCB6
:102AF000139B0D960A93FCE4DDE914890227FFF786
:102B000070BA1E4B0593FFF72CB91D4B1D48EF21E2
:102B100000F002F90498C36900255D602946FDF7BD
:102B2000C1FF0590A8B9184B1648002240F2AF111A
:102B300000F0F2F8144B13482A4640F2EF2100F05F
:102B4000EBF800217160FFF705BA002A3FF73EADB0
:102B50004EE5049B059ADB690B951A604FF0FF3335
:102B6000012213930E920A93FFF710BB000024403A
:102B70000000E03FB87F000800001C4048810008CA
:102B8000EC8000085C81000834810008002950D0E6
:102B900038B551F8043C0C1F002BB8BFE4180546AB
:102BA00000F0B6F8274A13682BB1A3420CD921686C
:102BB000601883422CD0636028461460BDE838401A
:102BC00000F0A8B8A3420FD81A465B68002BF9D1D1
:102BD00011685018844217D02CD363605460284683
:102BE000BDE8384000F096B811685018A04214D0E3
:102BF00020D8216860188342EFD118685B680844C8
:102C0000C4E900035460EAE723680B441360E6E775
:102C100018685B6808442060CDE7206801445018BC
:102C200083421160DBD1D3E900040144C2E90014FE
:102C3000D5E770470C232B602846BDE8384000F0EC
:102C400069B800BFDC0100202DE9F843074688463B
:102C500016464FF00009D6E90154013D10D4A3896E
:102C6000012B08D9B4F90E3001332146384602D081
:102C7000C04749EA0009013D6B1C04F16804EED12C
:102C80003668002EE7D14846BDE8F883024B01467E
:102C90001868FEF70BBF00BF00000020024B014682
:102CA0001868FFF773BF00BF000000202DE9F04156
:102CB000144641B30AB306460D4600F0AFF884420D
:102CC000074602D8B4EB500F13D821463046FEF722
:102CD000EDFE804650B1BC422246294628BF3A4606
:102CE000FDF79CFB29463046FFF750FF4046BDE804
:102CF000F081A8464046BDE8F081A046FFF746FFB8
:102D00004046BDE8F081BDE8F0411146FEF7CEBE79
:102D1000704700BF704700BF00B50B4C25681446D4
:102D2000EE681A4685B003460D464CB1074900953A
:102D3000CDE901143046064900F0B6F800F076F807
:102D400004490C46F3E700BF00000020888100081A
:102D5000988100089481000808B513460022FFF707
:102D6000DBFF00BF38B5074D0022044608462A6045
:102D700005F086F8431C00D038BD2B68002BFBD033
:102D8000236038BDE001002010B50C46B1F90E10EB
:102D900000F066F8002803DB636D0344636510BD33
:102DA000A38923F48053A38110BD00BF0020704786
:102DB0002DE9F0410C46B1F90C101F46CB05054634
:102DC00016460BD421F48051A1813B46B4F90E1074
:102DD00032462846BDE8F04100F090B8B4F90E1034
:102DE0000223002200F074F8B4F90C10EAE700BFE7
:102DF00010B50C46B1F90E1000F06AF8B4F90C30B9
:102E0000421C0EBF23F4805343F480536065A381BA
:102E100010BD00BFB1F90E1000F010B851F8043C1D
:102E2000181F002BBCBF0B58C018704708B50620F0
:102E300000F068FC012005F051F800BF38B5074DDF
:102E40000022044608462A6005F06CF8431C00D0B6
:102E500038BD2B68002BFBD0236038BDE00100207B
:102E600038B50C46084D8446114620461A460023C4
:102E70002B60644605F038F8431C00D038BD2B6841
:102E8000002BFBD0236038BDE00100200CB400B55E
:102E900083B004AB53F8042B019300F08BF803B01C
:102EA0005DF804EB02B070470EB410B583B005AB0B
:102EB000064C53F8042B01930146206800F07AF881
:102EC00003B0BDE8104003B0704700BF0000002011
:102ED00038B50C46084D8446114620461A46002354
:102EE0002B60644605F028F8431C00D038BD2B68E1
:102EF000002BFBD0236038BDE001002038B50C4624
:102F0000084D8446114620461A4600232B6064462D
:102F100004F0FAFF431C00D038BD2B68002BFBD017
:102F2000236038BDE00100209368013B002B9360D3
:102F300011DA10B49469A34209DB0A2907D0136897
:102F4000581C1060197008465DF8044B70475DF816
:102F5000044B00F073B91368581C106019700846D0
:102F6000704700BF9BB1F8B5134406460F46541E88
:102F70005D1E01E0AC4208D014F8011F3A4630460D
:102F8000FFF7D2FF431CF5D1F8BD0020F8BD0020AB
:102F9000704700BF936810B514461BB9184600234C
:102FA000636010BD00F09AF90023A3600023636002
:102FB00010BD00BF2DE9F04FA1B08B4691461C46D5
:102FC000049018B1036A002B00F01C81BBF80C3090
:102FD000180740F19580DBF81030002B00F090804E
:102FE0000023CA460D9343F22003ADF839309AF816
:102FF0000030864E07940127002B79D0D14604E09B
:1030000019F8013F002B00F08580252BF8D1B9EB92
:103010000A0840F0828099F80030002B68D0002325
:103020004FF0FF32CDE9092309F1010908930B9311
:103030008DF863301E9305E0089A07FA03F31A43EC
:103040000892A1464C46052214F8011B304600F0B8
:1030500077FCA246831B0028EED1089BD90644BF0B
:1030600020228DF8632099F800101A0744BF2B2204
:103070008DF863202A2966D1079A11680432002945
:103080000792C0F29A800B9199F801102E2970D006
:103090005F4C0322204600F053FC38B1089B001B14
:1030A0004022824013430AF1010A08931AF8011BD7
:1030B00058488DF83810062200F042FC002800F035
:1030C0008280554B002B69D007AA0092534B04987D
:1030D0005A4608A9AFF300800390039B013307D041
:1030E0000D9B039A13440D939AF80030002B85D161
:1030F000BBF80C305B060AD40D9821B0BDE8F08F08
:103100000498594600F06CFC00283FF469AF4FF07A
:10311000FF30F2E7B9EB0A08EAD00AF1FF35CDF843
:103120001490A946049D01E0A0453ED94C465A465C
:1031300019F8011F2846FFF7F7FE02340130A4EB0F
:103140000A04F1D1D4E7A1F13002092A88BFCA46A6
:103150009CD80B9B00E00134217803EB830302EB46
:103160004303A1F13002092AF5D92E290B93A24677
:103170008ED19AF801102A292FD1079B9AF80210B4
:103180001A6809920433002A0AF102000793B8BFB3
:103190004FF0FF338246B8BF099379E7079B0733A7
:1031A00023F00703083307939AE70D99DDF814908D
:1031B000414499F800300D912FE7494243F0020352
:1031C0000B91089360E707AA0092144B04985A46A3
:1031D00008A900F0F9FC03907FE7A1F13002002379
:1031E000092A09930AF1010A3FF652AF1AF8011FA2
:1031F00003EB830302EB4303A1F13002092AF5D963
:10320000099345E7FEF71EFBE0E600BFC881000812
:10321000D0810008D481000800000000652F00085C
:1032200010B4054C8446134620685DF8044B0A46EA
:103230006146FFF7BFBE00BF00000020F8B50D4695
:103240001446064610B1036A002B37D0A389A26941
:10325000A2601A0719D52369BBB122686169D31A24
:10326000EDB299422F4620DD0133A1680139A160FA
:10327000511C2160157062699A420DD0A389DB0749
:1032800001D50A2D08D03846F8BD2146304600F059
:10329000A7FB38B92369E0E721463046FEF78CFBEF
:1032A0000028F0D04FF0FF37EDE721463046FEF71B
:1032B00083FB0028F6D122680123D6E7FEF7C2FA85
:1032C000C4E700BF10B4044C03460A4620685DF80A
:1032D000044B1946FFF7B2BF000000209368002B93
:1032E00000F0F8802DE9F04FB1F90CC01CF0080F88
:1032F00083B0904681460C4631D00B697BB31CF0FD
:103300000207D8F8006038D00027D4F828B0216A26
:10331000DFF8C4A23D4655452B463A4628BF5346E2
:103320004846C5B1D847002840F3CA80D8F80830CD
:103330001B1A07442D1AC8F80830002B00F0B6807D
:1033400055452B46D4F828B0216A28BF53463A4643
:103350004846002DE6D1D6E900750836DBE7214660
:10336000484600F03DFB002840F0AF80B4F90CC0A7
:10337000D8F800601CF00207C6D11CF0010A63D126
:103380002368A168574618468B46002F58D01CF476
:10339000007F00F0B580B9420A4600F2E1801CF4DB
:1033A000906F2FD0216962695D1A02EB420202EB35
:1033B000D2726B1C52103B44934292BF93469B4681
:1033C0001A461CF4806F00F0EA8011464846FEF76A
:1033D0006DFB002800F0F9802A4621690090FDF776
:1033E0001DF8A289009B22F4906242F08002A28123
:1033F0005819ABEB0505C4F814B02361A560206033
:10340000BB463A465146009200F018FAA16823687C
:10341000009AA1EB0B011A443D46A16022600027EF
:10342000D8F808305B1BAA44C8F80830002B3DD000
:103430002368A168B4F90CC018468B46002FA6D1AA
:10344000D6E900A708369EE73846BB463D460097BA
:10345000002D41D0002846D0009A2068A168D4E908
:103460000473AA4228BF2A46B84204D901EB030AD2
:10347000524500F38580934275DC216AA76A5A465B
:103480004846B847B0F1000A1ADD009BB3EB0A03C7
:1034900000930FD00120D8F80830A3EB0A03D344DF
:1034A000A5EB0A05C8F80830002BD1D1002003B0E5
:1034B000BDE8F08F21464846FEF77EFA0028EAD0A4
:1034C000B4F90C3043F04003A3814FF0FF3003B058
:1034D000BDE8F08F00207047756833460836002D30
:1034E000FAD0D3F800B02A460A21584600F028FA4C
:1034F000002867D00130A0EB0B0300931A46ACE71D
:1035000022699A4214D36269BA4211D86FF000431B
:10351000BB4228BF3B46A56A93FBF2F3216A02FB3C
:1035200003F348465246A847051EC9DD7F1B77E7CF
:10353000B94228BF39460D4618460A46514600F0A2
:103540007DF9A1682368491B2B44A16023600029F1
:10355000ECD121464846FEF72FFA0028E6D0AFE727
:10356000BB463A464EE75946019200F067F9019A88
:10357000A3689B1AA360236813442360924684E7E0
:103580005946524600F05AF92368534423602146B5
:103590004846FEF711FA00283FF477AF90E7484617
:1035A000FFF784FB034600287FF422AF21694846D9
:1035B000FFF7ECFAB4F90C300C22C9F8002023F024
:1035C00080037FE76A1C009247E70C22B4F90C30B5
:1035D000C9F8002076E700BF00FCFF7F38B5C46B58
:1035E0000CB1002038BD80210546FEF75FFA024687
:1035F000E86330B1031F7C3243F8044F9342FBD1A0
:10360000EFE74FF0FF3038BD30B51F2983B00546D6
:1036100008D8C36B0C4653B153F8240043F8242058
:1036200003B030BD162303604FF0FF30F8E7802170
:103630000192FEF73BFA019AE86303460028F3D0B3
:10364000011F00F17C05002041F8040FA942FBD1C5
:10365000E2E700BF1F2938B505461ED8C26B0C46ED
:103660006AB152F8213053B1012B06D0591C10D049
:10367000002142F8241020469847002038BD2846F3
:1036800000F096FC224601462846BDE8384000F08E
:1036900079BC16230360012038BD162303604FF068
:1036A000FF3038BD1F292AD838B5C36B0C460546F4
:1036B000A3B153F8242003EB84034AB1511C0BD06F
:1036C000012A07D0002520461D609047284638BDB6
:1036D000012038BD032038BD022038BD8021FEF70F
:1036E000E5F90346E86338B1021F00217C3042F857
:1036F000041F8242FBD1DCE74FF0FF3038BD4FF0B2
:10370000FF30704738B5134B1F281D681DD8EA6B72
:10371000044662B152F820304BB1012B05D0591C40
:103720000FD0002142F820109847002038BD2846CD
:1037300000F03EFC224601462846BDE8384000F035
:1037400021BC16232B60012038BD16232B604FF0BF
:10375000FF3038BD00000020114B1F2870B51E68D7
:1037600008D8F36B04460D464BB153F8240043F8D8
:10377000245070BD162333604FF0FF3070BD8021A0
:103780003046FEF793F90346F0630028F4D0021F99
:1037900000217C3042F8041F8242FBD1E5E700BFE4
:1037A0000000002038B50B4B1D68EC6B0CB10020FD
:1037B00038BD80212846FEF779F9E86338B1031F48
:1037C00000F17C0243F8044F9342FBD1EFE74FF046
:1037D000FF3038BD0000002038B5174B1F281D688A
:1037E00026D80446E86BA0B150F8243000EB8400E2
:1037F0004BB15A1C0BD0012B07D000250560204689
:103800009847284638BD012038BD032038BD022026
:1038100038BD80212846FEF749F9E86340B1031F0F
:1038200000F17C01002243F8042F8B42FBD1DBE73F
:103830004FF0FF3038BD00BF0000002088420ED995
:103840008B1883420BD900EB020C002A6ED0624623
:1038500013F801CD02F801CD9942F9D170470F2A32
:103860000FD8034602F1FF3C002A5FD00CF1010C97
:10387000013B8C4411F8012B03F8012F6145F9D16C
:10388000704740EA01039B0751D1A2F1100370B5C4
:1038900001F1200C23F00F0501F1100E00F11004CE
:1038A000AC441B095EF8105C44F8105C5EF80C5CDC
:1038B00044F80C5C5EF8085C44F8085C5EF8045C54
:1038C00044F8045C0EF1100EE64504F11004E9D151
:1038D000013312F00C0F01EB031102F00F0400EBA7
:1038E000031328D0043C24F003064FEA940C1E4432
:1038F0001C1F8E465EF8045B44F8045FB442F9D1A5
:103900000CF1010402F0030203EB840301EB8401D8
:1039100002F1FF3C4AB10CF1010C013B8C4411F85F
:10392000012B03F8012F6145F9D170BD704702F1F9
:10393000FF3C03469AE72246EAE700BF000000008A
:1039400001F0FF01102A2BDB10F0070F08D010F850
:10395000013B013A8B422DD010F0070F42B3F6D154
:10396000F0B441EA012141EA014122F007047FF06D
:1039700000070023F0E80256083C85EA010586EAC4
:10398000010685FA47F5A3FA87F586FA47F6A5FA00
:1039900087F68EB9EED1F0BC01F0FF0102F007020C
:1039A00032B110F8013B013A83EA010313B1F8D1B7
:1039B0000020704701387047002D06BF3546033898
:1039C000073815F0010F07D1013015F4807F02BFD1
:1039D000013015F4C03F0130F0BC0138704700BF22
:1039E00038B52F4B1B6805460C4613B11A6A002ADE
:1039F0004BD0B4F90C3018071CD5226922B313F050
:103A0000010107D0616900204942A060A1613AB17B
:103A1000002038BD980758BF6169A160002AF7D11E
:103A2000190658BF1046F4D543F04003A3814FF068
:103A3000FF3038BDD9062CD55A0712D4226943F07D
:103A40000803A381002ADAD103F42071B1F5007FC5
:103A5000D5D02146284600F0F9F9B4F90C30226996
:103A6000CDE7616B51B104F14402914204D0284684
:103A7000FFF78CF8B4F90C30002262632269002150
:103A8000C4E9002123F02403D9E71846FDF7DAFE44
:103A9000AFE7092243F040032A60A381C7E700BFD4
:103AA000000000202DE9F84F92461F460A698B68F6
:103AB000DDF828909A42B8BF1A46CAF8002091F85B
:103AC00043300C46064613B10132CAF80020226882
:103AD00091065FD5DAF800300233CAF80030226868
:103AE00012F0060F11461DD1E1689942D8BF114668
:103AF00018DD4FF0000804F1190B05E0E568DAF86D
:103B00000030ED1A45450CDD01235A463946304652
:103B1000C847013008F10108F0D14FF0FF30BDE88F
:103B2000F88F216894F84330003B18BF01238A06C0
:103B30000AD5E1185A1C302081F84300224494F839
:103B4000451082F84310023304F1430239463046EF
:103B5000C8470130E1D02368DAF80050216903F04A
:103B60000603042BD4E902201BD08A4220DD4FF04B
:103B70000008521A90441A34002501E0454517DA2E
:103B80000123224639463046C847013005F1010578
:103B9000F4D1C2E712F0060F0DD0003B18BF01238D
:103BA000D2E7401B8A4220EAE078E2DC0028E2DC2F
:103BB0000020BDE8F88FE168DAF800309942D8BFFC
:103BC000114696DCAEE700BF2DE9F047174684B0FA
:103BD0000A7E0C9D0C460646984601F1430C002ACD
:103BE00035D0A2F15803D9B2202969D8202B67D843
:103BF000DFE813F0E6006600660066006600660017
:103C000066006600660066006600AC007000660034
:103C1000660066006600700066006600660066006A
:103C200021008300C60066006600B60066008300BF
:103C300066006600EC002B6822686169181D286028
:103C400010061B6802D4520600F1E08019600023C0
:103C5000E1462361CDF800803B4603AA2146304669
:103C6000FFF720FF013020D023694A46394630460D
:103C7000C047013019D02368E068DDF80C909B073D
:103C800018D5484516DD002504F1190A04E0E0685E
:103C9000A0EB0903AB420DDD012352463946304605
:103CA000C047013005F10105F1D14FF0FF3004B0FC
:103CB000BDE8F0874845B8BF484604B0BDE8F08786
:103CC00084F84220012004F142090023206184F895
:103CD0004330BFE72A682368111D1806296002D403
:103CE000590600F195801068014600286268C0F20C
:103CF000938054484FF00A0E15E020682B6810F0AE
:103D0000800F53F8041B02D1400648BF89B26F2AC6
:103D10004C482B6014BF4FF00A0E4FF0080E0023E2
:103D2000626884F84330002AA26051DB236823F0E4
:103D30000403236000294BD1002A7BD1E146BEF168
:103D4000080F56D0ACEB0903236183E72B681A6890
:103D500004332B6004F1420984F842200120B4E7C7
:103D60002B686268191D2960D3F80090002148462D
:103D7000FFF7E6FD002863D0A0EB09006060A4E730
:103D8000236843F02003236078222F4884F84520DD
:103D90002A6813F0800F52F8041B03D113F0400F70
:103DA00018BF89B22A60DA0744BF43F020032360BA
:103DB00019B9236823F0200323604FF0100EAEE7FB
:103DC000582384F845301F482368E1E72368DBE780
:103DD0007546E146B1FBF5F305FB131A0A46AA4204
:103DE00010F80A1009F8011D1946F3D2BEF1080FA8
:103DF000A8D12368DD07A5D5626823699A42A1DCB2
:103E0000302309F8013C09F1FF399BE719801EE7CF
:103E1000B2F90010084668E72D20002AA26084F855
:103E2000430002DB23F0040323600A2505484942CE
:103E3000AE46CEE7037884F8423004F142097EE7CB
:103E4000606842E7DC810008F081000870B5B1F9D4
:103E50000C300C46990796B007D504F147030122B0
:103E6000C4E90432236016B070BDB4F90E10002905
:103E7000054629DB6A4600F09DF8002822DB4FF456
:103E800080612846019EFDF711FE88B3A38920605A
:103E900043F0800306F47046A381B6F5005F4FF44B
:103EA0008063C4E90403DED1B4F90E10284600F0A3
:103EB00057F80028D7D0A38923F0030343F0010368
:103EC000A381D0E7B4F90C3013F0800F14BF402663
:103ED0004FF4806631462846FDF7E8FD40B1A389DE
:103EE000206043F08003C4E90406A38116B070BDCE
:103EF000B4F90C309A05B6D423F0030304F1470259
:103F000043F002030121C4E90421A3812260AAE74E
:103F100070B50C46B1F90E10002996B015461E4634
:103F20000FDB6A4600F046F800280ADB019B03F429
:103F30007043A3F50053B3FA83F34FF480625B0937
:103F400008E0A28912F0800F4FF0000314BF402256
:103F50004FF48062002033602A6016B070BD00BF4D
:103F600038B5074D0022044608462A6003F0E2FFF8
:103F7000431C00D038BD2B68002BFBD0236038BD1C
:103F8000E001002070B50C46084D0346002620468F
:103F900011461C462E6003F099FF431C00D070BDF3
:103FA0002B68002BFBD0236070BD00BFE001002018
:103FB00003F08ABF70B50C46084D03460026204624
:103FC00011461C462E6003F0B0FF431C00D070BDAC
:103FD0002B68002BFBD0236070BD00BFE0010020E8
:103FE00081F0004102E000BF83F0004330B54FEAAA
:103FF00041044FEA430594EA050F08BF90EA020F17
:104000001FBF54EA000C55EA020C7FEA645C7FEAA9
:10401000655C00F0E2804FEA5454D4EB5555B8BFCC
:104020006D420CDD2C4480EA020281EA030382EA3D
:10403000000083EA010180EA020281EA0303362DCF
:1040400088BF30BD11F0004F4FEA01314FF4801CA2
:104050004CEA113102D0404261EB410113F0004FB4
:104060004FEA03334CEA133302D0524263EB43036B
:1040700094EA050F00F0A780A4F10104D5F1200E09
:104080000DDB02FA0EFC22FA05F2801841F1000164
:1040900003FA0EF2801843FA05F359410EE0A5F138
:1040A00020050EF1200E012A03FA0EFC28BF4CF069
:1040B000020C43FA05F3C01851EBE37101F000451F
:1040C00007D54FF0000EDCF1000C7EEB00006EEB2C
:1040D0000101B1F5801F1BD3B1F5001F0CD34908B6
:1040E0005FEA30004FEA3C0C04F101044FEA44520D
:1040F00012F5800F80F09A80BCF1004F08BF5FEA94
:10410000500C50F1000041EB045141EA050130BD73
:104110005FEA4C0C404141EB0101013C28BFB1F585
:10412000801FE9D291F0000F04BF01460020B1FAD0
:1041300081F308BF2033A3F10B03B3F120020CDAA3
:104140000C3208DD02F1140CC2F10C0201FA0CF081
:1041500021FA02F10CE002F11402D8BFC2F1200CE6
:1041600001FA02F120FA0CFCDCBF41EA0C0190409C
:10417000E41AA2BF01EB0451294330BD6FEA0404E5
:104180001F3C1CDA0C340EDC04F11404C4F12002D0
:1041900020FA04F001FA02F340EA030021FA04F3E2
:1041A00045EA030130BDC4F10C04C4F1200220FA39
:1041B00002F001FA04F340EA0300294630BD21FA77
:1041C00004F0294630BD94F0000F83F4801306BF3D
:1041D00081F480110134013D4EE77FEA645C18BF31
:1041E0007FEA655C29D094EA050F08BF90EA020FC8
:1041F00005D054EA000C04BF1946104630BD91EAC0
:10420000030F1EBF0021002030BD5FEA545C05D1C2
:104210004000494128BF41F0004130BD14F5800401
:104220003CBF01F5801130BD01F0004545F0FE4175
:1042300041F470014FF0000030BD7FEA645C1ABFAA
:10424000194610467FEA655C1CBF0B46024650EAE1
:10425000013406BF52EA033591EA030F41F400210D
:1042600030BD00BF90F0000F04BF0021704730B593
:104270004FF4806404F132044FF000054FF0000168
:1042800050E700BF90F0000F04BF0021704730B529
:104290004FF4806404F1320410F0004548BF4042FE
:1042A0004FF000013EE700BF42004FEAE2014FEA53
:1042B00031014FEA02701FBF12F07F4393F07F4F2E
:1042C00081F06051704732F07F4208BF704793F031
:1042D0007F4F04BF41F40021704730B54FF4607444
:1042E00001F0004521F000411CE700BF50EA010247
:1042F00008BF704730B54FF000050AE050EA0102F0
:1043000008BF704730B511F0004502D5404261EB5F
:1043100041014FF4806404F132045FEA915C3FF4A0
:10432000D8AE4FF003025FEADC0C18BF03325FEA3D
:10433000DC0C18BF033202EBDC02C2F1200300FAEE
:1043400003FC20FA02F001FA03FE40EA0E0021FA13
:1043500002F11444BDE600BF70B54FF0FF0C4CF401
:10436000E06C1CEA11541DBF1CEA135594EA0C0FB3
:1043700095EA0C0F00F0DEF82C4481EA030621EAEE
:104380004C5123EA4C5350EA013518BF52EA033529
:1043900041F4801143F4801338D0A0FB02CE4FF0DB
:1043A0000005E1FB02E506F00042E0FB03E54FF00B
:1043B0000006E1FB03569CF0000F18BF4EF0010E03
:1043C000A4F1FF04B6F5007F64F5407404D25FEAFF
:1043D0004E0E6D4146EB060642EAC62141EA5551B2
:1043E0004FEAC52040EA5E504FEACE2EB4F1FD0CF4
:1043F00088BFBCF5E06F1ED8BEF1004F08BF5FEA72
:10440000500E50F1000041EB045170BD06F0004623
:1044100046EA010140EA020081EA0301B4EB5C04D0
:10442000C2BFD4EB0C0541EA045170BD41F48011C8
:104430004FF0000E013C00F3AB8014F1360FDEBFED
:10444000002001F0004170BDC4F10004203C35DAC9
:104450000C341BDC04F11404C4F1200500FA05F34C
:1044600020FA04F001FA05F240EA020001F00042ED
:1044700021F0004110EBD37021FA04F642EB060163
:104480005EEA430E08BF20EAD37070BDC4F10C048D
:10449000C4F1200500FA04F320FA05F001FA04F251
:1044A00040EA020001F0004110EBD37041F100013D
:1044B0005EEA430E08BF20EAD37070BDC4F1200548
:1044C00000FA05F24EEA020E20FA04F301FA05F2B0
:1044D00043EA020321FA04F001F0004121FA04F258
:1044E00020EA020000EBD3705EEA430E08BF20EA28
:1044F000D37070BD94F0000F0FD101F00046400062
:1045000041EB010111F4801F08BF013CF7D041EAE3
:10451000060195F0000F18BF704703F000465200E7
:1045200043EB030313F4801F08BF013DF7D043EAB8
:104530000603704794EA0C0F0CEA135518BF95EA6E
:104540000C0F0CD050EA410618BF52EA4306D1D1F5
:1045500081EA030101F000414FF0000070BD50EA14
:10456000410606BF1046194652EA430619D094EA9E
:104570000C0F02D150EA013613D195EA0C0F05D188
:1045800052EA03361CBF104619460AD181EA0301DC
:1045900001F0004141F0FE4141F470014FF0000094
:1045A00070BD41F0FE4141F4780170BD70B54FF02F
:1045B000FF0C4CF4E06C1CEA11541DBF1CEA1355AF
:1045C00094EA0C0F95EA0C0F00F0A7F8A4EB050491
:1045D00081EA030E52EA03354FEA013100F0888088
:1045E0004FEA03334FF0805545EA131343EA126351
:1045F0004FEA022245EA111545EA10654FEA002606
:104600000EF000419D4208BF964244F1FD0404F5BE
:10461000407402D25B084FEA3202B61A65EB03051A
:104620005B084FEA32024FF480104FF4002CB6EBD7
:10463000020E75EB030E22BFB61A754640EA0C0057
:104640005B084FEA3202B6EB020E75EB030E22BF97
:10465000B61A754640EA5C005B084FEA3202B6EBD8
:10466000020E75EB030E22BFB61A754640EA9C0097
:104670005B084FEA3202B6EB020E75EB030E22BF67
:10468000B61A754640EADC0055EA060E18D04FEA25
:10469000051545EA16754FEA06164FEAC30343EAC5
:1046A00052734FEAC2025FEA1C1CC0D111F4801F92
:1046B0000BD141EA00014FF000004FF0004CB6E78B
:1046C00011F4801F04BF01430020B4F1FD0C88BF2A
:1046D000BCF5E06F3FF6AFAEB5EB030C04BFB6EB35
:1046E000020C5FEA500C50F1000041EB045170BD28
:1046F0000EF0004E4EEA113114EB5C04C2BFD4EB55
:104700000C0541EA045170BD41F480114FF0000ED8
:10471000013C90E645EA060E8DE60CEA135594EA54
:104720000C0F08BF95EA0C0F3FF43BAF94EA0C0F57
:104730000AD150EA01347FF434AF95EA0C0F7FF4CC
:1047400025AF104619462CE795EA0C0F06D152EA20
:1047500003353FF4FDAE1046194622E750EA410604
:1047600018BF52EA43067FF4C5AE50EA41047FF415
:104770000DAF52EA43057FF4EBAE12E74FF0FF3C7A
:1047800006E000BF4FF0010C02E000BF4FF0010C4B
:104790004DF804CD4FEA410C7FEA6C5C4FEA430CC4
:1047A00018BF7FEA6C5C1BD001B050EA410C0CBF13
:1047B00052EA430C91EA030F02BF90EA020F002075
:1047C000704710F1000F91EA030F58BF994208BFDC
:1047D00090422CBFD8176FEAE37040F00100704799
:1047E0004FEA410C7FEA6C5C02D150EA013C07D1F0
:1047F0004FEA430C7FEA6C5CD6D152EA033CD3D03B
:104800005DF8040B704700BF8446104662468C4634
:104810001946634600E000BF01B5FFF7B7FF002867
:1048200048BF10F1000F01BD4DF808EDFFF7F4FF90
:104830000CBF012000205DF808FB00BF4DF808ED1B
:10484000FFF7EAFF34BF012000205DF808FB00BF3E
:104850004DF808EDFFF7E0FF94BF012000205DF860
:1048600008FB00BF4DF808EDFFF7CEFF94BF012015
:1048700000205DF808FB00BF4DF808EDFFF7C4FF0E
:1048800034BF012000205DF808FB00BF4FEA410261
:1048900012F5001215D211D56FF47873B3EB625292
:1048A00012D94FEAC12343F0004343EA505311F0B9
:1048B000004F23FA02F018BF404270474FF000004B
:1048C000704750EA013005D111F0004008BF6FF089
:1048D000004070474FF00000704700BF4FEA4102B0
:1048E000B2F1E04324BFB3F5001CDCF1FE5C0DD94E
:1048F00001F0004C4FEAC0024CEA5070B2F1004F98
:1049000040EB830008BF20F00100704711F0804F9A
:1049100021D113F13872BCBF01F00040704741F45F
:1049200080114FEA5252C2F11802C2F1200C10FA63
:104930000CF320FA02F018BF40F001004FEAC12347
:104940004FEAD32303FA0CFC40EA0C0023FA02F3EB
:104950004FEA4303CCE77FEA625307D150EA0133C1
:104960001EBF4FF0FE4040F44000704701F0004091
:1049700040F0FE4040F40000704700BF000000001F
:1049800000B583B001F026F800F08EFE00F04AF981
:1049900000F0D2F900F0CAFE00F072FA00F048FB15
:1049A00000F0A8F900F01CFB012211464FF09040E6
:1049B00002F00CF840F2E13000F00CFF00F09EFD38
:1049C00000F01EFE89E0504B1B78022B02D84E4BA4
:1049D00003221A704C4B1978102000F0EDFA4B4B63
:1049E000188880B207EE900AF8EE677A17EE900A00
:1049F000FFF75AFC3EA3D3E90023FFF7ADFC0246C4
:104A00000B46FFF7F3FA3CA3D3E90023FFF7CEFDF3
:104A10003BA3D3E90023FFF7E9FAFFF75FFF3C4B25
:104A200018603C4EFFF740FC41EC100B3146022071
:104A3000FBF708FC002000F037FD0124009403235D
:104A40000A221C21762000F0D1FC009403230A22C4
:104A50001621762000F0CAFC009403230A221021BC
:104A6000762000F0C3FC009403230A22114676202E
:104A700000F0BCFC0094022305220721782000F0FE
:104A8000B5FC0521462000F0AFFB234D2246294608
:104A9000224800F0FDFB1521462000F0A5FB224630
:104AA00029461F4800F0F4FB0521002000F09CFB84
:104AB0001C4D22462946304600F0EAFB05213220F3
:104AC00000F092FB22462946174800F0E1FB00F077
:104AD000CDFC4FF47A7000F09FFF0B4B1B783F2BFF
:104AE0007FF671AF084B3F221A706CE7AFF300807E
:104AF0006666666666660A400000000000FEAF401B
:104B0000EC51B81E85EBC13F5F000020E40100209E
:104B1000EC0100205C00002068000020D08000082C
:104B2000D880000860000020E0800008044A536933
:104B300043F002035361034A1378013B137070473B
:104B4000000401405F000020044A536943F0400321
:104B50005361034A13780133137070470004014016
:104B60005F00002008B5114B1B788BB100220F4B62
:104B70001A7001214FF0904001F028FF61210920B7
:104B800000F01AFA0A4A536943F40063536108BDFE
:104B90000121064B19700A464FF0904001F016FFB4
:104BA000E121092000F008FAECE700BFEA0100204B
:104BB00000040140074B1B6813F0040F09D0054B9C
:104BC0001A6C1A6842F004021A609A6842F00402F1
:104BD0009A607047000004500F4B1B6813F0020FDF
:104BE0000FD00D4A536843F0010353600B4B1A6C0E
:104BF0001A6842F004021A609A6842F004029A604D
:104C00007047054B1B6813F0080F04D0024A536825
:104C100043F001035360704700000240000004505D
:104C200072B6FEE7F0B589B00024039404940594AD
:104C3000069407942D4BDA6C42F00102DA64DA6CC8
:104C400002F001020192019ADA6C42F00202DA6487
:104C5000DB6C03F002030293029B224640F20971CF
:104C60004FF0904001F0B2FE214D012280212846F4
:104C700001F0ACFE012214214FF0904001F0A6FE9D
:104C800040F20D73039301270497059403260696BB
:104C900003A94FF0904001F0B5FD102303931123B9
:104CA00004930594069403A94FF0904001F0AAFDE7
:104CB0004FF4184303930494059403A94FF09040D4
:104CC00001F0A0FD422303930494059403A9284610
:104CD00001F098FD8023039304970594069603A999
:104CE000284601F08FFD09B0F0BD00BF0010024062
:104CF000000400480E4B9A6842F010029A60DA688D
:104D000042F48072DA6003F580631A6840F642016B
:104D10000A431A60DA680A43DA60064B80221A6096
:104D20004FF400021A604FF480725A60704700BF5F
:104D30000000014000E100E010B54A4BDA6C42F49B
:104D40000052DA64D3F8882042F04052C3F8882039
:104D50009A6C42F001029A64A3F58053424A1A61A8
:104D6000424A5A610322DA609A6822F010029A607D
:104D70009A6842F020029A609A6842F4A0629A60AF
:104D80009A6842F002029A609A6842F440529A602D
:104D90009A6842F080029A60354A4FF400611160CF
:104DA0009A6842F001029A60324A936823F0010344
:104DB0009360304B9B6813F0010FFAD12E4A936831
:104DC00043F4301393607F212C4800F08FFD294B72
:104DD000DA6842F4005242F00302DA609A6942F45F
:104DE00060329A611A6B42F002021A631A6B42F443
:104DF000721242F446521A635A6842F004025A6030
:104E00001B4A4FF4802111601A6842F001021A60B7
:104E10009A6822F000529A60DA6842F00042DA6042
:104E20001A6842F001021A609A6842F001029A6020
:104E3000104B1B6813F0010FFAD10E4C236843F09E
:104E400001032360A36843F08053A3600A2000F0AD
:104E5000E3FDA36843F00403A3600A2000F0DCFD37
:104E600010BD00BF0010024040000450E4010020CB
:104E700000E100E00000045000030450F0010020B5
:104E800008B51248124B0360124B43600023836045
:104E90000122C260036143618361C361036201F067
:104EA0001FFF50B90021094802F077FB40B90021EB
:104EB000064802F0A0FB30B908BDFFF7B1FEF1E7EC
:104EC000FFF7AEFEF3E7FFF7ABFEF5E75402002075
:104ED000005C0040E49CD1102DE9F041A0B00446F4
:104EE00000211B911C911D911E911F915C2204A811
:104EF000FBF73CFA22682D4B9A4202D020B0BDE865
:104F0000F0814FF48073049304A801F0EDFA0028B7
:104F100048D1274CE36C43F00103E364E36C03F0F6
:104F200001030193019BE36C43F00203E364E36C30
:104F300003F002030293029B80231B934FF012089D
:104F4000CDF8708000251D9503271E9704261F9617
:104F50001BA94FF0904001F055FC10231B93CDF896
:104F600070801D951E971F961BA9124801F04AFCE0
:104F7000A36D43F40003A365A36D03F4000303933F
:104F8000039B2A462946482002F030FC482002F0C4
:104F90003DFC2A462946492002F028FC492002F01F
:104FA00035FCABE7FFF73CFEB3E700BF005C004019
:104FB000001002400004004800B585B08DF80C00D8
:104FC0008DF80D1064230093022303AA6021034887
:104FD00001F0EAFE05B05DF804FB00BF54020020BA
:104FE00008B501228021114801F0F0FC00220521C2
:104FF0004FF0904001F0EAFC0A2000F00DFD302156
:105000000D20FFF7D9FFE1210920FFF7D5FF282167
:105010001020FFF7D1FF012204214FF0904001F052
:10502000D5FC642000F0F8FC08BD00BF0004004877
:1050300008B51048104B03604FF48273436000239F
:1050400083604FF4E062C260036143614FF4007219
:1050500082611822C2610362436283620722C262D4
:1050600003630823436302F0F6FC00B908BDFFF7B1
:10507000D7FDFBE7A80200200030014000B589B051
:105080000023039304930593069307930268174B39
:105090009A4202D009B05DF804FB03F560431A6E32
:1050A00042F480521A661A6E02F480520192019AFA
:1050B000DA6C42F00202DA64DB6C03F00203029362
:1050C000029B2823039302230493032306930523BF
:1050D000079303A9064801F095FB002211462320FF
:1050E00002F084FB232002F091FBD3E70030014063
:1050F0000004004800B583B08DF8070000224FF48B
:1051000000714FF0904001F061FC00224FF480618B
:105110004FF0904001F05AFC642301220DF1070189
:10512000064802F007FD01224FF400714FF0904055
:1051300001F04CFC03B05DF804FB00BFA8020020A6
:1051400000B583B08DF8070000224FF400714FF0D6
:10515000904001F03BFC01224FF480614FF0904001
:1051600001F034FC642301220DF10701064802F02E
:10517000E1FC01224FF400714FF0904001F026FC59
:1051800003B05DF804FB00BFA80200207F2825D8EB
:105190001F2923D810B4124B1B7913B1B2FA82F233
:1051A0005209012A0FD0CB0800EBC3100D4C225C32
:1051B00001F0070101238B40DB435BB21340235412
:1051C0005DF8044B7047CB0800EBC310054C235C23
:1051D00001F007018A4013432354F1E7704700BFF1
:1051E0000C03002014030020014B188059807047E5
:1051F0000C0300202DE9F8439046244B1B880A78C5
:1052000013447F2B3EDC81460D46204B5B884A7859
:1052100013441F2B38DC002620E01C4B18885988CB
:1052200031442044B8FA88F2520989B280B2FFF7BB
:10523000ADFF01342B78A3420FD907FA04F313F41E
:10524000004FEAD0114B1888598831442044424617
:1052500089B280B2FFF79AFFEBE701366A78B24273
:1052600008D96968A9F1200302FB036331F81370C0
:105270000024DFE7054A138829780B441380484649
:10528000BDE8F8830020FBE70020F9E70C030020CD
:1052900070B504460E46154600E00134207838B15A
:1052A0002A463146FFF7A6FF034620788342F4D012
:1052B00070BD2DE9F04F83B004460E46174699465F
:1052C0009DF830807F2800D97F247F2F00D97F2749
:1052D0001F2E00D91F26B9F11F0F01D94FF01F094A
:1052E000BC421FD2A7EB040A0FFA8AFA4E451ED21F
:1052F000A9EB060B0FFA8BFBBC421DD201224E45D7
:105300001DD20121DA451DDD0AEBDA756D10BAF107
:10531000000F1DD0BBF1000F33D00092CDF80490E8
:10532000894651E0A4EB070A0FFA8AFADEE7A6EBFA
:10533000090B0FFA8BFBDFE74FF0FF32DFE74FF08F
:10534000FF31DFE70BEBDB756D106D422DB2DEE751
:105350004E4502D84B46B1461E46BC4200D82746B1
:105360000FFA89F90AE01FFA89F942464946384698
:10537000FFF70CFF09F101090FFA89F9B145F2DDD8
:1053800017E04E4500D8B146BC4202D83B462746FE
:105390001C463FB207E0BFB2424649463846FFF7D7
:1053A000F5FE01373FB2A742F5DD02E0019B9E42C8
:1053B00011D103B0BDE8F08F2B465D4503DA5344AD
:1053C0001BB24E44B6B21D46424631462046FFF758
:1053D000DDFEBC42EAD0CAF100039D42ECDDA5EB44
:1053E0000B031BB2009A1444A4B2E6E72DE9F04384
:1053F00083B09DF828907F2823D805460F46904615
:105400001E461F291DD883187F2B03DDC0F180089D
:105410001FFA88F8BB191F2B02DDC7F12006B6B2B0
:1054200000240CE0E11989B208EB0502CDF80090E8
:105430000B4692B22846FFF73CFF0134E4B2B44277
:10544000F0D903B0BDE8F08308B540F0B000FFF735
:1054500051FE08BD10B50446000940F01000FFF7EA
:1054600049FE04F00F00FFF745FE10BD38B50025DA
:105470000CE004EBC5130B4AD05CFFF761FE01346E
:10548000E4B214F0800FF4D00135EDB2032D07D84B
:105490002846FFF7D9FF0020FFF7DCFF0024F0E7E4
:1054A00038BD00BF1403002038B5014600B1FF210C
:1054B000002303E0104AD15401339BB2B3F5007FBF
:1054C000F8D300250CE004EBC5130B4AD05CFFF7C2
:1054D00037FE0134E4B214F0800FF4D00135EDB2A0
:1054E000032D07D82846FFF7AFFF0020FFF7B2FFD4
:1054F0000024F0E738BD00BF1403002008B50022E7
:105500004FF400714FF0904001F060FA01224FF427
:1055100080714FF0904001F059FA142000F07CFAAD
:1055200000224FF480714FF0904001F04FFA1420A8
:1055300000F072FA01224FF480714FF0904001F0B8
:1055400045FA142000F068FA012211464FF090400D
:1055500001F03CFA642000F05FFAAE20FFF7CAFDCC
:10556000D520FFF7C7FDF020FFF7C4FDA820FFF707
:10557000C1FD1F20FFF7BEFDD320FFF7BBFD0020BC
:10558000FFF7B8FD8D20FFF7B5FD1420FFF7B2FD42
:105590004020FFF7AFFDA620FFF7ACFDA420FFF7EA
:1055A000A9FDA120FFF7A6FDC820FFF7A3FDDA2083
:1055B000FFF7A0FD4220FFF79DFD8120FFF79AFD38
:1055C0008020FFF797FDD920FFF794FDF120FFF72A
:1055D00091FDDB20FFF78EFD4020FFF78BFDAF2014
:1055E000FFF788FD0120FFF75FFFFFF73FFF034B49
:1055F00000221A805A8001225A7108BD0C03002033
:1056000030B583B00020FFF74FFF0124009403233F
:105610000A221C217620FFF7E9FE009403230A22C8
:1056200016217620FFF7E2FE009403230A221021C0
:105630007620FFF7DBFE009403230A221146762032
:10564000FFF7D4FE00940223052207217820FFF7FC
:10565000CDFE05214620FFF7C7FD0E4D2246294607
:105660000D48FFF715FE15214620FFF7BDFD224628
:1056700029460A48FFF70CFE05210020FFF7B4FD7C
:10568000224607490748FFF703FEFFF7EFFE03B086
:1056900030BD00BF68000020D0800008D88000081E
:1056A00060000020E480000800B597B0442200218B
:1056B00005A8FAF75BFE002300930193029303937E
:1056C00004934FF4007001F0F5FF28BB10230593FD
:1056D00001220B9200230C9360230D9302230F935E
:1056E000109211922822129207221392149315936A
:1056F00005A800F047FA90B90F2300930323019304
:1057000000230293039304930421684600F070FD84
:1057100040B917B05DF804FBFFF782FAD6E7FFF750
:105720007FFAE9E7FFF77CFAF3E7000010B582B0F3
:105730004FF090431A6842F440621A605A6822F0AF
:1057400020025A60214A936D43F000539365204B29
:105750001A6822F480321A601A6822F080421A60B5
:10576000DA6B42F40032DA634FF4FA725A641A6860
:1057700042F080421A6000238DF8073005E09DF862
:1057800007300133DBB28DF807309DF80730DBB20C
:105790001E2B0DD89DF807200D4CA36B43EA024346
:1057A000A363052000F038F9636B13F0804FE6D057
:1057B000074B1A6822F080421A601A6842F480325D
:1057C0001A6000225A6102B010BD00BF00100240F2
:1057D00000740040014B5861704700BF00740040E6
:1057E000FEE7FEE7FEE7FEE7FEE77047704770471B
:1057F00008B500F0FFF808BD08B5024802F09AFAB3
:1058000008BD00BFA802002008B5024801F09EFBB9
:1058100008BD00BF5402002008B5024801F07BFE1D
:1058200008BD00BF5402002082B00A4B1A6E42F03D
:1058300001021A661A6E02F001020092009A9A6D35
:1058400042F080529A659B6D03F080530193019B57
:1058500002B070470010024038B5044602689368F1
:1058600013F0020300D00123916811F0010F39D029
:10587000002B39D1936803F00D03012B09D0636D20
:1058800043F010036365A36D43F00103A36501209A
:1058900029E0936823F0004323F03F0343F0020321
:1058A0009360236803221A6000F0B0F8054623686D
:1058B0009B6813F0010F13D000F0A8F8401B0228DA
:1058C000F5D923689B6813F0010FF0D0636D43F0A6
:1058D00010036365A36D43F00103A365012002E09B
:1058E000002000E0002038BD0020FCE730B583B088
:1058F0000023019390F85030012B41D004460D460F
:10590000012380F85030FFF7A7FF80BB636D23F4BD
:10591000885323F0020343F002036365226893680F
:1059200023F0404323F03F0305F080452B4343F031
:105930000043936023689B68002B06DB636D23F0B4
:10594000030343F00103636515E0019B01330193F9
:10595000019BB3F5912FEDD3636D23F0120343F058
:1059600010036365002384F85030012006E0636D66
:1059700043F010036365002384F8503003B030BD5A
:105980000220FBE7104B1B780BB90120704710B5C4
:1059900004464FF47A70B0FBF3F30C4A1068B0FB86
:1059A000F3F001F037FF68B90F2C01D901200AE0AC
:1059B000002221464FF0FF3001F018FF044B1C601D
:1059C000002000E0012010BD7000002078000020C1
:1059D0007400002010B5032001F0F6FE0F20FFF741
:1059E000D1FF10B10124204610BD0446FFF71CFF73
:1059F000F9E70000034B1B78034A11680B4413605E
:105A0000704700BF7000002014050020014B18688B
:105A1000704700BF1405002038B50446FFF7F6FFB5
:105A20000546B4F1FF3F02D0044B1B781C44FFF73E
:105A3000EDFF401BA042FAD338BD00BF700000202C
:105A400030B583B00446204B9B6D13F0805F0BD0C4
:105A500001F028FEB0F5007F17D0802C1FD82DD084
:105A6000702C2DD000211BE0174DAB6D43F08053FF
:105A7000AB65AB6D03F080530193019B01F012FE07
:105A8000AB6D23F08053AB65E4E7802C03D9A02CE9
:105A900003D9022104E0002102E0012100E00321FA
:105AA0000A4A136823F007030B431360136803F0DB
:105AB00007038B4206D1002003B030BD0221EFE77F
:105AC0000121EDE70120F7E700100240002002402D
:105AD000284A9368D26802F0030213F00C030AD03C
